:1000000000380020110400006D0400007F91000002
:1000100000000000000000000000000000000000E0
:100020000000000000000000000000006D0400005F
:1000300000000000000000006D04000001910000BD
:10004000914D00009B4D0000A54D0000AF4D0000FC
:10005000B94D00006D0400006D0400006D04000047
:10006000859000006D040000C5630000CF630000B0
:10007000797100006D0400006D040000B371000090
:100080006D0400006D0400006D0400006D040000AC
:100090006D0400006D0400006D0400006D0400009C
:1000A000FB7D0000856500002F8000006D040000CE
:1000B0006D0400006D0400006D0400006D0400007C
:10040000FFFFFFFFFFFFFFFFFFFFFFFFFE7FFFFF7D
:1004100072B610490F4A0F4B0E4C0E4D0D4E0D4F3C
:10042000B846B946BA46BB46BC460B490B4A521AB7
:10043000013A05DD0020042308601944043AFBDA80
:1004400007488546074880470748804762B608F056
:100450009BFEFEE70000000000FDFF1F00380020AB
:100460000038002035370000AD360000D0E7C04628
:1004700002B4714649084900095C49008E4402BC37
:100480007047C04603B47146490840004900095A04
:1004900049008E4403BC7047002243088B4274D34A
:1004A00003098B425FD3030A8B4244D3030B8B4275
:1004B00028D3030C8B420DD3FF22090212BA030C7E
:1004C0008B4202D31212090265D0030B8B4219D35F
:1004D00000E0090AC30B8B4201D3CB03C01A52417F
:1004E000830B8B4201D38B03C01A5241430B8B42C7
:1004F00001D34B03C01A5241030B8B4201D30B03B0
:10050000C01A5241C30A8B4201D3CB02C01A5241D6
:10051000830A8B4201D38B02C01A5241430A8B4299
:1005200001D34B02C01A5241030A8B4201D30B0282
:10053000C01A5241CDD2C3098B4201D3CB01C01A9C
:10054000524183098B4201D38B01C01A52414309A6
:100550008B4201D34B01C01A524103098B4201D394
:100560000B01C01A5241C3088B4201D3CB00C01A01
:10057000524183088B4201D38B00C01A5241430879
:100580008B4201D34B00C01A5241411A00D201469E
:10059000524110467047FFE701B5002000F0F0F827
:1005A00002BDC0460029F7D076E7704703460B43EB
:1005B0007FD4002243088B4274D303098B425FD35C
:1005C000030A8B4244D3030B8B4228D3030C8B4288
:1005D0000DD3FF22090212BA030C8B4202D312126E
:1005E000090265D0030B8B4219D300E0090AC30B43
:1005F0008B4201D3CB03C01A5241830B8B4201D3F0
:100600008B03C01A5241430B8B4201D34B03C01AD8
:100610005241030B8B4201D30B03C01A5241C30A50
:100620008B4201D3CB02C01A5241830A8B4201D3C1
:100630008B02C01A5241430A8B4201D34B02C01AAB
:100640005241030A8B4201D30B02C01A5241CDD250
:10065000C3098B4201D3CB01C01A524183098B429B
:1006600001D38B01C01A524143098B4201D34B0184
:10067000C01A524103098B4201D30B01C01A5241E7
:10068000C3088B4201D3CB00C01A524183088B426E
:1006900001D38B00C01A524143088B4201D34B0057
:1006A000C01A5241411A00D20146524110467047C9
:1006B0005DE0CA0F00D04942031000D340425340CE
:1006C00000229C4603098B422DD3030A8B4212D38E
:1006D000FC22890112BA030A8B420CD389019211C0
:1006E0008B4208D3890192118B4204D389013AD0FD
:1006F000921100E08909C3098B4201D3CB01C01AD2
:10070000524183098B4201D38B01C01A52414309E4
:100710008B4201D34B01C01A524103098B4201D3D2
:100720000B01C01A5241C3088B4201D3CB00C01A3F
:10073000524183088B4201D38B00C01A5241D9D257
:1007400043088B4201D34B00C01A5241411A00D2D8
:100750000146634652415B10104601D34042002BD4
:1007600000D54942704763465B1000D3404201B553
:10077000002000F005F802BD0029F8D016E7704708
:100780007047C046844608006146FFE71FB50AF07F
:10079000C3F8002801D40021C8421FBD10B50AF0DB
:1007A00043F84042013010BD10B50AF0B5F80028FA
:1007B00001DB002010BD012010BDC04610B50AF0BD
:1007C000ABF8002801DD002010BD012010BDC0469F
:1007D00010B50AF051F8002801DC002010BD0120FE
:1007E00010BDC04610B50AF047F8002801DA002015
:1007F00010BD012010BDC0461C2101231B049842DE
:1008000001D3000C10391B0A984201D3000A0839A1
:100810001B09984201D30009043902A2105C401858
:100820007047C046040302020101010100000000FC
:10083000000000000023C25C0133002AFBD1581ED7
:100840007047000070B50D0004000A490A4809F01D
:10085000C3FB08F06BFC094B0100180009F0BCFB5E
:100860002A002100064809F0B7FB064809F0B4FB4E
:1008700070BDC046EEBE0000C8BE0000D5BE000080
:10088000DFBE0000ECBE000070B5050000F0D6F839
:100890002B78064A04001370002B01D000F0B2F848
:1008A00029780020FFF7CEFF20B270BD6005002040
:1008B000F0B5002787B007700590012000F0E4FE36
:1008C000114EFC253378012402930823AD051A004C
:1008D000022138000195009400F05EFB022133787C
:1008E0000700029308220C2320000195009100F0DC
:1008F00053FB3843C0B2002801D1059B1C70431E36
:100900009841C0B207B0F0BD3806002010B50020F5
:1009100000F0BAFE0400012000F0B6FE2043C0B291
:1009200010BD0000002307B5012001A9019300F0CC
:10093000F7F9002802D1019A014B9A620EBDC04618
:1009400070050020002307B5012001A9019300F0E4
:1009500007FA002802D1019A014BDA620EBDC046A7
:10096000700500200020F0B585B003A9039000F0C9
:1009700017FA184D041E01D1039BEB6402F01EFE12
:10098000154F164E3B68C01A306002F017FE3368F0
:100990003860002B02DAFA235B003360EB6C3068BE
:1009A00001930BF073F9060001980F000BF06EF93C
:1009B00002000B00300039000AF064FE0022084BF0
:1009C0000AF046FB0BF0D8F9064D2860200005B070
:1009D000F0BDC046700500206405002068050020B9
:1009E00000408F406C050020002110B5080000F089
:1009F00083FB00210400012000F07EFB2043C0B2F5
:100A000010BD000070B50C4D00242B78DB09012BC4
:100A100005D121002000072200F026FC0400A87860
:100A2000C009012805D10722002100F01DFC044364
:100A3000E4B2200070BDC0467406002010B504006A
:100A4000FFF7D2FF002805D1034B1A789B7813409B
:100A5000DB09237010BDC0467406002010B50100EC
:100A6000012000F00BFD10BD10B50100012000F0C9
:100A70006BFC10BDF8B5012000F08CFD04000020D7
:100A800000F088FD23000343DBB20500002B12D1E8
:100A90003D493E4809F0A0FA08F048FB3C4B0100F4
:100AA000180009F099FA3B4809F096FA3A4809F01B
:100AB00093FA0020F8BD002C26D1002D22D000246E
:100AC000002000F097FD002800D1C046002000F073
:100AD000DBFD2D49031E2E4E2C482F4D45D109F02C
:100AE0007BFA08F023FB0100300009F075FA2B486F
:100AF00009F072FA280009F06FFAC046631E9C41A3
:100B0000E0B2D7E7C046D4E7012000F073FD00282B
:100B100000D1C046012000F0B7FD1B49031E1C4F49
:100B20001A481D4E0ED109F057FA08F0FFFA0100DD
:100B3000380009F051FA1A4809F04EFA300009F06D
:100B40004BFABAE709F048FA08F0F0FA0100380069
:100B500009F042FA134809F03FFA300009F03CFA74
:100B6000002DADD1C0460120A4E709F035FA08F008
:100B7000DDFA0100300009F02FFA0B4809F02CFAD9
:100B8000280009F029FAEDE77CBF0000C8BE00008C
:100B9000D5BE00001EBF0000ECBE000058BF000024
:100BA00034BF000045BF000069BF000010B5012040
:100BB00000F020FD002801D0012010BD00F01AFD3A
:100BC0000028F9D1C046F8E770B505000800190003
:100BD000012D0AD102F010FD4442E4B2002C02D0F3
:100BE0000122054B1A70200070BD0624002DFAD199
:100BF00002F02CFDF0E7C0465008002070B505005B
:100C000008001100012D21D1049A02F001FD444297
:100C1000E4B2002C38D01F4A052153681E48013326
:100C200053602A0002F0D2FC0A2002F0C3FC00222A
:100C30000521194802F0CAFC164BAD00EB58042BF5
:100C400002D90122154B1A70200070BD0624002D18
:100C5000FAD1049A02F006FD4442E4B2002C13D00B
:100C60000C4A022113680E48013313600D4A1368C1
:100C700001331360012202F0A9FC0A2002F09AFC61
:100C80002A0002210648D5E70024024BAD00EC50B3
:100C9000DAE7C04640060020C0F00F4050080020B0
:100CA00040F00F403C060020030010B50800012171
:100CB000002B04D002F096FC4042C0B210BD02F0FE
:100CC000BBFCF9E710B502F081FC10BD10B502F0D5
:100CD00071FC10BD10B502F071FC10BD7047000032
:100CE00038234343084870B518180C0001F0B0FED3
:100CF000050002208443902C03D1FFF7E7FF280072
:100D000070BD0120F9E7C04680060020062310B51B
:100D1000012802D8FFF7C8FF0300180010BD00002B
:100D200013B503000C000620012B13D80A4AD25C2D
:100D3000002A0FD06946002232305843074BCA8040
:100D4000C0188A1D362101F00FFE6B46DA880A238F
:100D50005343236016BDC0467C0600208006002059
:100D600013B503000C000620012B13D80A4AD25CED
:100D7000002A0FD000226946CA8038214B43074819
:100D800018186B469A1D01F0EFFD6B46DA880A23AE
:100D90005343236016BDC0467C0600208006002019
:100DA00003000A00062010B5012B0AD80549C95CCA
:100DB000002906D032305843034B1621C01801F0E9
:100DC000E9FD10BD7C06002080060020F7B5060076
:100DD0000620012E00D982E0414B9B5D002B7ED086
:100DE00000236A4632307043D3803E4B911DC018B9
:100DF00001F054FD002872D101216B468E40DA8843
:100E0000394B1500F45C0D408C432C4355080227E8
:100E10000D408D40F454F45CBC432C4395080D40C8
:100E2000BD40F454F45CFF19BC432C43F454F45C0F
:100E3000D5080D400437ED00BC432C43F454F45C5A
:100E400015090D4008372D01BC432C43F454F45CC4
:100E500055090D4010376D01BC432C43F454F45C2C
:100E600095090D402037AD01BC432C437F25F45438
:100E7000F45CD7090F40FF012C403C430327F45496
:100E80009B195E78140ABE433C4037000426274372
:100E90005F705C78970A0F40BF00B4433C435C70BE
:100EA0005C78D70A0F40B619FF00B4433C435C702E
:100EB0005C78170B0F4008363F01B4433C435C702D
:100EC0005C78570B0F4010367F01B4433C435C7095
:100ED000D20B0A405978D20129400A435A70FEBD0C
:100EE0007C0600208006002078060020F7B504006C
:100EF0000620012C49D8254B1B5D002B45D0002333
:100F00006A4632306043D371214BD11DC01801F0C5
:100F100017FD002839D16B46DA79012116001D4BE7
:100F20000E401D5D02278D43354356080E408E400E
:100F30001D551D5DBD43354396080E40BE401D55F1
:100F40001D5DFF19BD4335431D551D5DD6080E407F
:100F50000437F600BD4335431D551D5D16090E408F
:100F600008373601BD4335431D551D5D56090E40FA
:100F700010377601BD4335431D551D5D92090A406A
:100F80003F3192018D432A431A55FEBD7C06002055
:100F9000800600206A060020F0B585B001910AA9FC
:100FA000097805008C460624012840D80199033CA5
:100FB00002293CD8102B3AD80334082A37D13821DB
:100FC0004143454E88557618B380330000210833DD
:100FD00071701900B270019A404BF2700A0091CB07
:100FE00091C213CB13C213CB13C21B68136033001F
:100FF000624630331A700B980AF076FE02000B003E
:10100000374838490AF024F80AF0B6FE7063280021
:10101000FFF7DCFE0123344F902128007B55FFF7BA
:101020005FFE041E029005D000210B1C7B552000A2
:1010300005B0F0BD300000F079FD041E039001D032
:10104000029BF3E7300000F0B1FE041E029001D0D5
:10105000039BEBE7300000F073FF041E0390EFD119
:10106000300000F0BBFF041EF2D1300001F038F870
:10107000041E01D00023D9E730001C4901F0C4F858
:10108000041E0290F6D1300001F09EFB0400061E03
:10109000D6D192212800FFF723FE041E01D07E55F1
:1010A000C5E7019B022BC2D1002DC0D19621FFF7CD
:1010B00017FE220008210E48FFF704FE0D4822000B
:1010C0000721FFF7FFFD2000FFF710FF0028AED03B
:1010D0003C700400ABE7C0468006002098BF0000CB
:1010E00063EE5A423EE81D407C0600204806002080
:1010F00080F00F4000F00F40F7B506000D0001280A
:101100001AD8544B1B5C002B16D0C0463820002345
:101110006A467043D380504B0A00C0186B46991D35
:1011200001F0CFFB041E08D1012D00D184E0022D77
:1011300000D18AE0002D02D006242000FEBD6B46BF
:10114000D988012573000E00444A2E40985C02277E
:10115000A84330434E082E40AE409854985CB843A4
:1011600030438E082E40BE409854985CFF19B84317
:1011700030439854985CCE0804372E40F600B843AC
:1011800030439854985C0E0908372E403601B84316
:1011900030439854985C4E0910372E407601B8437E
:1011A00030439854985C8E0920372E40B601B843DE
:1011B00030439854985CCE09BC462E403F37F60128
:1011C000384030439854480A02262840A840D21894
:1011D0005378B3430343880A2840B0405370537890
:1011E000B619B343034353705378C80A04362840F2
:1011F000C000B343034353705378080B08362840AC
:101200000001B3430343537053781036B34366462B
:10121000480B28404001034353705378880B284003
:101220008001B343034353705378C90B2940C9016C
:101230003B400B43537080E7022209487600301888
:101240006B46991D0AF034FE77E7064876002A00BF
:101250003018F5E77C060020800600207406002088
:10126000700600206C0600201FB504000620012C2B
:1012700013D80B4B1B5D002B0FD0012393406A4604
:10128000121832309BB26043138003AA1380054BBF
:101290000A00C018039901F039FB04B010BDC04624
:1012A0007C0600208006002070B5160004AA050008
:1012B00014780620012D13D80A4A525D002A0FD057
:1012C000620032308900684332430A43DB001A432C
:1012D000054B52B2C0189721012392B201F0C6FB10
:1012E00070BDC0467C0600208006002073B5040057
:1012F000062501281FD8114B1B5C002B1BD0382062
:101300000023604301AE33800D4B3200C0185721DB
:10131000022301F0A2FB051E0CD16B467278991DC9
:1013200008483378120264009B18201802220B80B0
:101330000AF0BEFDC046280076BDC0467C060020EF
:101340008006002066060020F0B504000D0006208F
:1013500085B0012C25D8454B1B5D002B21D02000EA
:10136000FFF7C4FD2000FFF7C1FF414B6200D35CD3
:10137000DA06D60F002A62DA002D14D1932120005C
:10138000FFF7AEFC002809D12000FFF7AFFD0028D1
:1013900004D1320007213748FFF794FC2000FFF703
:1013A000A5FD05B0F0BD0020FFF7A0FD002207213C
:1013B00006003048FFF786FC9627FFF78BFC7F007E
:1013C00003902D4D2B789B0609D50020FFF78EFD4D
:1013D0000600FFF77FFC039BC01AB842F1D3200040
:1013E000FFF784FD021E22D101272B5D2B5D2B5DB3
:1013F0002B5D2B5D2B5D2B5D295D2B5D285DC9076A
:101400009B070007C00FC90FDB0F7B4079404740A7
:1014100000972000FFF748FF002808D12000FFF7C1
:1014200065FD002803D12B5D5B0700D5C046C04693
:10143000002EB3D12000FFF759FDC046AEE70E4E97
:10144000325D5207D20FAA42A8D05B07DB0FAB4236
:10145000A4D020212000FFF743FC335D1B079DD45F
:1014600022212000FFF73CFC98E7C0467C060020C4
:101470006606002000F00F406A060020F0B5040068
:101480000D00062087B0012C1ED83E4B1B5D002BA3
:101490001AD02000FFF72AFD2000FFF727FF3A4B64
:1014A0006200D35CDA06D60F002A55DA002D0DD182
:1014B00094212000FFF714FC320008213348FFF785
:1014C00001FC2000FFF712FD07B0F0BD2000FFF780
:1014D0000DFD00283ED12E4D2B5D2A5D2B5D2F5D2D
:1014E0000393285D295D2B5D920704930423D20F9B
:1014F000520032430592039A1A401300059A13438F
:101500000822174092183B43104018432023049AA6
:101510001940DB181340014319437F2337002A5D2C
:1015200019402B5D285D52079B070007C00FD20FA3
:10153000DB0F734072408F43464039002000009615
:10154000FFF7B2FE002805D12000FFF7CFFC0028EE
:1015500000D12B5D0022B0E70D4E325DD207D20FD5
:10156000AA42AED09B07DB0FAB42AAD01F212000BE
:10157000FFF7B6FB335D1B07A3D422212000FFF742
:10158000AFFB9EE77C0600206606002080F00F403F
:101590006A06002010B504000620012C17D801228D
:1015A000002C15D005211048FFF78CFB6420FFF7B5
:1015B0008DFB002205210C48FFF784FB3822624393
:1015C0000A4B20009B189978FFF7A0FBC04610BD7E
:1015D00002210748FFF776FB6420FFF777FB220024
:1015E00002210348E8E7C046C0F00F408006002013
:1015F00040F00F40F7B504000620012C2ED8012240
:10160000002C2CD005211C48FFF75CFB9620C00065
:10161000FFF75CFB002205211748FFF753FBFFF79C
:1016200059FB3827154E01903B006343F318200007
:101630009978FFF76BFB0500012807D0FFF74AFBFD
:10164000019BC01AFA239B009842EDD3FFF742FB9F
:101650000120002D02D00020094B1855FEBD0221AB
:101660000848FFF72FFB9620C000FFF72FFB220052
:1016700002210448D1E7C046C0F00F408006002098
:101680007C06002040F00F4070B5050006240128BC
:1016900028D8012203211448FFF714FBC820FFF7C4
:1016A00015FB002203211048FFF70CFB9620400099
:1016B000FFF70CFB08212800FFF728FB0400C046B9
:1016C0000A490B4808F088FC07F030FD094B01007F
:1016D000180008F081FC2100074808F07DFC07484D
:1016E00008F07AFC200070BD80F00F408CBF000035
:1016F000C8BE0000D5BE0000E8BE0000ECBE000081
:1017000000234118884202D1D843C0B27047027802
:1017100001309B18DBB2F5E703004118002010B53B
:10172000034A1C7801336040105C8B42F9D110BD34
:10173000C0BF0000F0B597B003900B2015000293D6
:101740001CAB1E7804AB3D220191C01800210AF0A9
:101750009FFB019B05A85B000370029B06AC1B78F6
:1017600003214570257083706370FFF7D5FF270054
:101770000125A0700237AE420CD87200013223005E
:1017800001990398D2B2FFF71FFA002800D0C04693
:1017900017B0F0BD029B04AA5B5D01217B70D01CD9
:1017A000D370FFF7B9FF0135B870E3E7F0B5002457
:1017B0000F001600A9B005932EAB1B783C22210028
:1017C000049009A8039308940AF062FB3C222100CC
:1017D00019A818940AF05CFB04ABDC72039B18ADEB
:1017E0005B00320039000498DBB20095FFF706FA7F
:1017F000A0421ED107A8467001267F00077037431C
:1018000087702F780421C770FFF786FF6C78241A41
:10181000631E9C4104AB1F743700039BB3420AD87C
:101820001A00631E9C41059808A90AF041FB60421A
:10183000C0B229B0F0BD1021AB7804AA521893555C
:1018400004AAD3720B239B1818003900FFF764FF1A
:10185000EB7801361B1A5A1E93410235E418DCE777
:10186000F0B58BB005910493437804001700022073
:10187000002B31D12278A67808AC2F4903922000A2
:10188000062207AD2B800AF013FB059B0120238065
:10189000A770FFF71BFA049B022B1FD0042B32D03A
:1018A00003200700012B17D1009023003E223100B6
:1018B0000398FFF73FFF00280ED139002000FFF703
:1018C0001FFF052328706B70033B009360222B00E1
:1018D00031000398FFF72EFF0BB0F0BD3F0AE77011
:1018E000042723003E22310003980097FFF722FFD0
:1018F0000028F1D139002000FFF702FF06232870ED
:101900006B70049BE1E73B0AE3703B0C23710623F9
:101910003F0E67713E220093310023000398FFF7CA
:1019200009FF0028D8D106212000FFF7E9FE08238F
:1019300028706B70063BC8E7C2BE00001FB50A00E6
:10194000417803000220002908D11C78997803AB64
:101950001A8000903E222000FFF7ECFE04B010BD7C
:10196000F0B58FB01D0014AB059204CB04001B78BA
:101970000E000993431E9841C0B20892FFF7AEF9DA
:1019800063780227002B41D10BAA1380A2780D9314
:10199000039222780CAC2380F3B20693330A0793A8
:1019A00008AB04929E82012D40D0BD425BD001372E
:1019B000002D2BD102263E220399049800960DABF0
:1019C000FFF7B8FE071E21D1FFF784F905900BAC95
:1019D00023003E22039904980096FFF7E7FE0500D6
:1019E0000700FFF777F9059BC01A05280ED8237862
:1019F000FF2B02D16278FF2AE9D0069A9A4208D1D9
:101A00006378079A934204D1002D05D038000FB0B7
:101A1000F0BDC0460127F9E7099B402200930399D6
:101A2000089B0498FFF7C2FE0700EFE70325059A1D
:101A300008AB9A7503993E22049800950DABFFF709
:101A400079FE071EE2D129000DA8FFF759FE0523F4
:101A50006370033B20700093230060220399049875
:101A6000FFF768FEE0E70426059A08ABDA820399DF
:101A70003E22049800960DABFFF75CFE071EC5D111
:101A800031000DA8FFF73CFE06232070637000951F
:101A9000E2E7F0B587B01E000CAB029204CB040065
:101AA0001F78431E9841C0B20D000392FFF716F94C
:101AB00063780220002B09D1029A05ABA178207827
:101AC0001A80002E04D0012E08D0032007B0F0BDEC
:101AD0002A00039B0097FFF769FEF7E72A000097AB
:101AE000FFF728FEF2E770B51D1C14000E0009F088
:101AF00063FA291C08F078FD08F0C8FB051C2000DB
:101B000009F05AFA291CFEF74FFE00280CD13000CC
:101B100009F052FA291CFEF75BFE3400002803D1BD
:101B2000281C09F029FA0400200070BD0300F0B55C
:101B300030331E7804008FB0012E00D1AFE0022EAA
:101B400000D1C8E00220002E00D0FEE0C822804B69
:101B5000D2010993B02394461B050A937D4B7E4D19
:101B60000B9309AB0C951A8204AA83CB83C26346FC
:101B700093806423156007250F270193593B039336
:101B80000095F233029323000A2231331A7004AB1A
:101B90001A88200002237149FFF762FE00287CD1D9
:101BA00001232000029A6E49FFF75AFE002874D1E3
:101BB000012320001A006B49FFF752FE00286CD168
:101BC0000200012320006849FFF74AFE002864D183
:101BD0000123320020006549FFF742FE00285CD156
:101BE0000123320020006249FFF73AFE002854D159
:101BF00001232000039A5F49FFF732FE00284CD1F1
:101C000001232000009A5C49FFF72AFE002844D1F6
:101C10000200012320005949FFF722FE00283CD191
:101C20000123072220005649FFF71AFE002834D16D
:101C300093210123072220000902FFF711FE00284B
:101C40002BD101232A0020004E49FFF709FE00286E
:101C500023D101233A0020004B49FFF701FE002861
:101C60001BD10123062220004849FFF7F9FD002877
:101C700013D1A388102B66D849D102000E3B200057
:101C80004349FFF7EDFD002807D101232000019A09
:101C90004049FFF7E5FD002857D00FB0F0BDA02068
:101CA0003D4B3E4D09933E4B0C950A93294BC0008A
:101CB0000B9304AA09AB1882C2CBC2C205231560DC
:101CC0009080019302332A27009300233D00039361
:101CD0000226ED3356E7A022D20094462E4B1E4D2D
:101CE0000993304B0C950A932F4B0B9309AB1A8237
:101CF00004AA83CB83C2634693800523156007251E
:101D00000193063300930F270395E2333AE703204C
:101D1000072BC2D91022DBB2591ED31A00221000A1
:101D2000C9B2DBB206000125002E09D152190130DB
:101D300092B28342F6DC8A40D243022392B29EE7FB
:101D40006D00013EF0E70320A7E7C046A5E7C046C7
:101D50001004FD0107000707070F0600349200007A
:101D6000369200003792000038920000FA9200008C
:101D7000FB920000FC920000FD920000FE92000029
:101D8000FF92000001930000029300000393000003
:101D900004930000079300001004ED012A2A0600B6
:101DA00000020200000202070B00070730B5050021
:101DB00089B00D22002168460AF06AF82B00303302
:101DC0001B78012B00D19BE0022B00D198E0022070
:101DD000002B00D091E04B4B04934B4B04A905938F
:101DE0004A4B0D220693752368460B730AF060F880
:101DF0006B4628001A8846490223FFF731FD002868
:101E000000D07BE06B469B7804AC208023702800D8
:101E1000012322883F49FFF723FD00286ED16B463E
:101E2000DB78208023702800012322883A49FFF7BD
:101E300017FD002862D16B461B7920802370280093
:101E4000012322883549FFF70BFD002856D16B4648
:101E50005B79208023702800012322883049FFF716
:101E6000FFFC00284AD16B469B7920802370280014
:101E7000012322882B49FFF7F3FC00283ED16B4653
:101E8000DB79208023702800012322882649FFF770
:101E9000E7FC002832D16B461B7A20802370280093
:101EA000012322882149FFF7DBFC002826D16B465D
:101EB0005B7A208023702800012322881C49FFF7C9
:101EC000CFFC00281AD16B469B7A20802370280013
:101ED000012322881749FFF7C3FC00280ED10B21EC
:101EE00002226944200009F0E3FF0223280022882F
:101EF0001149FFF7B5FC002800D1C04609B030BD3C
:101F00000E4B69E70000FCF700989100E4A2003056
:101F10005F920000619200006292000063920000F4
:101F200065920000669200006792000069920000CE
:101F30006A9200006B920000739200000000BCF7F0
:101F4000030070B530331B780400012B07D0022B3F
:101F500002D00220002B33D101252D2201E00025E3
:101F60000D22012320001749FFF77AFC002828D111
:101F700001232A0020001449FFF772FC002820D119
:101F80000200022320001149FFF76AFC002818D143
:101F90000200022320000E49FFF762FC002810D146
:101FA00001230A2220000B49FFF75AFC002808D120
:101FB0000123192220000849FFF752FC002800D114
:101FC000C04670BD08930000099300000A9300000A
:101FD0000C9300000E9300000F930000030013B554
:101FE00030331B780400012B0CD0022B58D0022078
:101FF000002B53D12E4B01AA13806A461380012374
:10200000012105E02B4A01A90A8069460A800021C6
:10201000294AC9020A431B031A436B4627491B88F6
:1020200020000B401A436B4625491A80022392B2C6
:10203000FFF716FC002832D1FA22022320002149A2
:102040005200FFF70DFC002829D1FA2202232000BC
:102050001D495200FFF704FC002820D1012305226E
:1020600020001A49FFF7FCFB002818D10123102299
:1020700020001749FFF7F4FB002810D104232000AB
:10208000626B1449FFF7ECFB002808D10200012322
:1020900020001149FFF7E4FB002800D1C04616BD1F
:1020A0000E4B01AA13806A4613800023A8E7C0469E
:1020B00090DAFFFF90D2FFFF90C2FFFF6F25000074
:1020C0006D92000010930000129300001493000022
:1020D00043930000A89100004492000090CAFFFFC3
:1020E0000300F7B530331D780400012D09D0022D0F
:1020F00007D00220002D68D13C234626344F01939F
:1021000003E05026CE25334F0196012308222000FC
:102110003149FFF7A5FB002858D101232A002000F0
:102120002E49FFF79DFB002850D101232000019A82
:102130002B49FFF795FB002848D1012332002000EE
:102140002849FFF78DFB002840D1012314222000ED
:102150002549FFF785FB002838D1012308222000FC
:102160002249FFF77DFB002830D102233A002000EE
:102170001F49FFF775FB002828D1012328222000E2
:102180001C49FFF76DFB002820D1012314222000F9
:102190001949FFF765FB002818D102233A002000F7
:1021A0001649FFF75DFB002810D1012328222000EB
:1021B0001349FFF755FB002808D101231422200002
:1021C0001049FFF74DFB002800D1C046FEBDC046B8
:1021D0003C0F000088130000359300003693000088
:1021E0003793000038930000399300003A930000C1
:1021F0003B9300003D9300003E9300003F9300009E
:102200004193000042930000F0B50B7F04000D00E5
:102210008DB0002B19D1E54B3C220B80E44B4B8059
:10222000E44B8B80E44BCB800F230B8169334B81D4
:10223000373B8B81CA810A320A824B82533A4C3B2C
:102240008A82CB820A834B83C0462888502214217D
:10225000DA4B80B2FFF747FC6F88AB8802009BB275
:102260000093EB8806009BB201932B8920009BB260
:1022700002936B89D2499BB20393AB89BFB21BB265
:102280000493EB891BB205932B8A1BB206936B8ACE
:102290001BB20793AB8A1BB20893EB8A1BB209935C
:1022A0002B8B1BB20A936B8BFF251BB20B932A401F
:1022B0000123FFF7D5FA002800D062E204232000B2
:1022C000C04AC149FFF7CCFA002800D059E2502299
:1022D0001421BA4B3800FFF706FC821B01232000B3
:1022E000BA49D2B2FFF7BCFA002800D049E26E2208
:1022F0001421B24B0098FFF7F6FB02000600012301
:102300002000B3492A40FFF7ABFA002800D038E29A
:10231000F22204232000AF499200FFF7A1FA00281F
:1023200000D02EE26E221421A44B0198FFF7DBFBB4
:10233000321A01232000A849D2B2FFF791FA0028EF
:1023400000D01EE2029809F0A1FC0022A34B09F084
:1023500099F909F05FFC80233E220221DB05FFF79B
:10236000C2FB0200012320009D492A40FFF778FAB2
:10237000002800D005E20423592220009949FFF7E4
:102380006FFA002800D0FCE10200022320009649E9
:10239000FFF766FA002800D0F3E1039809F076FC15
:1023A00000228E4B09F06EF909F034FC8023642280
:1023B0000221DB05FFF797FB0200012320008B4978
:1023C0002A40FFF74DFA002800D0DAE10423012269
:1023D00020008749FFF744FA002800D0D1E1042308
:1023E0000B2220008349FFF73BFA002800D0C8E108
:1023F0000423772220008049FFF732FA002800D01A
:10240000BFE101230B2220007C49FFF729FA0028B5
:1024100000D0B6E1012320001A007949FFF720FA25
:10242000002800D0ADE1012320001A007549FFF714
:1024300017FA002800D0A4E102232000724A734951
:10244000FFF70EFA002800D09BE1012302222000B2
:102450006F49FFF705FA002800D092E1020002233D
:1024600020006C49FFF7FCF9002800D089E1FE2329
:10247000282178229B0549420498FFF734FB012369
:1024800042B265492000FFF7EBF9002800D078E15F
:102490000123042220006149FFF7E2F9002800D05F
:1024A0006FE1FE23282178229B0549420598FFF71A
:1024B0001AFB012342B25A492000FFF7D1F9002844
:1024C00000D05EE1FE23282178229B054942069830
:1024D000FFF709FB012342B252492000FFF7C0F980
:1024E000002800D04DE10123042220004E49FFF7CF
:1024F000B7F9002800D044E1FE23282178229B056B
:1025000049420798FFF7EFFA012342B247492000FA
:10251000FFF7A6F9002800D033E101236E22200046
:102520004349FFF79DF9002800D02AE10123032247
:1025300020004049FFF794F9002800D021E1012351
:10254000692220003C49FFF78BF9002800D018E1F0
:102550000123552220003949FFF782F9002800D0D5
:102560000FE10123022220003549FFF779F9002805
:1025700000D006E10123502220003249FFF770F914
:10258000002800D0FDE0FE23282178229B05494247
:102590000898FFF7A8FA012342B22B492000FFF761
:1025A0005FF9002800D0ECE050E0C0468C0A000043
:1025B000D70A0000CC1000008110000066664A4275
:1025C0007592000055070000769200007B92000093
:1025D00078920000799200007C9200000000E03FB9
:1025E0008092000081920000889200008292000098
:1025F0008392000084920000859200008692000081
:102600008792000094920000D8DCFFFF8A920000BD
:102610008C9200008D9200009A9200009B92000024
:102620009C9200009D9200009E9200009F920000EC
:10263000A0920000A1920000A2920000A3920000CC
:10264000A4920000A5920000A6920000012304229B
:1026500020004D49FFF704F9002800D091E0FE2347
:10266000282178229B0549420998FFF73CFA01236B
:1026700042B246492000FFF7F3F8002800D080E07E
:10268000FE23282178229B0549420A98FFF72BFA5E
:10269000012342B23E492000FFF7E2F8002870D142
:1026A0000123042220003B49FFF7DAF8002868D113
:1026B000FE23282178229B0549420B98FFF713FA45
:1026C000012342B234492000FFF7CAF8002858D14C
:1026D00014220123200031495242FFF7C1F800289B
:1026E0004FD10123022220002D49FFF7B9F800281D
:1026F00047D10F22012320002A495242FFF7B0F8A8
:1027000000283ED10123022220002749FFF7A8F824
:10271000002836D102233C2220002449FFF7A0F8EC
:1027200000282ED10200012320002149FFF798F84C
:10273000002826D10223012220001E49FFF790F82D
:1027400000281ED10223012220001B49FFF788F830
:10275000002816D10223FA2220001849FFF780F83A
:1027600000280ED1E122022320001549D200FFF7F4
:1027700077F8002805D1022320001A001149FFF73D
:102780006FF80DB0F0BDC046A7920000A8920000FF
:10279000A9920000AA920000AB920000AC92000047
:1027A000AD920000AE920000AF920000B292000025
:1027B000B4920000B5920000B6920000BA920000F8
:1027C000BC920000BE920000030010B52C331B78B1
:1027D00004000220002B4ED11E23E25E2649030096
:1027E0002000FFF73DF8002845D11C23E25E2000C1
:1027F00002232249FFF734F800283CD11A23E25E75
:10280000200002231E49FFF72BF8002833D118239C
:10281000E25E200002231B49FFF722F800282AD19C
:102820001623E25E200002231749FFF719F800285B
:1028300021D12623E25E200002231449FFF710F87D
:10284000002818D12423E25E200002231049FFF75C
:1028500007F800280FD12223E25E200002230D4951
:10286000FEF7FEFF002806D12023E25E20000223AF
:102870000949FEF7F5FF10BDEA910000EC91000058
:10288000EE910000F0910000F2910000F491000040
:10289000F6910000F8910000FA9100000022022356
:1028A00030B585B003AD2A800C00019312211300CE
:1028B0000095FFF7EEF8002801D12B88238005B0A2
:1028C00030BD7FB51300002203AD0E002A80012B1E
:1028D00011D0022B15D00224934209D11A00622193
:1028E00001940095FFF7D5F8041E01D12B883380A1
:1028F000200004B070BD02236421019300951300F1
:10290000F0E70193662113000095EBE730B587B03F
:1029100003AD2980002105AB1980023104008A43F0
:102920000620002A0AD12A881030684402800191CA
:102930000093200001236031FFF7ABF807B030BDF2
:1029400030B50F250022012385B06D442A700C009C
:1029500001937F2113000095FFF79BF8002801D118
:102960002B78237005B030BD30B50223150000224E
:1029700085B003AC2280019300941300FFF789F81F
:10298000002804D16278237812029B182B8005B0AE
:1029900030BD0000F0B500242C4D87B002AB039190
:1029A000070016002100202228009C8109F070FAFF
:1029B000039B162B18D03A2B32D00620142B2DD186
:1029C0002023220001937521230038000095FEF793
:1029D000C7FF002822D16A7D2B7D12021A433B00DB
:1029E00031331B7812B211E02023220001937521AC
:1029F000230038000095FEF7B3FF00280ED1EB7DD1
:102A0000AA7D1B02313713433A781BB2534333601C
:102A10003133622B01D800233360002007B0F0BDB2
:102A20000223019305AB0093220023003800039991
:102A3000FFF72FF80028F1D102AB5B7B02AA127BD3
:102A40001B02D21831373B7812B2DFE7F0060020C4
:102A500010B589B2FEF772FF10BD07B501930023D0
:102A6000009289B21A00FEF77BFF0EBD30B50F242D
:102A7000002585B06C442570012B04D0022B02D0B8
:102A8000062005B030BD89B201930094FEF768FFBF
:102A9000F7E7000073B56A460023104DD0700600BA
:102AA00028001380937013710C0006F025F8031EA4
:102AB00002D00120404276BD22003100280006F0FD
:102AC000B5F80028F5D114226243054B2100D21835
:102AD000280006F085F8431E9841EBE714C100007A
:102AE0002407002003685B0700D5C04603681B0766
:102AF00000D5C04603685B0600D5C04603681B06C8
:102B000000D5C0460368DB0500D5C04603689B05B9
:102B100000D5C04603685B0500D5C0460368DB04EA
:102B200000D5C04603689B0400D5C04603685B041B
:102B300000D5C04603681B0400D5C0460368DB030C
:102B400000D5C04603689B0300D5C04603685B03FD
:102B500000D5C04603681B0300D5C04603689B022E
:102B600000D5C04670470000F0B5002689B00C00C3
:102B7000150004900796B1420BD001294BD06B464B
:102B8000187C02F0E5FE079007A8FFF7ABFF09B03D
:102B9000F0BD2A4F2A4A3B6811685B1A012B00D00E
:102BA000C0463B68274E1360274A29001368274810
:102BB0000133136014236B4302939B191A00039390
:102BC00006F00EF8039B0590596880231B0199427B
:102BD00005D3802300249B059942644101341423CA
:102BE0005D43029A75190832B2182B7C00200092BE
:102BF000220000F097FC2B7A6A7A1B0612049B18BD
:102C0000AA7A12029B18EA7A9B183B60059B002B5C
:102C1000B5D0C046B3E70E4A13680133136006F01F
:102C200085FA0C4B1B68C01A0B4B18600B4B5E559A
:102C30000B4B1A689042A2D91860A0E71C0700202D
:102C400014070020240700201807002014C10000EA
:102C500020070020FC070020F8070020EC070020D8
:102C6000F407002007B50122054B1A7002F070FE30
:102C70000190C04601A8FFF735FFC04607BDC0461A
:102C80001007002070B5184D2B68002B02D00120D2
:102C9000404270BD154E1649300005F073FE041E0B
:102CA000F5D102001349300005F0F6FF70682200EC
:102CB0001149C0B202F05AFE013402210B202C60EF
:102CC00004F0C0FA02210A2004F0BCFA0921200015
:102CD000FFF7E0FE0028DAD10821FFF7DBFE00282D
:102CE000D5D1C046D5E7C046F007002014C100008A
:102CF000E0C00000692B0000652C000070B50A4D93
:102D00002B68012B02D00120404270BD074805F01E
:102D1000A3FE041EF7D102222100054809F0B8F8ED
:102D200020002C60F1E7C046F007002014C100002D
:102D3000EC070020F0B514000D008DB007AE142292
:102D400000210390300009F0A3F8039B2200290022
:102D500009A87360347409F0ABF8032302933A4B6B
:102D60001D78002D03D05A78002A3CD1012501217D
:102D70005955002380211800039C09018C425841B9
:102D800005AA138093701371304BD070290018007E
:102D9000019305F079FE32002900019805F0E6FE66
:102DA00006F0C4F92A4F38602900019805F056FF53
:102DB000041E15D12749284807F00EF906F0B6F988
:102DC000264B0100180007F007F92100244807F0FE
:102DD00003F9244807F000F9C04620000DB0F0BD0B
:102DE000012829D1C046029B013BDBB20293002B94
:102DF000B5D11D4C2378012B07D100F047FC0028EA
:102E000001D100F03FFC00232370C0461149124855
:102E100007F0E2F806F08AF9104B0100180007F0FD
:102E2000DBF801211148494207F0D6F80D4807F0B8
:102E3000D3F801204042D1E706F078F93B68C01A88
:102E40000128B1D9CEE7C046EC07002014C100002C
:102E5000FC070020CCC00000C8BE0000D5BE0000AA
:102E6000C0C00000ECBE000010070020C6C000007B
:102E7000074B10B51C68002C07D101222020054902
:102E80001A6005F0B7FC200010BD01204042FBE7AE
:102E900000080020D0FEFF1F10B5D2B205F0C7FC1D
:102EA00010BD10B50C0005F0CBFC0123E04018402C
:102EB00010BD0000284B70B55A68284D8A4227D1B2
:102EC0001B78834224D101220321254805F0A2FC6E
:102ED00001220321234805F0A1FC002203212148FF
:102EE000FFF7DAFF00242B789C4205D30322110060
:102EF0001B4805F08FFC70BD01220321194805F025
:102F000096FC00220321174805F091FC0134EAE702
:102F100001220221144805F07DFC01220221134800
:102F200005F07CFC002202211048FFF7B5FF0024C9
:102F30002B789C4203D3052202210B48D9E70122BA
:102F400002210A4805F073FC00220221074805F01F
:102F50006EFC0134ECE7C04640080020C0FDFF1FB6
:102F60000090044000F00F4000C00440C0F00F404B
:102F700013B50B4C2368002B01D0002016BD094A65
:102F8000094901AB09481A804B6105F0BFFE0028D2
:102F900002D001204042F1E701232360EDE7C04663
:102FA0000808002006070000B0FEFF1FC8FEFF1F34
:102FB00010B5084C2368012B01D0002010BD064835
:102FC00005F05EFF002801D12060F6E701204042B5
:102FD000F4E7C04608080020C8FEFF1F10B5094CE2
:102FE0002368002B01D0002010BD0749074805F0D9
:102FF0008DFE002802D101232360F4E70120404226
:10300000F2E7C0460C08002098FEFF1F4008002091
:1030100010B5084C2368012B01D0002010BD0648D4
:1030200005F02EFF002801D12060F6E70120404284
:10303000F4E7C0460C080020400800200F4B73B591
:103040005A680C00C5B291420DD11E78AE420AD129
:10305000FFF7DEFF002803D121003000FFF72AFF31
:10306000FFF7BCFF76BDFFF7A3FF002803D12100C7
:103070002800FFF71FFFFFF77BFFF3E74008002062
:10308000F0B5160087B000930CAB1B88029003913B
:103090000022310002A80193032405F021FF01233F
:1030A000019A009902A805F0ABFE0023144D059388
:1030B000288006F03BF82B880700002B10D00399DE
:1030C0000298013CFFF7BAFFE4B20022310002A8E7
:1030D00005F006FF002CE2D10120404207B0F0BD10
:1030E00005A902A805F018FF2880022804D106F0DF
:1030F0001DF8C01B6328F3D928880028DFD1EDE72D
:1031000004080020F0B517260024012789B01D000F
:1031100004900591039206F009F802ABF61834709A
:10312000AC4202D3012040420AE001343300039A4A
:10313000049805990097E4B2FFF7A2FF0028EFD1A9
:1031400009B0F0BDF0B58DB0039312AB1B880192AE
:10315000049314AB1B88069007910022019906A8DE
:103160000593032705F0BCFE0AAC06AD23002A0038
:1031700003CA03C30A21039B49190B80049A002345
:10318000200005F03DFE214B18800023099305F037
:10319000CDFF0600200009A905F0BEFE1B4B1880DC
:1031A000022804D105F0C2FF801B6328F2D9012355
:1031B000059A1399200005F043FE144B1880002354
:1031C000099305F0B3FF0290200009A905F0A4FEC1
:1031D0000E4E3080022805D105F0A8FF029BC01AD0
:1031E0006328F1D9308800280ED069680698013F1D
:1031F000FFF724FFFFB200222800019905F070FEBE
:10320000002FB2D1012040420DB0F0BD04080020D3
:1032100070B50F4D2E68002E01D0002070BD012129
:103220001A2004F00FF80B490B4805F0B1FE0123FA
:10323000040032000321094804F020FE0443A4B234
:10324000002C02D101232B60E7E701204042E5E793
:1032500014080020D00100204808002000C00240CF
:10326000F0B5042585B0019002910392154F039BA0
:10327000029A0199380005F0D3FE134C208005F026
:1032800055FF23880600002B07D0013DEDB2002D2D
:10329000ECD10120404205B0F0BD380005F0E0FE61
:1032A000208005F043FF801B632806D8380005F016
:1032B000D7FE20800028F4D1C04620880028E4D121
:1032C000E9E7C046480800201008002010B500209B
:1032D00000F0ACF80338431E9841C0B210BD10B5E1
:1032E000002000F01FF810BD7FB500260400150077
:1032F000012001910396042A0AD801A903A808F025
:10330000D7FD044B3000E11803AA2B0000F052F85F
:1033100004B070BD00C0FFFF10B5002000F00CF835
:1033200010BD0000034B185C0138431E9841C0B229
:103330007047C04618080020F0B5134F0601202141
:10334000F059C1B006F0C7FE00240500BB19DB68C8
:1033500000219C4205D3080001E0C046012041B095
:10336000F0BDFC2201A8009108F092FD8022694680
:103370002002520006F0E0FE05436DB2002DECD1B4
:103380000134E4B2E2E7C0461C080020084B00010B
:103390001B1810B55C6802208C4208D89B688B42D1
:1033A00005D352180133934280414042400010BD82
:1033B0001C080020F0B506000C000021C3B00192EB
:1033C00003A8FC221D00029108F062FD3000FFF707
:1033D000A9FF03000120002B07D12A0021003000A3
:1033E000FFF7D4FF002802D0C04643B0F0BDFF274E
:1033F00026008022BE43520002A9300006F010FFD2
:103400003C4002ABE0182A00019908F051FD8121EF
:10341000300006F060FE80223000520002A906F063
:103420008BFE431E9841C0B2DFE70000F0B585B0C7
:10343000002802D0042005B0F0BD354D354B0122E7
:10344000AB601023EB6002AB190018802860686045
:1034500006F0E6FE012202AB04009918A86806F007
:10346000DFFE044364B2002CE4D102AB1B78AA2B2C
:103470000FD102AB5B78552B0BD10122264B1A7072
:103480002B689A18254903205B1821494A608B60F4
:10349000D1E70020FFF750FF061ECBD10125204BBE
:1034A00003AA1B4F13801C4B396801931D702B001E
:1034B000FFF780FF02AA04002B003000B968053234
:1034C000FFF778FF019B0443E4B21E70002CB1D1DA
:1034D00002AB19002A0038681C8006F0A1FE02AB7E
:1034E00004002A00B868591906F09AFE044364B231
:1034F000002C9FD102AB1B78AA2B9BD102AB5B782F
:10350000552B97D1019B1D703B685A19BAE7C046ED
:103510001C080020FF0F000018080020FE0F00000C
:10352000AA55000070B511480C0011491E00049DF9
:1035300006F052FD05F0FAFD0E4B0100180006F0F2
:103540004BFD21000C4806F047FD0C4806F044FDF9
:10355000102C0AD12B78242B07D1EB79232B04D103
:1035600032002900064808F0A3FC70BDC8BE000068
:1035700027C10000D5BE000021C10000ECBE000044
:10358000340B002010B500230121044A044800F048
:103590006BFF0021080000F073FF10BD3C08002005
:1035A000C4FDFF1F10B5FFF7EDFF012005F0B0FDD2
:1035B000002010BD10B505F0ABFD10BD10B505F035
:1035C000B5FD10BD10B5FFF753FC10BD10B5FFF7EA
:1035D00063FC10BD10B5FFF764FC10BD10B5FFF71C
:1035E000C7FC10BD10B5034C02000B0003CCFFF765
:1035F00089FD10BDC8FEFF1F13B5044C00920B00DF
:10360000020003CCFFF73CFD16BDC046C8FEFF1FFD
:103610001FB502930123054C0192009302000B0099
:1036200003CCFFF78FFD04B010BDC046C8FEFF1FDE
:1036300010B5FFF7D3FC10BD10B5034C02000B0012
:1036400003CCFFF75FFD10BD4008002013B5044C0C
:1036500000920B00020003CCFFF712FD16BDC0461E
:10366000400800201FB502930123054C01920093EE
:1036700002000B0003CCFFF765FD04B010BDC0468F
:103680004008002010B5FFF7FDFA10BD10B5FFF798
:1036900035FB10BD10B5FFF74DFB10BD10B5FFF7A2
:1036A000B7FD10BD10B5FFF7DBFD10BD1249134A81
:1036B00070B5521A124808F0FBFB1249124A13481F
:1036C000521A08F0F5FB124A12480021121A08F0AB
:1036D000DFFB1149114A1248521A08F0E9FB114C5C
:1036E0001149124D8C4205D0114A200092089200D7
:1036F00008F0DEFB2C6070BD2CC40000D0C80000B8
:10370000C0FDFF1FD0C80000D0C800006402002028
:10371000500D002060050020D0C8000078C90000CE
:1037200000FCFF1F00FDFF1F0000000008ED00E08F
:10373000C0000000044B054A5A605A68044A1A60E7
:10374000044A9A607047C0460020054020C528D929
:1037500020210000FFFF000003480449044B4258A9
:1037600092B213434350704700E000E00C0D00009C
:103770000400FA05064B02205B69DBB2042B06D07D
:103780000130802B03D01800012B00D0042070479B
:1037900000E00740054B5A68802310005B04184086
:1037A0001A4201D0024B18687047C046FC400640E0
:1037B000540800208022094B92009958802208006A
:1037C00052041040114208D0822292009A580123DC
:1037D000100018401A4200D00148704700400640CF
:1037E00000127A00C022074B9200995880220800EC
:1037F00052041040114203D0C22292009B5802484A
:103800007047C04600400640006CDC0270B5144CA6
:10381000050023691B011B0F022B12D0032B13D0B1
:103820000020012B01D1FFF7B5FF0F262169090CFC
:1038300031400131FCF730FE012D08D0022D0DD0B2
:1038400070BDFFF7B7FFF0E7FFF7CCFFEDE72169A9
:10385000090931400131FCF71FFEF1E72169F8E762
:103860000040064010B501291ED0052807D00628C3
:1038700014D0FFF79FFF81230200184904E0FFF7EF
:10388000B1FFC123020015499B00C8580723184007
:10389000002802D00138C240100010BDFFF77AFFA7
:1038A0000F4B02009868F1E7052807D006280FD0D3
:1038B000FFF780FF81230200084904E0FFF792FF31
:1038C000C123020005499B00CB585B05580FDFE779
:1038D000FFF760FF024B02009B68F6E700400640DE
:1038E000FC4006400C4A13691B079B0F022B07D0B4
:1038F000032B0DD00020002B09D1FA20400206E056
:103900001269100018401A4201D0FA20C001704715
:1039100002231269F5E7C046008004400C4B0020EA
:103920001B6A10B51B011B0F032B07D81800FCF7EF
:103930009FFD0206090C0220FFF768FF10BDFFF78C
:1039400029FFFBE7FFF736FFF8E7FFF74BFFF5E747
:10395000004006400F4A10B513699B069B0F022BCF
:1039600011D0032B12D0012B04D000210620FFF729
:1039700079FF07E012690223100018401A4201D0B3
:10398000FA20C00110BD044B1868FBE70021052098
:10399000EDE7C046008004405808002010B51E4CDA
:1039A000802362681B01100018401A4216D060681C
:1039B0000006000F0E282CD8FCF75AFD112B142BF3
:1039C000192B1C1F2B23082B252B2800FA20400223
:1039D00061684905490F0131FCF75EFD10BDFFF735
:1039E0009DFFF5E701210620FFF73CFFF0E70121ED
:1039F0000420F9E701210520F6E70020FFF706FF84
:103A0000E6E70120FAE7FFF76DFFE1E7FFF7A2FF26
:103A1000DEE70020DCE7C04600800440154B400094
:103A2000C35A154A9B0070B59B1801260F221C68CB
:103A30001D682409002034401540A54214D31A689B
:103A4000920F324210D01B685B015B0F022B0CD02F
:103A5000032B0CD0B34202D10630FFF703FF691CE1
:103A6000FCF71AFD0134604370BD0420F5E7052022
:103A7000F3E7C0462EC2000000500640F0B5060035
:103A800085B000290AD16B4619732F4B6A46009303
:103A90002E4B694601930223FF3313812C4B0124E3
:103AA0005A680220520E1700274022420BD15A6852
:103AB0002848294D02405A608022D2045A602F6063
:103AC000002E02D1002005B0F0BDE02007264A7A82
:103AD000C00012020240087A3040024330209A604F
:103AE000CA790136120102408879C0003040024391
:103AF0004879043E800030400243DA600A79012AA6
:103B000012D0022A16D0002A03D10A7BD205144310
:103B10005C600B68114C2B60FFF73CFE00280FD156
:103B2000002C0BD10330CEE7087B0D4AC0050243C1
:103B30005A60EEE7087B0B4AC005F8E7013CEBE76B
:103B4000002CBFD10320BEE700127A000001000262
:103B5000FC400640FFFF7FFF5408002088E730004C
:103B60000100010001000300F7B5060000290BD198
:103B700080236A465B009380022391716946FF337C
:103B80001380013BFF3B937080221F4B92009D5896
:103B900001246D0E2F0002202740254207D198589E
:103BA0001A4D284098509F50002E01D10020FEBD94
:103BB000E02007258A78C000120202404878284099
:103BC0000243812080001A500A78043022401A50A3
:103BD00048798A790979002900D003248021D20507
:103BE000800002432243642489005A50FFF7E2FD1B
:103BF000002805D1002C01D10330D8E7013CF5E7BE
:103C0000002CD3D10320D2E700400640FFFF7FFF06
:103C100037B50400002908D16A4601239171537118
:103C20008022694652000A808B70C0221E4B92008F
:103C30009D580220AD0109D498581C4D2840985039
:103C40008020C0049850002C01D100203EBDE0200F
:103C500007248A78C00012020240487820400243BC
:103C6000C12080001A5003200A780240C220800040
:103C70001A5048798A790921002800D00839D205DC
:103C80000A43C021142489005A50FFF7ABFD0028D5
:103C900005D1002C01D10330D8E7013CF5E7002C19
:103CA000D3D10320D2E7C04600400640FFFF7FFF8C
:103CB000F0B585B001930AAB1C78019B07005E1C30
:103CC00013000133734302934B1C73430D000092A6
:103CD0000393022C3ED0032C3FD0012C06D00128A8
:103CE00056D00020022F10D0002049E0FFF752FDEF
:103CF0000009012F34D0022FF6D10C2262432F4B42
:103D0000D3581B095E43B04239D80C2262432B4B77
:103D100002999B185A681209514381422FD39B681C
:103D2000039A1B095A43824229D3F02324061B0518
:103D30001C400F23FF221D40009B2C431B011340FE
:103D4000F0221C43019B12031B0413401C431C4B19
:103D50009C61C9E7FFF72EFDCAE7FFF743FDC7E700
:103D60000C216143174BCA5812097243904206D87E
:103D70005B185A68029912095143884202D90120FE
:103D800005B0F0BD9B68039A1B095A439042F6D8D0
:103D9000F02324061B051C400F23FF222B401C434D
:103DA000009B1B011340F0221C43019B12031B04C8
:103DB00013401C43024B5C6196E7C04640C10000C3
:103DC0000040064094C1000037B50400FFF7D2FC64
:103DD000E578A378627821780095FFF769FF0028DD
:103DE0000FD10A220F25E178064C2369013A1B0EF8
:103DF0002B408B4203D0002AF7D1032001E0002A98
:103E0000FBD03EBD00400640F0B50700A7B000283B
:103E100023D0CE4E3C0033691B011B0F032B0FD068
:103E2000FFF7E0FC011E04D10120FFF7F1FE051EA3
:103E300010D1C74B07A80793FFF7C6FF051E09D18E
:103E4000FB78210018000393FFF78EFE051E4ED06D
:103E5000FFF790FC280027B0F0BD8024012208ABBA
:103E6000640009949C83BB4C14AD0C94BA4C2A702A
:103E70000D9412AC22700AACE777C024240310948E
:103E8000B64C04AD1594B64C02211694B54CFF31D6
:103E90009C87B54C9A812494162423943D3464194C
:103EA0002270B24C9A731A941BAC22707B24641952
:103EB00022701CAC1992227021AA11807622AC4883
:103EC000521913971D971E971F97089019811983F0
:103ED00099842090118022AA17807A225219177093
:103EE00025AA11808622521917701F0091E7390008
:103EF0007B7F103118000493FFF7C0FD3C000500E4
:103F00000590FFF737FC3634012803D0043402282B
:103F100000D00024059B002B9CD1E378032B00D01C
:103F200001E1049B002B00D0EFE0039B0125002B57
:103F300000D18FE78F4B07A80793FFF745FF0500D8
:103F4000002D00D086E7B87BF91DFFF761FE051E46
:103F500000D07FE7032307A8C370A378837063783A
:103F6000437023780370FFF72FFF051E00D071E721
:103F70003B0030331B78002B02D07F4BFA6A1A606B
:103F80003B0035331B78002B0BD0326A7B4BF02182
:103F90001A403B0034331B7809051B060B401343C2
:103FA00033623B0043331B78002B00D0F4E03B6FBF
:103FB000002B00D017E13B0044331A78002A12D0BE
:103FC000FF246F486F4A416811405A78D2020A4371
:103FD000997809012140E0241143DA78E4001202C3
:103FE00022400A4342601A79002A13D03F210C2450
:103FF000634802698A43197A1143DA7952000A4305
:1040000099798900214011435A79243412012240C0
:104010000A4302611A7F002A26D00121584A106CF7
:104020008843597F014311640221106C8843997FB2
:104030004900014311640421106C8843D97F890031
:10404000014311640821106C884339004531C97F50
:10405000C900014311641021106C884339004631B6
:10406000C97F0901014311641B7B002B06D0464B1D
:104070007A6D1A60BA6D5A60FA6D9A603B004733E8
:10408000DB7F002B23D000203D4A8024936E906676
:1040900051683E4B640119403B004933DB7F1B03F1
:1040A00023400B4353603B0090664833DB7F8342E1
:1040B0000DD03B000E214A33DB7F5B000B40390003
:1040C0004B31C97F0B43802149050B439366380070
:1040D00074300378002B00D1BCE67F212C4A447851
:1040E00093780B407E396140C9010B43DBB293707A
:1040F0000223C356002B01DA20335BB21F20117953
:10410000034081430B431371A4E6224B07A8079396
:10411000FFF75AFE039B0500002B00D110E7012892
:1041200000D00DE706E707A8C370A3788370637813
:10413000437023780370FFF747FE051E00D089E621
:10414000B87BF91DFFF764FD0FE7C046004006404D
:104150000301000300127A000001000203010101C3
:104160000003030001020000EC0100200100000137
:10417000010101010100000258080020FFFFFFF0CB
:10418000008004400FF0FFFF5C080020FFEFFFFFFE
:1041900000D007400101000138003B003A0039001F
:1041A000393000783833373236311B781278097855
:1041B00000900120FFF77CFD002812D138003B0061
:1041C0003A0039003D3000783C333B323A311B78BD
:1041D0001278097800900220FFF76AFD002800D1CC
:1041E000E5E6050036E605211026FA6E4A439A18E0
:1041F0009446114A03929C4500D1DCE61A78039953
:104200005200515A0D4A890089180A680C48E02466
:1042100002400F200A601A79E404024058788007AF
:1042200002439878000620400243D8780533000105
:10423000304002430A60DEE72EC200000050064014
:10424000FFFFFFBFF8B506000D00112835D80F2875
:1042500000D9ABE0FCF70CF9080D0F55111417AAA3
:104260001A1D2025272A2C2F0020FFF7CFFA002423
:104270003EE00120F9E70220F7E7FFF79BFAF6E7B7
:10428000FFF7B0FAF3E7FFF785FAF0E76E4B18682F
:10429000EDE7FFF743FBEAE700210420FFF7E2FA2E
:1042A000E5E70121F9E700210520F7E70121FBE718
:1042B00000210620F2E70121FBE7212800D978E060
:1042C00015380C2800D971E0FCF7D2F807171B1E2F
:1042D000212B3D4F596165696D005C4BDB689B018B
:1042E00000209B0F0400032B02D0594A9B009858D2
:1042F000002D00D028602000F8BD544BDB681B0166
:10430000EEE7FFF74BFBB2E7FFF724FBAFE7002038
:10431000504B04009B78DB09012BE9D0FFF7E2FA50
:10432000E6E700204B4B04009B78DB09012BDFD034
:10433000464B1A6901231000184004001A42D7D0D6
:10434000FA20800093E70020424B04009B78DB09B1
:10435000012BCDD03D4B1A690223100018401A42A0
:1043600000D184E7FA20C00181E70020394B040026
:104370009B78DB09012BBBD0FA204002B8E7334B16
:104380001B6C1B0901249C4300202402B0E72F4B27
:104390001B6CDB08F6E72D4B1B6C9B08F2E72B4BE5
:1043A0001B6C5B08EEE7294B1B6CEBE70020042439
:1043B0009EE7042443289ED80020222E98D0320065
:1043C000323AD2B2112A04D8234BD340DB0700D5AE
:1043D0008EE7224B7200D35A214A9B009B585B0008
:1043E00003D480240020640082E71E4B9F5D2023BD
:1043F000380018401F4218D00120FFF707FA0028A4
:10440000EFD01823380018401F4200D12FE71024A6
:104410003C403F0710D4002CE3D001213000FFF7CF
:10442000FDFA44424441240262E77B06E5D47BB2B4
:10443000002BE6DA0220E0E700213000FFF7EEFA79
:10444000002CEED0E9E7C046580800200080044068
:104450005C08002000D00740290102002EC20000A5
:1044600000500640E8C1000010B5044C20602171E6
:104470000020A2602373637310BDC046680800204B
:10448000F0B585B003AE009001913070717002F00C
:10449000D1FE2E4D00242B7B6B730123B3702B7B3D
:1044A000A34214D8009A2B689200D058FFF7ACFCB6
:1044B000009B071E6B7121D102230400B3702B7B7C
:1044C000A3422AD802F0AAFE380005B0F0BDAB68BE
:1044D000A200D358002B02D10134E4B2DFE71A79ED
:1044E000022AF9D030001A68996890470028F3D062
:1044F000019B6C73002BEFD10427FF370023A4002E
:10450000B370AB681B59002B03D030001A68996850
:104510009047043C231DF4D1D4E7AB68A200D358E4
:10452000002B02D10134E4B2C9E71A79012AF9D08B
:1045300030001A68996890470028F3D0019B6C738B
:10454000002BEFD182277F00BCE7C046680800201F
:1045500010B5FFF777FE10BD10B50A00002107F077
:1045600097FC10BD10B5054C83002068C018036887
:104570005960036800209A6010BDC046780800208A
:10458000094B82001B6810B5D35803221040074A1C
:104590001077D077002B06D05A68002A03D0197BF9
:1045A0009868C9B2904710BD78080020008000408C
:1045B00070B5032405000D4E044000222100300098
:1045C00000F0D0FA0A4BAD001B68EB58002B0BD063
:1045D00001223477F477B4771A735A68002A03D02B
:1045E000197B9868C9B2904770BDC04600800040F2
:1045F00078080020F0B501248BB0099310AB1B782C
:10460000089205932300059A0690934004936B4605
:1046100007911198197CFBF7C5FF20000D1E5CD196
:104620000323069A334F1A4011003800039200F01A
:104630009FFA8021039B09025C012F4BE619E218C7
:10464000138838009B049B0C0B43138080223B682B
:10465000039993433B608023089A5B01F250274BF8
:10466000099AE3181A60059B2A00019300932B0016
:1046700000F0B6FA079B032B17D81800204AFBF767
:10468000F7FE020B2E346B461B7CB5525BB29BB21D
:104690001C4AA218138008E06B461B7C5BB29BB2DD
:1046A000B3520022174BE3181A80119A039911484C
:1046B00000F0AEFA01220F48039900F029FB0E4BDF
:1046C0000020E418022322889A43134323800E4BD0
:1046D0001A68069B9B009B5818730BB0F0BD6B4685
:1046E0001B7C5BB29BB2B352D2E7064BB552E318C8
:1046F0001D80DAE7008000401C90004010900040D0
:1047000004100000149000407808002073B50400E5
:1047100009AD06A800782E78079D0090019520002D
:10472000FFF768FF051E0FD103231C402100089AE4
:10473000064800F0EDFA0822054B6401E4182388CE
:10474000F60093431E432680280076BD008000407B
:104750001C900040032110B501400122024800F0E6
:1047600001FA002010BDC04600800040032110B5B2
:1047700001400022024800F0F5F9002010BDC046BB
:104780000080004070B57F253F260B4B31401C5CFC
:1047900092012C401C541C5CB4430C431C54402418
:1047A000195CA1431143C9B2195480211A5C2A40F3
:1047B0000A431A54002070BD001002400323184021
:1047C000024B400189B2C0188180704700900040C0
:1047D00003231840024B4001C01801607047C046D7
:1047E0000C90004003231840024B400189B2C018CE
:1047F0000180704714900040032110B50140024829
:1048000000F0B0FA10BDC04600800040032308222B
:104810001840044B4001C0180388C90093430B4360
:10482000038070471C90004070B504000D00002804
:1048300035D0002933D020212800FFF78DFE072135
:10484000637A227E0B40E021D2021343227AC90010
:1048500012020A40FF211343627ED2000A40134332
:104860002200EB80236828322B606389AB80E369E8
:10487000AB602369EB6063682B61A389AB82E36A59
:104880001968631C89B2E982DB7F002B08D0636A58
:10489000AB611023127852001343AB83E98370BDE0
:1048A0006069A86112785200F6E70000F0B50326AF
:1048B00006400C0085B03100504800F059F98022C4
:1048C0004E4B7501EF184E4B1202EB1803931B88E9
:1048D0004A489B049B0C1343039A1380802322684D
:1048E0005B01FA50474B6268EB181A60617A637E8D
:1048F000227E0191217A0091310000F071F96289E4
:10490000414BFA52414BA289EB181A80404B226965
:10491000EB181A60631CDA7F384F1023002A5CD032
:10492000039A3100128838009A431343039A138084
:10493000626A00F0B3F90222314BE9180B88934305
:1049400022002832127852001343E26A0B80002AB8
:104950004DD03B681B0608D52E4BE9180868137923
:1049600040004008DB0703430B603B681B0608D58B
:10497000284BE8180168284B194053799B070B43D3
:104980000360310092681D4800F066F9E269310069
:104990001A4800F03DF9E26A3100137B1748527B58
:1049A00000F084F9E26AF024154B2401ED18D37B62
:1049B00028881B022340194C917B20400343202070
:1049C0002B802B88490183430B43126831000B482D
:1049D0002B8000F09DF905B0F0BD039A12889A4330
:1049E000039B1A800E4B6269EB181A60A3E7310033
:1049F000E269024800F00CF9EDE7C0460080004093
:104A00001C900040109000400410000014900040E2
:104A10000C90004008900040FFFFFFBFFFF0FFFF39
:104A200018900040F0B50024012799B0039320AB03
:104A30001B7816000793434B82001B680690D358DF
:104A400003981C733B00B34001936B460291998815
:104A5000FBF7A8FD0CAD280005913021FFF77CFD88
:104A6000102108A8FFF778FD039B08AA139316AB43
:104A70001F70112317929B189480147394731F2234
:104A8000DF772700029B2E721F3393436E722C83B5
:104A9000203B1E9E1F9D109411940293079B9F42E2
:104AA00040D10598431E984180B248E02A7A337A73
:104AB00004929A4242D10399FBF7EEFC049B0890C2
:104AC000032B08D81800FBF7D3FC021D2126002376
:104AD0006381019BA381079B00215A1ED2B2FBB2C6
:104AE0009A4201D0029920311591002F15D10698D4
:104AF0000CA9FFF7DBFE029B0137203302930C3633
:104B00000C35CBE7019B63810023E3E76B4604226E
:104B10009B5E6381DEE70023FBE702990CA8FFF7A9
:104B200083FEE8E7059B002B08D133680CAC0C939F
:104B30002B68706863606B689842B7D0012019B029
:104B4000F0BDC04678080020034B80001B68C358A6
:104B5000187BC0B27047C0467808002000487047F4
:104B600000800040002A01D0C17670478176FCE7C2
:104B7000114B49014018C2180023136080225201D2
:104B800083500E4A83520E4A83520E4A8218136093
:104B90000D4A821813600D4A821813800C4A82183D
:104BA00013800C4A821813600B4A821813800B4A38
:104BB000801803807047C0460810000004100000F1
:104BC000061000000C10000010100000141000006F
:104BD00016100000181000001C1000001E1000002D
:104BE00070B5FF2604AC257805AC2478DB00334093
:104BF000F83E34401C43E023D202DB002D021D406E
:104C0000144380312C434901A4B24018C48070BDC4
:104C1000036810B549011B0617D50E4C43181B1924
:104C20001C68002C06DB1C68640003D49200920808
:104C30001A6010BD074B4118C9180B6892059B0AF2
:104C40009B02920D1A430A60F3E7024B4018C0180A
:104C50000260EEE708100000036810B51B0609D5D6
:104C60000B4C490143181B191C681B68002C02DB04
:104C70005B0000D410BD064B4018C01803680549FE
:104C800092020B4004490A401A430260F2E7C04610
:104C900008100000FF0300C000FCFF3F024B490169
:104CA0004018C018026070471810000049014018F1
:104CB000134930B545182C8812496404640C401817
:104CC000002B17D0104B52021C43A4B22C80018839
:104CD0004904490C0B43F0219BB2038049012B8806
:104CE0000A400A490B4013432B8003880B401A43A8
:104CF000028030BD2C8003885B045B0C0380F8E7E6
:104D00001E100000161000000080FFFFFFE1FFFFF3
:104D1000124B4901401810B5C418218813B2104A2B
:104D200009B28018228800290BDADB05520AD90D56
:104D300052020A43228003885B0A5B020B43038012
:104D400010BDD20B5B045B0CD2031A432280028895
:104D5000D20BD2031A430280F2E7C0461E100000B5
:104D600016100000084B49014018C3181B88074A59
:104D70001BB280180088002B02DAC005C00D7047F6
:104D80004004400CFBE7C0461E1000001610000057
:104D900010B50020FFF7F4FB10BD10B50120FFF7A0
:104DA000EFFB10BD10B50220FFF7EAFB10BD10B5F8
:104DB0000320FFF7E5FB10BD70B50020FFF7CEFE26
:104DC00000240126C56A354202D02000FFF7F0FB1F
:104DD0000134E4B26D08042CF5D170BDF0B5374B49
:104DE00087B005928200D458039027000491613760
:104DF0003E78012E16D16379032B13D1304D2B6BE6
:104E00005B0933420CD0280000F0D2FF20232D494B
:104E10002E630A682A6B1A42FBD1294800F0B6FFBC
:104E20000023637163790220002B20D1244D2B686D
:104E30009B0029D50126059B6671A371049B236005
:104E40003B78002B0ED132000621280000F05AFFDB
:104E500032000721280000F055FF3200052128000C
:104E600000F050FF3B780493012B02D0002007B0E4
:104E7000F0BD2500603514492878039AFFF772FBCE
:104E8000071E03D0002363710120F0E710230221E5
:104E900028780193009123680C4AFFF7ABFB061EAC
:104EA00001D06771F0E728780499FFF7AFFC287804
:104EB000FFF750FC0028D9D06671E5E77C08002098
:104EC000004002408C400240714F00008040024090
:104ED000F8B5254B8200D4580600270061373D788D
:104EE000002D28D12A000521204800F00BFF2A00C0
:104EF00006211E4800F006FF2A0007211B4800F08B
:104F000001FF002263792260032B0AD0256D6271B4
:104F1000954206D03B78012B03D1230008213000B5
:104F2000A847A379002B05D06379002B02D1201D5F
:104F300004F008F9F8BD6379032BE2D0230025685B
:104F400060331878FFF712FC2B689A0202D46A6863
:104F5000920C6A601B031B0F2B74AB681BBAAB600F
:104F6000EB681BBAEB60CCE77C08002000400240F5
:104F700070B5C4B201290BD10322074B8000C3587E
:104F80001D6D5A71002D03D0002220000831A84762
:104F90002000FFF79DFF70BD7C08002070B50C005D
:104FA000094B8000C558E400002208482E1900F083
:104FB000A9FEB379002B03D00434281904F0C2F8F9
:104FC0000023737170BDC0467C0800200040024081
:104FD0001F2803D801238340014A13637047C0464A
:104FE00000400240F0B58BB0039310AB150004CB2A
:104FF00080001B780E0005931A4B0492C4581A487F
:1050000000F032FD86422AD20227F300E4186379C9
:105010003800002B21D13000FFF7DAFF059B6771C4
:10502000A371E97A2B7806AA6868E1711371AB7AEB
:1050300090602889937390810C23002900D010334D
:1050400000250693049B310000930748039B0195BC
:1050500000F0C8FFA84200D065710BB0F0BDC020C1
:105060008000FAE77C080020004002401149124A03
:1050700070B58B58114C07262340F8248B500368D9
:10508000E4019B02234084688D5834402C43FF2563
:105090002343446864012C402343C468084D24051D
:1050A0002C402343E0240069E40200042040034331
:1050B0008B5070BD00400240040C0000188308C0F3
:1050C0000000F03F30B51F250F4A136DDB0FDB07E3
:1050D00013658168146D29402143F8240368A400F6
:1050E0009B061B0C0B434168490121400B43C168DF
:1050F000064C490521400B430169F820090440038F
:1051000001400B43136530BD004002400000E07FCA
:10511000104A1149536810B50B40072153600368CA
:1051200054680B40C16809060B432343E02481689F
:10513000E40209042140E0240B434168A403C904AC
:1051400021400B430169C0208905000401400B4345
:10515000536010BD00400240F8FF0000F7B5164E46
:105160000193164B8000C75830000C00150000F06A
:105170007BFC84421DD233689B0006D5736B1B01F8
:105180001B0F5B0007339C4213D9E600BE197379ED
:105190000220DFB2002B0BD10122019B2100064827
:1051A00072713560B37100F0ADFD002800D07771E9
:1051B000FEBDC0208000FBE7004002407C080020CC
:1051C00070B5114C0D002368DB0106D5002916D1FE
:1051D00023680E4A134023600BE0200000F0E8FD36
:1051E000002D07D12368094A13400748236000F0C7
:1051F000CDFD70BD802322685B021343F5E7802359
:1052000022685B021343E6E700400240FFFFFEFF17
:10521000F7B5394E140032681D0080230F001100CD
:105220005B04194001911A4209D07F223368134070
:10523000A34201D31F2C10D9C020800037E03000DA
:1052400000F0B6FD7F22336813409C4201D81F2C2A
:1052500003D9294800F09AFDEEE733689B000AD491
:10526000002F3FD1254BAD041D4088239B00E4183F
:10527000A400355117E01E22736BDB0D134007337A
:105280009C42EDD833689B05D3408822009392005E
:10529000013BA418022B0BD92A000021380000F092
:1052A000BBFBA4003051019B002B20D00020FEBD91
:1052B0006B462A001978380000F0AEFB009B012BEA
:1052C00005D0022B08D00123A4005B4202E0030CAE
:1052D0000343A4003351E6E7030E020C13430343D8
:1052E000000AF5E7012FDED1ED00ED08BDE7024829
:1052F00000F04CFDDAE7C046004002400000FC1F11
:10530000F0B55E4E89B033680C0015000190002B9B
:1053100005DB300000F04CFD300000F0C9FB8021BF
:105320006B7A89015B0372680B40554953480A4008
:105330001343736000F0A2FB504800F039FD4F4862
:1053400000F0C4FB2B7A002B02D0012009B0F0BD85
:10535000AB79022B04D0802233689202134333606E
:105360006B79002B5AD12B00343300931B78012B1F
:105370005BD133689B00E8D5802233681202134367
:105380003360E9793D4800F0F5FD29683B4800F0BD
:10539000D9FF0028DAD12B0032680C3303AE120596
:1053A00049D5320083CB83C203CB03C23000FFF761
:1053B00089FE2B003200203383CB83C203CB03C290
:1053C0003000FFF753FEA9792C4800F087FDAB7938
:1053D000032B02D0294800F0D9FC0A2001F006FF77
:1053E0000A2001F003FF0A2001F000FF0B2001F06A
:1053F000FDFE0B2001F0FAFE260000270021301DE3
:1054000003F0B1FEFB0000281ED004341D19A54294
:105410009BD0200003F0B1FE0834F8E72979174843
:1054200000F088FB00289ED090E7002BA9D13368BC
:10543000144A1340A4E7320083CB83C203CB03C2D8
:105440003000FFF765FEBEE7E3180137B07130604A
:10545000587108360A2FD1D12300009A613312788F
:1054600035351A702A78013B1A70019A064B920062
:1054700020656065A065E065D45067E700400240A4
:10548000FFDFFFFFFF7FFFFF7C08002070B51048A3
:1054900086B00D0014001E0000F058FD002813D146
:1054A000237802AA1371A37A616893730823916029
:1054B00021890293918133000190009029000448D2
:1054C00000F090FD06B070BDC0208000FAE7C04635
:1054D00000400240F7B505000D480C0016001F0003
:1054E00000F034FD002810D1089B01900093320099
:1054F0003B0021002800FFF775FD002804D10122A0
:105500002100034800F0FEFBFEBDC0208000FBE749
:10551000004002407FB51C480D0014001E0000F042
:1055200015FD00282CD16A46636828000293237871
:105530001371237A1373FFF74BFD0F236A46009311
:1055400029003300104800F031FE041E15D10090F0
:1055500033006A4629000C4800F028FE041E0CD1D6
:1055600004236A46009329003300074800F01EFE1A
:10557000041E02D12800FFF72BFD200004B070BDEF
:10558000C024A400F9E7C0460040024070B50B4CAF
:105590000D0023681600DB0103D5200000F0FAFAA5
:1055A00070BD200000F004FC20003200290000F053
:1055B000F1FA200000F0EAFBF2E7C04600400240AA
:1055C00070B5050007480C00160000F0BFFC031E74
:1055D00005D1320021002800FFF7C0FD70BDC020BA
:1055E0008000FBE70040024010B50022FFF7F6FB09
:1055F00010BD0000F7B5284B8600F5580193002D2B
:105600001AD0AB6D002B17D0802100222348C9018E
:1056100000F088FB802100222048C90000F082FBB6
:10562000802100221D48090100F07CFB802100221E
:105630001A48090200F076FB0A2001F0E3FD0A2077
:1056400001F0E0FD0A2001F0DDFD144C0B2001F01B
:10565000D9FD0B2001F0D6FD2368002B05DB2000CF
:1056600000F0A6FB200000F023FA002D04D1002456
:10567000019B9C512000FEBD00242F1D5435380095
:1056800003F07BFD002800D001240837BD42F6D18D
:10569000002CECD0EEE7C0467C0800200040024021
:1056A000064B8200D25810B5936D002B01D00A2111
:1056B0009847034800F0CAFB10BDC0467C08002094
:1056C00000400240F7B5154B154C8200D6582368B0
:1056D00001905B0420D5134D63599B030CD58023A7
:1056E00062599B0213436351336D1F1E04D0330074
:1056F000002205210198B8476359DB030CD58023AC
:1057000062595B0213436351346D002C04D03300A3
:10571000002206210198A047F7BDC0467C08002062
:1057200000400240080B0000F0B57C4B7C4D82002D
:10573000D658AA6A2B6B00241340012289B000902E
:105740001340002B67D02B689B0000D46FE0072C20
:1057500000D96CE0052C00D0A7E07379DAB2019291
:10576000012B14D131686E4800F078FB2023002211
:10577000376D2B637271974203D033000199009803
:10578000B8477379002B02D10098FFF7A1FBE7001F
:10579000F31901935B79022B28D1019BDB79002B54
:1057A0000ED021005E4800F067FD21005C4803AA8E
:1057B00000F067FDAB68039B1B011B0F042B02D19C
:1057C0002000FFF705FC0023019A5371336D1F1E63
:1057D00004D03300220004210098B847019B5B7974
:1057E000002B03D121000098FFF7D8FBAA6A2B6B8E
:1057F0001340E340DB070CD52B689B0000D471E01D
:10580000072C00D96EE07379002B02D12000FFF73E
:10581000DFFB09B0F0BDA96A2B6B01340B40E340FC
:1058200013400A2C00D08CE7002B5ED02B68E700D9
:10583000F31901935B79012BA9D12100384800F0BD
:105840001BFD019B21001A68354800F01AFD20005D
:10585000FFF7BEFB2B689B0042D5019B1B681B68B2
:105860001B011B0F3CD121002D4800F0A2FB2D4A4B
:1058700003681340036080230268DB041343036062
:105880000021019B5971336D1F008B4203D03300FF
:1058900022000098B847019B5B79002B00D076E787
:1058A00021000098FFF77AFB71E7062C0BD140230B
:1058B000376D2B63002F00D169E7330000220221EE
:1058C0000098B84763E7072C00D060E78023376D66
:1058D0002B63002F00D15AE7330000220321EFE7AA
:1058E000AB68CDE7019B5B798EE7009B002B0AD16B
:1058F0000D4BE958EB58490C1B0C0B43134202D0DB
:105900000098FFF7DFFE0221EA692B6A0B40134380
:1059100000D17EE70098FFF7C3FE7AE77C080020FD
:1059200000400240FFFFFFF0080B0000074A800024
:10593000CB0081580020C9184B79834204D04879A4
:105940000338431E984101307047C0467C08002050
:10595000014B186A7047C04600400240024B80006D
:10596000C35819655A6570477C080020224B800097
:10597000C358224870B5DA6502689965802315001E
:105980005B040C001D401A4201D100F011FA002CFA
:105990001DD0802101221948C90100F0C3F98021DE
:1059A00001221648C90000F0BDF9802101221348E8
:1059B000090100F0B7F9012280211048090200F026
:1059C000B1F9002D02D10D4800F0E0F970BD802141
:1059D00022000A48C90100F0A5F9802122000748E9
:1059E000C90000F09FF9802122000448090100F05D
:1059F00099F92200E0E7C0467C0800200040024000
:105A0000082806D90938C3B20020062B01D8014A5C
:105A1000D05C7047B8C200000300012912D00020FA
:105A2000022918D081420CD1900F8007002B03D19E
:105A30000B4BD2041A4003E0012B02D1D200920892
:105A400010437047900F8007002BF1D0012BF8D145
:105A5000044B1204EEE7012BF3D81006F1E7C04621
:105A60000000F83F0000FF3F034A0023904200D1AE
:105A70000A3318007047C046004002400368DB024A
:105A800010D50368084A5B005B0803600368134095
:105A900003600368054A1340036080231B05026806
:105AA0001A42FCD17047C046FFFFFFBFFFFFFFEF68
:105AB0000368002B09DB802302681B061343036085
:105AC00080235B0302681A42FCD07047802370B5C4
:105AD000040002689B041A430260226815001D40FE
:105AE0001A42FAD1802322685B011343236020000D
:105AF000FFF7BAFF2300020180339A18934212D1B4
:105B0000882300221B01E3188000181883420CD15F
:105B1000012300225B4223616361A361A2622363CC
:105B2000034B236270BD20C3E8E704C3EEE7C04621
:105B300006003B000268802370B516001B010400BC
:105B40000D0001201E401A4218D12000FFF78CFFE3
:105B5000802322689B051343F022236012052D0643
:105B6000636B1540094A80B213401D430123084A64
:105B70005B426563A364864201D3002070BD882325
:105B80009B00F3189B001A510136F4E7FFFFFFF06A
:105B9000FFFFFF1FF7B50400636B08001B011B0F1D
:105BA00003291ED8FAF764FC02215A9F2168514844
:105BB000802501402000013321609B014E4CE030E4
:105BC000D318ED05167857785168F607002F09D0DD
:105BD000C90089082E4389190832016004309342B4
:105BE000F0D1F7BDC9042140F5E72068414980267E
:105BF0000840802149000143802720000133DB0158
:105C0000D3182160E0300193F605FF011378147A70
:105C100055785168DB07E403002D16D0374D490055
:105C200029403343C9180160517AD368002910D044
:105C3000DB0001689B0C3C431B190B430360019B79
:105C4000103204309342E1D1CBE72B4DC9042940F7
:105C5000E8E72B4DDB0001682B40EDE72068254984
:105C6000FF25084080218900014321602000FF2496
:105C700001331B02E030D318240456785168002EFB
:105C800025D00668490D09063143567A0160D1686E
:105C9000002E1FD00668490921403143567C01601F
:105CA0005169002E19D00668490D0906090C3143C7
:105CB000567E0160D169002E12D00668490D294038
:105CC00031432032016004309A42D6D189E7066818
:105CD000C908D8E706684903DEE70668C908E4E7AB
:105CE0000668C908EBE7C02322689B0013432360C2
:105CF00077E7C046FFFCFFFF0000F83F0000FF3FD2
:105D0000F83F00001F2906D801238B40002A04D049
:105D1000826A1343836200207047826A9A438262D8
:105D2000F9E70000002A1AD08023DB00994208D14D
:105D3000802302689B031343036043680B43436063
:105D4000704780231B019942F2D08023DB019942E6
:105D5000F3D18023426B1B0613434363EDE7436893
:105D60008B4343608023DB01994203D1436B5B008B
:105D70005B084363C02342681B011A42E0D10368F9
:105D8000014A13400360DBE7FFFFDFFF0368064AB9
:105D9000134003600368054A1340036080235B04DB
:105DA00002681A42FCD17047FFFFFFEFFFFFFFBF01
:105DB00080230268DB0513430360802302685B05D0
:105DC000134303600368012230B5002B04DA036833
:105DD0009340D34000220360002383600568802441
:105DE000290024012140254222D180235B0404683C
:105DF0001C4201D1B32925D90368DB010BD48021D2
:105E0000856A0468036889040B43036003680B42D6
:105E1000FCD185620460002A09D1802302681B0638
:105E20001343036080235B0302681A42FCD030BD39
:105E300080240549640405682542DDD18B42DBD806
:105E40008368F8E78168D2E7D9020000026A024B52
:105E50001A4200D00362704706003B000300F0B511
:105E6000071D0400F86F85B000038833000F0D0094
:105E70000E000193FFF7C4FD2874FB6F08360090F5
:105E80002B6008349B0212D5E36F03226B60330052
:105E90001340164220D1009A9A421BD901999A08C0
:105EA00092008918096809BAB1500433F3E7E36F27
:105EB0009B0CEAE7019AA3089B00D3181B681BBA46
:105EC0000422301903A9039305F0F2FF0434009B68
:105ED000A342EFD805B0F0BD0024F8E7030010B5E9
:105EE0000800042907D8FAF7C3FA0D1A1E030700A1
:105EF0001800FFF75DFF10BD8022196812060A43E3
:105F00001A60F8E71A680E490A4008211A605A68B0
:105F10008A435A605A680B490A405A60EBE70822E4
:105F200059680A43F9E78022596852010A43082157
:105F30005A605A688A435A601A6803490A40DFE780
:105F4000FFFF7FFFFFEFFFFFFFFFFDFF0268030082
:105F50007F2002407E388A420BD31A6800209200CC
:105F600007D55B6B1B011B0F5B0007338B42404166
:105F7000C0B27047036810B51B0507D5C0221201D7
:105F80008358034C090423401943815010BDC04677
:105F9000FFFFFCFF02680823120508D5C0231B0180
:105FA000C35801209B039B0F033398400300D8B2D2
:105FB000704770B50E000400FFF7ECFF0830C5B263
:105FC000802029008000FAF767FAC1B23000FAF7A2
:105FD000E9FAAD086943C001091820318900601849
:105FE00070BD0000F0B585B001930AAB150004CB7D
:105FF00006001B78009202930F00FFF7DAFF7F2262
:1060000033680400134080229205BB423BD33368BF
:10601000134249D133681B0509D5AB7B002B06D051
:10602000C02280231201B1581B060B43B350AB684A
:10603000FF27DAB2402A02D8594A3B40D75C009B7E
:10604000002B33D10023236063602B79012B7CD19B
:1060500063685B0F5B076360019B6268DB00DB08C2
:106060001343C0226360D2032B680F2B00D193E04F
:10607000F0213F0409030F4017431C2B75D18022E8
:106080005203174374E0336813420AD0C0229200CF
:10609000736B1B011B0F5B0007339F4201D9002A62
:1060A000B8D0C020800078E00022F1E7F8B2FFF716
:1060B000A7FC260003900320009B009A08360340AB
:1060C000024238D1AA688243934225D29A089200AC
:1060D000B1188C4600998A5812BA614604330A6096
:1060E000F0E70099009A8C469C4461464978D25C5E
:1060F0000902114362469278120411436246D27833
:1061000012060A4399088900711812BA0A6004330A
:10611000AA6882439342E4D30321AA689A420CD826
:106120000321039B93428DD90B00687B5340F318E6
:1061300018700132F5E70023EAE70A0000985A4098
:10614000C05CB21810700133E7E7002B01D00022C9
:106150008AE76368134A144913406360019B6268CD
:106160009B040B4013436360F1E7029A002A86D137
:10617000F0221B06120513402A7B3B43002A02D063
:10618000802212061343AA7B002A02D08022D20565
:106190001343226813432360002005B0F0BDC046BE
:1061A000BFC20000FFFF03E00000FC1FF8B50500C0
:1061B00016001C000F00FFF7FCFE7F222B68134027
:1061C00080229205BB422BD32B68134239D1002386
:1061D000036043603379012B35D1802302689B0330
:1061E0001343036003681F4AE400134003604368DD
:1061F000E4085B0F5B07436043681C4344603368FB
:106200000F2B0BD0F0210368174A090513400360D8
:10621000336802681B060B40134303600020F8BD7F
:106220002B6813420AD0C02292006B6B1B011B0F1C
:106230005B0007339F4201D9002AC8D0C0208000EC
:10624000EDE70022F1E7002BD9D10368074AA40447
:10625000134003604368064A1340064A436043689C
:106260001440CAE7FFFFBFFFFFFFFFF0FFFF9FFFE4
:10627000FFFF03E00000FC1F10B5FFF79AFE036864
:1062800010BDF0B5150085B00400FFF792FE2B009D
:106290000700006808330003000F0193FFF7B0FB0D
:1062A00006002000FFF776FEB04203D22000FFF781
:1062B00071FE06002E743B682B609B0217D57B682D
:1062C0006B600323019C019A1C401A422CD13100BF
:1062D00099438C4221D2A3089B001A000832BA18B5
:1062E000126812BA01980434C250E4B2F1E77B6834
:1062F0009B0CE5E7A3089B000833FB181B681BBA3F
:10630000200008300422281803A9039305F0D0FDCB
:106310000434E4B2019B9C42ECD303222D190135D5
:10632000B44206D305B0F0BD32009A430024019276
:10633000F0E7130063400833FB181B780134EB715E
:10634000E4B2ECE7F8B50E000400FFF723FE751E7B
:10635000070029002000FFF72CFEA023C0199B0096
:10636000E318083083422AD32000FFF77DFBB042B8
:1063700025D37F2321681D4099432943216022684A
:10638000802315009B051D401A4212D00020F8BD45
:1063900029002000FFF70DFE0821002203004942DA
:1063A000026008334260081AC1188F4204D80135D0
:1063B000EDB2B542ECD3E9E71A700133F4E7C0203F
:1063C0008000E4E710B50020FFF7AEF910BD10B56E
:1063D000FFF7F8FF10BD0000F7B5104B8700FD5820
:1063E0000C000193002D16D1481C02F0A9FE0222D8
:1063F0000B4E1920B3681343B360B56000F0F6FE8E
:106400000122B3681343B360019B25706560A560EA
:10641000E5602561FC500020FEBDC04680080020DC
:1064200000A00540F0B501243E4E87B083000390E4
:106430009859019303783C4D05930B7A0F00029312
:106440006B680121DBB20493029B01309C404942FE
:1064500002F072FE029B049A013CE4B2934230D8EF
:106460000023059A14420CD0029A0133DBB2D218F1
:1064700004996400D2B2E4B28A42F2D9039B9B0031
:1064800020E07B72019BF05803781C4304700130BC
:1064900002F054FE019BF258131D143219680029B2
:1064A00017D11F6003223B7A787A01939446030048
:1064B000019A8218934210DB0020039B38607B60B6
:1064C00005E0019BF058013002F038FE012007B0D2
:1064D000F0BD04339A42E1D1E4E7072412499A005F
:1064E000561812495218D16FA1438024D1676146D2
:1064F000E40032598A43325101229A402E6AD1B2C5
:106500008E432E626E6A01338E436E62AE6ADBB2D8
:106510008E43AE622E6B8E432E632A616A61AA613E
:10652000C6E7C0468008002000A0054004A0054042
:1065300070B54568124EAD000300A8590100021D58
:10654000143114689C4216D10021116001241A7A7A
:10655000012194405B7A013CE4B29C404942013005
:1065600002F0EAFD70590378A3430370013002F092
:10657000E5FD002070BD04329142E2D1E6E7C0465D
:1065800080080020F7B50127134B196A1A695D6A64
:1065900011405A699E6A9B6900911E400F4B15403D
:1065A0001B681C1D14330193206800280FD002685B
:1065B000002A0CD03900037A99400B00417A013B44
:1065C0008B40009929433143194200D09047019BE9
:1065D00004349C42E8D1F7BD00A0054080080020AB
:1065E000F7B54268434B477A9200D458BB00E31892
:1065F0001A1DD16F06004048019301400720D16762
:10660000D16F8143D167791CC9B28A00A218151DC8
:10661000EB6F83438020EB67019BC0001D58032371
:106620009C469D43019B1D50634615589D43155044
:1066300001252B008D40BB4030216361FC32656138
:106640002561A36150681F0088438446202063466B
:106650001843019B5060FC335A688A4311435960C8
:1066600033002C33256101931B78002B1FD0022BA4
:106670002AD03300012232331A7002331B78002BE8
:1066800003D03000333002F05DFDB369002B0DD034
:10669000F38D002B0AD1330030331B78002B05D04B
:1066A000019B1B78022B01D0144BF385F7BD236AA5
:1066B0003D43EDB2AB432362636AFFB2AB43636217
:1066C000A36ABB43A362D4E7FF232900626A19408F
:1066D0008A436262A26A3B409A43A262707FFEF7DD
:1066E00045F8307FFEF742F83D43236BEDB2AB43F4
:1066F0002363BEE708C30000FFFFFCFF02020000A7
:1067000070B542682C4B0400457A9200407FD65801
:10671000FEF71AFA012802D10123E38541E0207F28
:10672000FEF712FA0128F7D071696B1CDBB2D94071
:106730000122114204D09A40802372619B00ECE751
:10674000B369EB40134212D0AA40638D013B9BB268
:106750006385B261022B0BD1A021AD007519C90070
:106760003E346A582378D2B21B0213436B5070BD7B
:10677000012B09D19021AD007519C9000F4B6A5842
:106780001A4080239B01F0E7002BF0D19021AD004F
:106790007619C9007258094802407250E28D022AE7
:1067A000BBD02000FFF71CFF236A002BDFD00420A2
:1067B000616A9847DBE7C04608C30000FF8FFFFF10
:1067C000724BF7B59C466246436804009B009A589A
:1067D000437A50690121D840084203D099406C485F
:1067E000E08551615569591CC9B2CD40012005426F
:1067F00014D01569DD4005420CD180239B00E38550
:106800002000FFF7EDFE236A002B6DD00420616AA3
:10681000984769E088405F4DE58550611069012522
:10682000C840284239D0A02089005118800008585B
:106830002600019020003136377830300578002F5F
:106840001DD101203070002D27D030259800101860
:10685000FC304668AE43103D35434560A0690128D1
:106860001BD19D005519FC356E682F3086430643B9
:106870006E60FC314D688543284348600DE0A66991
:10688000013EA661002D08D02569019E2E70256964
:106890000135256100780028E0D11169D940C90788
:1068A0000DD560466168890045586069617A0028A5
:1068B0001BD101219940106AC9B2884310629169C5
:1068C0000120D94001420FD021003231097800293E
:1068D0002CD090219B00D318C9005A582E48024052
:1068E0005A502000FFF77CFEF7BD01386061A031EF
:1068F000002809D12600353636788900002E01D1CE
:10690000FF2000064851D4E72000303000780028EE
:1069100004D0FF20890000064851D0E7E0688900D4
:10692000067801303606E0604E51C8E79840618D28
:10693000013989B26185906102290BD1A0209B00A9
:10694000D318C0003E3419582278C9B212020A4343
:106950001A50C9E7012909D190209B00D318C00023
:106960000D4A1958114080229201F0E70029BBD14D
:1069700090209B00D218C0001358074D2B40135095
:10698000E38D022B00D03BE7E18539E708C3000027
:106990000102000002020000FF8FFFFFF0B5B7B058
:1069A000099242680893A84B9200D558012203002F
:1069B0000591110036331B78040099400B0001004B
:1069C000373109788A401343EA68DBB21A409342B0
:1069D00000D0ECE1437A12260793059B00218361E6
:1069E0005A1C0223C385030056434261099832337F
:1069F000B71CD870FF37089819703F0A023B013660
:106A000018705970F0193900F9F746FDA022079B5C
:106A1000D2009B00EB189A589446421E12021100B5
:106A20006246D2B211438AB2A021C9005A507A1EDE
:106A30004243B61A22003E3267851670012F08D1F4
:106A40009020C0001958814A1140802292010A43C7
:106A50001A50072602221F1DF96FB1430A43FA6735
:106A6000079A0132D2B20A929200AA18101DC16F81
:106A7000B143063E3143C1678021C90058588C4656
:106A800003218843614630435850505803218843BE
:106A9000014360461150F96F6D4A11408022520245
:106AA0000A43FA6722002C321278B24226D0022A18
:106AB0002DD0002A1FD100F0BDFB2200238D3032E3
:106AC000B34012789B18627A3400A0321B06920001
:106AD0005351079B0A9A9C4096402B6A2643F6B274
:106AE00033432B6200F09AFB6B6AE4B233436B6270
:106AF000AB6A1C43AC62002037B0F0BD228D089910
:106B000052008A18A021120689005A50F3E7230088
:106B10001F225E3393430693089B002B00D08DE029
:106B2000E3681293059B079A13930123A032920006
:106B300005982700AA18033224AE249225903372B8
:106B400027920222099812A9013839370B7238703E
:106B500016932893159733750B75607F02920091F9
:106B6000002206990196FDF75DFF230030331B7864
:106B7000002B03D00021607FFDF720FE069BA66955
:106B80009A8B08231343069A938362682E4B9200D4
:106B9000D3580893237F0B933A239C46A44463461F
:106BA0000593637A0C930133DBB20E93A0339B0001
:106BB0000F930F9A089B9446634409932300303344
:106BC0001F780123002F45D1F61839000393019354
:106BD000099A059B0B9802960097FDF797FD3900DF
:106BE0000B98FDF7FFFD01273E00607FFDF7B2FD2A
:106BF000207FFDF7AFFD0A9B696A9E40FF233200AC
:106C00001A400A436A62079A9740AA6A3B401343B4
:106C1000AB6200F00FFB2200238D303212785B0054
:106C20009B18627A1B06A032920053512A6B3E4396
:106C3000F3B213432B6300F0F1FA5CE72300FF2269
:106C400038331A706DE7C04608C30000FF8FFFFF9E
:106C5000FFFFFCFF0020059F099A2497771E0D97E0
:106C60002769129212A924AA13932593087210720D
:106C700010970593012E3FD90C9B30279E00089B4F
:106C80009E19FC36736811962026BB4333431B368E
:106C9000B446A44466463370059B159616930C9B28
:106CA000089E40339B00F318059E08752896099EA0
:106CB000279318960D9E0493199611260EABF6187D
:106CC000F077109E10752A960D9E1DA92B965926B9
:106CD000F618F077119E7668BE433E4327003C3796
:106CE0003E70059E1B971C960870049B2E962D9354
:106CF0002FAB187004230593069B089A20330C933E
:106D00000E9B12A840339B009A5830231343220055
:106D10003D3213700C239C466146059B01264B4374
:106D20001A500022C1180A724E600F99089A8139D0
:106D3000FF395118002224AFD951FB181A7262464C
:106D40005E60059B9B195343099AC1181A50002293
:106D50000A720D9A4E609446002210996144D951EE
:106D6000FB181A725E60059B0090023302930C9927
:106D700033000B980197FDF755FE069B069A9B8FF3
:106D800033439387A369B34208D96032938B33436B
:106D90009383069B80339A8B16439E83059B0C9AA4
:106DA0005B01D3180822998B0A439A831BE7014899
:106DB000A2E6C04605020000F0B55D4B8BB0039023
:106DC0000D00185C09A91400FDF7C2FB0223210085
:106DD00003982372FFF726FB0490002800D086E07A
:106DE000AB78012B04D001002000333002F0BBF956
:106DF000AB78012701932300019A2C331A702B885A
:106E00000998238523002E7A36331E706B7A0593FA
:106E10002300059A37331A70EB68002223622B692E
:106E200069686362230034331A70023B1F70E28585
:106E30006268404B9200D35808180693637AB940B1
:106E40000293F9F7B3FB0238FF2853DDFF20029BC2
:106E5000069A9B009C46624413003221FC33596021
:106E6000029BC0270133D9B20791E021BF04C900BA
:106E700036021B063B400E401E438023171D334342
:106E8000FB67079B069F9B00FB181F002021FC3718
:106E9000796080273F043E431F1DFE67A026F60051
:106EA000905190206146244FC00017504F1CF02194
:106EB0000905080005993F0638400F02E021C90086
:106EC0003940C127014380203F04C0000F431750C1
:106ED0000F2284469A51194A80301A50184A0A43A0
:106EE00061465A50019B002B08D0022B09D0049810
:106EF0000BB0F0BD0028AADC3800A8E7114B2360D6
:106F0000F5E7687D039A60772B7D920023770E4B1F
:106F10009B18079A9E5C029A995C0022FDF732FC4E
:106F200000223100287DFDF72DFC084BE7E7C04625
:106F300004C3000008C30000220202011211200055
:106F40008000C000C167000000C3000001670000AE
:106F5000030010B532331B7804000220002B0BD045
:106F600023002C331B78012B03D02000333002F098
:106F700004F92000FFF7DCFA10BD0200323212786B
:106F800003000220002A01D000201985704770B547
:106F90000D0011001A00030032331B780400022098
:106FA000002B04D000232000E560FFF7F7FC70BD44
:106FB00070B50D0011001A00030032331B78040075
:106FC0000220002B04D0012320002561FFF7E6FCFE
:106FD00070BDF8B5070032373B7804000D008669B4
:106FE000002B18D103002C331B78012B04D0022B6B
:106FF0000CD0002904D107E0FFF7E2FB002D00D000
:107000002E603B78002B08D10220F8BD007FFDF7F1
:10701000F3FB0600F2E70029F2D1E08DF5E700006E
:10702000114B8000C15830B508684B6DC005C00FCA
:1070300040021B0602D580235B0018430B685B06E9
:1070400002D58023DB0018430723402401255A1C66
:10705000D2008A185268224202D02A009A40104375
:10706000013BF4D230BDC0460CC300008022154B5A
:107070008000C35892001868596F1040813AFF3A57
:1070800070B5114202D080214900084319681142AD
:1070900002D08022D2001043DA6E120602D580227E
:1070A00012011043002280250126541CE1005918CA
:1070B0004968294202D03100914008432200082C3F
:1070C000F3D170BD0CC30000F8B5294B8000C35844
:1070D0005A78012A01D0082A36D1264A14580422A7
:1070E0004800C9008A401100656EC0B2421C0D42C2
:1070F0002BD0D2B2C500D2006519A2182F6916692B
:10710000BFB2B6B2F11B8C4689B2B74202D35988DE
:10711000614489B2061D76009E19B1808026E96817
:10712000B143E960D168B143D160A2685A8082005E
:107130009A18D46B002C07D01B185C331B78002BDB
:1071400002D00020D169A047F8BDD100611849687C
:10715000090600D4D0B2C1006118021D0D695200A9
:107160009A1895808025CA68AA43CA60DDE7C046A0
:10717000840800200CC30000F8B50020FFF776FF5C
:1071800005000020FFF74CFF002406000127330014
:107190002B4018006200511CC840D34003433B42BF
:1071A00003D00020E1B2FFF78FFF0134042CEED1B1
:1071B000F8BDF8B50120FFF759FF05000120FFF7E2
:1071C0002FFF00240600012733002B401800620027
:1071D000511CC840D34003433B4203D03800E1B2C6
:1071E000FFF772FF0134042CEED1F8BD1F224309D2
:1071F00010401E3A824002499B005A507047C046D8
:1072000000E100E01F22430910401E3A824002497B
:1072100020339B005A50704700E100E0044A136895
:10722000002B04DD013B1360002B00D162B67047D8
:107230008C08002072B6024A13680133136070474D
:107240008C08002070B5FF2489012140002816DA3F
:107250000F220240100003231825083883429B4167
:107260000420D2002A409440914003400D481B184E
:107270001868A043186018680143196070BD18268B
:10728000094A83089B009B18C022C00030408440FC
:10729000814092009D58A5439D509C582143995090
:1072A000ECE7C0461CED00E000E100E030B50D7CED
:1072B00003000C00087885B0002D13D1114A5B0043
:1072C000995C2A00FDF75EFA617820780395E368FF
:1072D00000950293012301936368A268FDF716FAF3
:1072E00005B030BD00222C21FDF74CFA0023617857
:1072F00020780393E2680093029201220192A3682E
:107300006268EBE714C3000030B51A4B8200D55811
:1073100087B02A7F6B6801AC2270002B1ED001223F
:107320006270154A6260EA68A2600022227421003D
:10733000E360FFF7BBFF2478696820004942FDF74E
:1073400047FA2000FDF706FA6A680C4B002A0ED0B7
:1073500001211A6A0A431A6207B030BD6370084BF4
:1073600063602B69A36001232374AB68DFE702210C
:107370001A6AEFE79008002060610640FC60064052
:10738000706106400E4B0F49DA690A40DA61C27E2D
:10739000002A06D18268002A0FD002211A6A8A4385
:1073A0001A6201215A698A435A610023837003617A
:1073B0008360C3604360C375704701211A6AEEE7BA
:1073C000FC600640F8F0FFFF10B5C37E0400002B00
:1073D00002D1007FFDF7CAF9637D002B09D120009F
:1073E000FFF7D0FFA37E002B03D02000193001F05F
:1073F000A9FE236A002B02D00420616A984710BDC1
:1074000070B5C27A0E4C857AE36D616895420BD1F6
:107410000F2211400E3A07258A402B4092B2816913
:10742000002901D09A4200D870BD436901391E7805
:107430000133266681614361E36D2B40EFE7C0466F
:10744000006006400F2370B50A4CE56D66681E406B
:107450000E3BB34007269BB235409D4203D2090242
:107460008918216670BD837AC154C11801334A71ED
:107470008372F7E700600640F8B5431D048CDB7F9C
:1074800005000E00E7B2002B12D00623E4091C40D1
:107490002200103A0421D2B2FFF7D4FF0F3C3A0089
:1074A00000212800FFF7CEFFE2B2002E03D1F8BD85
:1074B0007F00CA19D2B204212800FFF7C3FFF6E704
:1074C0002D4B8200F0B5D55889B02B0001902833A0
:1074D0001F78AA6903A9294C0F70002A35D00F2301
:1074E000032660681840A36DB3439C460123834084
:1074F000934200D913006046013B33400343A36528
:10750000012300264B701E4B0E744B606B698B6021
:107510000198CA60FFF7CAFE01213800FDF776F92D
:107520001849019A3800FDF71DF83800FDF712F9E7
:1075300031002800FFF7A0FFAB69002B12D0012219
:10754000E3691343E36109B0F0BD0126A36D0E4862
:107550000340A3650D4B4A704B60EB682A698B6052
:107560000E74D5E72A690121013AD2B22800FFF74B
:1075700069FF0222E369E4E7940800200060064006
:107580006060064005760000FFFFFCFF706006406B
:10759000F8B51A4D1700AB69194A04001340AB61E6
:1075A00003000833DB7F0E00002B0BD103002833D0
:1075B0001878FDF7DBF82369002B1CD00222EB6959
:1075C0009343EB61002F08D080222B6952001343B4
:1075D0002B612B69921813432B61002E02D080235C
:1075E0009B002B6600236361A361E3602361033486
:1075F0000133E377F8BD0122EB69E1E70060064063
:10760000FCE3FFFF194B800070B5C4580D00A3695F
:10761000002B10D001290ED000230321A361144BAD
:107620009A6D8A439A650122D9699143D961996912
:107630000A439A6170BD231DD97F00222000FFF705
:10764000A7FFE31DDB7F002B03D02000253001F0D6
:1076500079FD012D07D1A583E36A002BEAD0042030
:10766000216B9847E6E70023A383F5E79408002001
:107670000060064070B5094C850028590026253069
:1076800001F07BFD0121064A2E51136918208B431E
:107690001361FFF7B7FD300070BDC04694080020AD
:1076A00000600640F0B5444B87B00193830002931D
:1076B0001600019B029A0391D35802200333DB7F0B
:1076C000002B76D001273D4C05A93B30FCF740FF4D
:1076D00023695F21BB432361002E2FD0059B71439B
:1076E000581E0093F8F7D8FEC0190025B84206D9F5
:1076F0000135072D03D03B00AB408342F8D3310066
:10770000A940009B4808C018F8F7C6FE06005F288D
:1077100017D8012817D9023E03213000F8F7BCFE24
:10772000021E00D10122301A032800D203201100CA
:107730005308052E0BD80023012107E00E00072572
:10774000E9E75F26E7E7002301210320022207275C
:10775000666ABE4335436562A66C194D3540002B01
:1077600000D101331B062B43A364A36C154D1204F7
:107770002B401A43A264A36C134A090213403F2210
:107780001943A164A36C104093431843029A019BD0
:10779000A0649A580D49636A00200B406362636AD3
:1077A0000B490B406362039B9377012223691343C8
:1077B000236107B0F0BDC046940800200060064079
:1077C000FFFFFFC0FFFFC0FFFFC0FFFFFFFFFFF88D
:1077D000FFFDFFFFF0B514000D000026012787B064
:1077E000019005A93D20FCF7B3FE019A214B9200C0
:1077F0000293D450E31CE66026616661A661A6830D
:10780000DF772B8803922384AA78631DDA772A7A9C
:107810000333DA776A7A20331A70EB682000E36268
:107820002B6931002363E31DDE776B682530A3638A
:10783000230034331E7001F096FC66810E4C182034
:10784000FFF7D4FC200000F0C9FA6A68E9780198D3
:10785000FFF728FF30000399029BAA78CB582988AC
:1078600019840533DA772369BB433B43236107B0AF
:10787000F0BDC0469408002000600640134BF7B5E9
:107880001E00002301250C00114F8200915101922E
:10789000CA1C4B618B61CB600B610090D5773800BF
:1078A0004B8100F09BFAA17FA26B0098FFF7FAFED4
:1078B000019B218C9B590534E27F19840533DA77CB
:1078C0003B69AB431D433D61F7BDC04694080020B2
:1078D00000600640034B8000C35819840533DA77F3
:1078E0007047C04694080020F8B5174C85002C5905
:1078F0000225E61CF77F002F14D0A261221D6161D2
:10790000D37700212300F1770833A583DB7F0F4D68
:107910008B4209D1E023AA695B011343AB61FFF7F6
:10792000CFFD00252800F8BD2000FFF7A5FD2000B1
:10793000FFF766FD0322AB6D9343AB65AA69044B69
:107940001343AB61EDE7C046940800200060064099
:10795000011C0000F8B51700244A8400A558022233
:10796000EC1CE67F002E15D000222F61E2772A1D45
:10797000D3770223AB832B00E9600833DB7F1C4EF7
:10798000002B09D1E023B2695B011343B361FFF718
:1079900097FD00221000F8BD01212800FCB2FFF77E
:1079A0006BFD621ED2B201212800FFF74BFD0122C0
:1079B00073681B051B0F9A40974200D394B2B36DB6
:1079C0000C4A013C1340C0222404920214401C4380
:1079D000B465AA7AEB7A9A4204D0B269064B134393
:1079E000B361D6E7B269054BF9E7C04694080020B9
:1079F00000600640FFFFFCFF031C0000021C0000AB
:107A00000F4B800010B5C05800290DD0030008337B
:107A1000DB7F012B08D18269002A08D00724094B9B
:107A2000DB6D23409B180B60808B80B210BD036917
:107A3000002BF8D0034AD26D5203520F9B1AF2E783
:107A40009408002000600640F8B5794B8200D458B5
:107A50000122784D06006B69134212D0A07AE37AB6
:107A6000834200D187E007210F27EB6D0B40696847
:107A700039408A4092B2E17A884200D178E09A4255
:107A800069D86B699B0714D5230034331B78072111
:107A9000002B00D19DE0E31DDB7F002B03D02000F5
:107AA000253001F04FFB032321003000A383FFF7B3
:107AB000E5FE6B690122DB0415D580235B016B6158
:107AC00000212000A283FFF763FDE31DDB7F002B75
:107AD00003D02000253001F035FBE36A002B02D0F3
:107AE0000420216B98476B691B0517D580231B0168
:107AF0006B61012200212000FFF74AFDE31DDB7FBF
:107B0000002B03D02000253001F01CFB4A4BA3833F
:107B1000E36A002B02D00420216B98476B695B0558
:107B200018D5E31DDB7F002B03D02000253001F0AA
:107B300009FB80239B00A383012200212000FFF783
:107B400027FDE36A002B02D00420216B9847802395
:107B5000DB006B61F8BD67187F79635CBC461B0274
:107B6000634401312B66E1720721EB6D0B4082E724
:107B70000023638185E76369002B1DD0A269002A79
:107B800016D1231DD97F2000FFF702FDE31DDB7F07
:107B9000002B03D02000253001F0D4FA0023A3836A
:107BA000E36A002B00D16CE70420216B984768E75B
:107BB0002000FFF725FC64E7AB699343AB6160E706
:107BC000E3682A6F1A70E3680133E3602369013BBD
:107BD0002361EA6D2369120C0A4219D0002BEFD100
:107BE000231DD97F00222000FFF7D2FCE31DDB7F9D
:107BF000002B03D02000253001F0A4FA0023A3833A
:107C0000E36A002B00D154E70420216B984750E72A
:107C1000002BE5D0AA6D9203920F9A4200D248E75A
:107C2000AA6D0649013B0A401B041343AB6540E7BC
:107C3000940800200060064003020000FFFFFCFFE4
:107C400070B55B4B5B4D8200D458AB6906000122D6
:107C50005B0716D5696D236A114200D172E0002BD3
:107C600005D0627D002A02D00220616A9847E37E37
:107C7000012B5CD1EA691343EB61002323760223D5
:107C800023800123AA691A4217D0EA691A4214D044
:107C9000237E002B01D0484B23806368002B05D145
:107CA000236A002B02D00120616A98476368002B89
:107CB00059D101332376FE336B66AB699B070BD535
:107CC000EB699B0708D5A068002859D1236A002BCF
:107CD00051D13A4B23806B6F0121AB69AA695B0AD2
:107CE000120A0B400A4255D1002B11D080230122E9
:107CF0009B00AB61013BFF3BAB61EB699343EB61E5
:107D00002388022B01D1002323802000FFF75CFB96
:107D1000AB6901225B0509D58023DB002280AB61C2
:107D2000EB6920009343EB61FFF74EFB70BD00222F
:107D300022769342A3D1637D9342A0D03000FFF717
:107D4000E3FA9CE7002B05D0627D002A02D00320D5
:107D5000616A9847E37E002B00D090E7637D002B9B
:107D600000D18CE7EAE7E268013B117801326966ED
:107D7000E2606360A1E7616A9847A368002BA8D01E
:107D800023696A6F1A70236901332361A368013B79
:107D9000A360A1E7E27D0132D2B2E275012AA5D14A
:107DA000A27D002AA2D080225200AA619CE7C04690
:107DB00090080020FC600640010200000202000062
:107DC000054B8200D35810B5002B02D1FFF73CFEC3
:107DD00010BDFFF735FFFBE7900800200223026982
:107DE0009A431A4302610200FC32516999430B43E2
:107DF0005361002303615361704710B50020FFF702
:107E0000DFFF10BD02230361002303617047426955
:107E10000121120E10B5140003000C4002200A428A
:107E200003D120001A698A431A6110BD0122436AF6
:107E300093430B43436200207047036952021A4385
:107E400009020A4302617047FC239B01994204D155
:107E50004369194341610020704701238B40426907
:107E600013434361F7E710B5012408318C408A4081
:107E7000436AA3431A434262002010BD30B5456AED
:107E8000064C9206254001246340DB061343090695
:107E90000B432B434362002030BDC046FFFFFFF081
:107EA000FF22036C11409343194301640020704783
:107EB000F0B58BB008930023012507000C00029356
:107EC00006930493444B07926D420993029B099ACF
:107ED0009B00D358059380235B00039300230193F9
:107EE000019B039A07989E18FF2376081E40059B66
:107EF000B11C5943F8F7D0FA2B1BA54200D2631BE3
:107F0000A0424DD2221A03969A4200D20500039B4A
:107F1000019A9B1A012BE3D8059B911C59430798A2
:107F2000F8F7BAFA0600039B0798991C059B59437A
:107F3000F8F7B2FA331BB44200D9A31B021B8442E8
:107F400000D9221A9A4202D20600039B01932B1BEE
:107F5000AC4200D9631BA64229D2A21B9A422FD958
:107F6000A54232D13A6C049B12029B081906120AF0
:107F70000A433A64396C194A380011401A040A431A
:107F80003A643A6C16491B020A4013433B64049955
:107F9000FFF786FF2800089B069A1A600BB0F0BD19
:107FA000021B934201D80196B1E70500FBE7321BA3
:107FB0009A42D5D8029B35000693019B0493CFE7E4
:107FC0003500029B0693019B0493029B01330293AD
:107FD000082B00D07AE7C5E718C30000FFFF00FFB9
:107FE000FF00FFFFCB680A68DB06013A13434A7CB7
:107FF000D20713430A7C92071343CA7A120613432B
:108000008A7AD20513434A7A920513430A7A5205B3
:108010001343CA79120513438A79D20413434A7968
:10802000920413430A79120413430366704710B590
:10803000002000F075FA10BDF0B58BB00991022157
:108040001F00674B05928200D4580126636908908F
:108050000691DB0160D463691B0E33425CD1614B36
:108060003800D5586988F8F79DFA8BB20693002B33
:1080700000D0B3E0320031002000FFF7DEFE320016
:1080800031002000FFF7D9FE2B79002B04D080238C
:10809000226E5B03134323660022FC21EB1DDA777B
:1080A00020008901FFF7D0FE8023A2691B01134342
:1080B000A361059B002B32D16B838023226E1B03AF
:1080C00013432366A36D484A1340A3650323A26D9F
:1080D0009A43013B1343A3656B1DDB7F012B28D122
:1080E000099B2B61059B6B610023AB83EB832B7991
:1080F0002F83002B03D02B8B01339BB22B830123C7
:108100002B73059B002B03D00223A2691343A361A9
:108110000123A2691343A36106980BB0F0BD80232D
:10812000A2695B011343A3616F83236E2F4A13403F
:10813000C7E76B880026012B03D0023B5A1E9341F0
:108140005E1C01210A00B2402B1DD87FF74023009E
:108150000792099A643303910297002A37D0079A4D
:1081600000960192099AFCF7D1FA059B002B17D0D3
:10817000EB1CD87F012322000393079B002101936E
:108180007432059B02970096FCF7C0FAEB1CD87F6F
:108190001749089AFCF7E6F9EB1CD87FFCF7DAFAE6
:1081A0002E1D1449089AF07FFCF7DCF9F07FFCF7EC
:1081B000D1FA01232B73059B002B03D00222E36924
:1081C0001343E3610122E3691343E361A4E7079AE0
:1081D000032101922A0000963032C4E706969BE7FD
:1081E0005C02002098080020FFFFFCFFFFFFF7FF64
:1081F00051840000098400001B4B820070B5D558E3
:108200001A4BD45800232B736B1DDB7F0222002BEB
:1082100021D1E3699343E361E369013A9343E36165
:1082200000F01EFAA369124A0A211340A36120003C
:10823000FFF70AFE6B79002B05D02800253000F0EF
:1082400081FF00236B71AB6A002B03D00021280053
:10825000EA6A984770BDA36993430122A361A369A9
:108260009343A361DCE7C046980800205C0200202D
:10827000FFFBFFFF364BF0B58000C558354B89B08A
:10828000C6580C0030000192FFF7C1FD071E03D055
:108290000127380009B0F0BD23892F491A00083A98
:1082A00092B28A42F4D8E2682B80AA60A27907339E
:1082B0002A71A17C6A1CD177E17C6A1D9BB2D177BF
:1082C000DB0828736871032B3AD0042B3AD89BB291
:1082D0006B80227DEB1CDA77627D2B1DDA77A36938
:1082E0003000AB62E369EB6262792179FFF7BBFD95
:1082F000E26802AB30002168FFF7DAFD0222736A00
:108300001343736201233269134333610028BFD0E2
:10831000019B002B00D018602B8803A90393002336
:108320000493A2794B720A72A37C30008B7223797A
:10833000CB72029BCB60238A0B82FFF753FEA8E728
:108340000423C5E7013B9B0801339B00C0E7C046FF
:10835000980800205C020020F80F0000F8B5194BC7
:1083600014008200D658184B07003000D1500D0081
:10837000FFF748FD01213000FFF758FD00220123DF
:1083800011003000FFF77AFD01217368AA1CDBB2EF
:1083900099403800D17721000022FFF76BFF041EBF
:1083A0000ED1286328002100253000F0DCFE074BA9
:1083B0000400D857FEF71AFF0122336913433361D3
:1083C0002000F8BD5C020020980800205A0200201E
:1083D00010B5002B02D0FFF72FFE0300180010BDD0
:1083E000084B10B58200D458FFF706FF0122200089
:1083F0001100FFF722FD012220001100FFF71DFDF3
:10840000002010BD5C0200200E4B820070B5D458D5
:108410000D4B0D00D358012904D10734FFF7E0FFBD
:10842000E57770BD2279002A03D01A6E07490A4009
:108430001A6600222283628380229969D2000A434D
:108440009A61EEE7980800205C020020FFFFEFFF32
:1084500070B50C00012906D1034B8200D558FFF7F7
:10846000BFFF0735EC7770BD980800202A4B8200CB
:1084700070B5D458294B0600D5586B691B050CD52F
:108480002369002B09D0FFF7ABFF0B212800FFF772
:10849000DBFC01230734E37770BD6B69DB040CD58B
:1084A0006369002B09D03000FFF79AFF0C212800E8
:1084B000FFF7CAFC07340223EDE76B699B0705D57C
:1084C000638B3000002B21D000F08EF86B69DB0746
:1084D00005D5238B002B02D0300000F035F8238B1C
:1084E000002BD9D10122AB699343AB618023A969E9
:1084F000DB000B43AB61638B002BCDD16B699B0A17
:108500001342C9D03000FFF777FEC5E7FFF768FFD9
:108510000222E31DDA77D9E7980800205C020020E8
:1085200010B5002809D1074B1B685A6A01231100B6
:1085300019401A4202D0FFF799FF10BD080000F061
:10854000E1F8FAE75C020020F7B50721234B800031
:10855000C458234BC758A31CFA6DDB7F0A409B1AF3
:10856000DBB20193019B002B0BD02379002B09D0A8
:10857000238B012B06D13B6E1A4A13403B66002326
:108580002383F7BD6188A28B23698A1A042A04DD3C
:1085900004251E1E17D040CB0EE0A58B1E004D1BE0
:1085A000ADB2002B0FD0012904D00229F3D11E88CF
:1085B000023301E01E780133A08B23614019F8F7E4
:1085C000DBF889B2A1837E66238B5B1B9BB223837E
:1085D000238B002BD5D0019B013BC1E798080020DD
:1085E0005C020020FFFFEFFFF8B51B4B8000C45872
:1085F0001A4BC758FD6D6D036D0F002D00D1F8BDEE
:108600000426796F6388E28B9A1AB24202DCE28B0D
:108610009B1A9EB200239AB2964210D8E08B6188D2
:108620008019F8F7A9F889B2E183638B9B1B9BB291
:108630006383638B002BE2D0013DEDB2DDE762691D
:10864000D80094460A00C240100062461070626969
:10865000013301326261DEE7980800205C020020ED
:108660000A4B800010B5C458094AA3690B21134076
:10867000A361A369074A20001340A361FFF7E4FB4D
:108680000C212000FFF7E0FB10BDC0465C0200207B
:10869000FFF7FFFFFFEFFFFF184B820070B5D458C4
:1086A000174BD5586B1DDA7F012A1ED1A36993435E
:1086B000A361A36901329343A361FFF7D1FF0026B1
:1086C0000122200011002E73FFF7B7FB01222000CA
:1086D0001100FFF7B2FB6B79B34204D028002530BC
:1086E00000F030FD6E71002070BD0222E3699343FB
:1086F000E361E369013A9343E361DEE75C02002052
:10870000980800202F4B820070B5D5582E4B0600DC
:10871000D4586B691B0508D52369002B05D0FFF7DA
:10872000BBFF01230734E37770BD6B69DB0408D519
:108730006369002B05D03000FFF7AEFF073402233A
:10874000F1E76B699B0705D5638B002B02D03000E6
:10875000FFF74AFF6B69DB0705D5238B002B02D09F
:108760003000FFF7F1FE238B002B03D10122AB6910
:108770009343AB61638B002B03D10222AB6993431C
:10878000AB61638B002BCFD1238B99B2002BCBD164
:10879000AB690E4A1340AB61AB690D4A1340AB6144
:1087A000A36A002B02D02000E26A98476379002B6D
:1087B00005D02000253000F0C5FC002363710023A4
:1087C0002373B1E75C02002098080020FFF7FFFF49
:1087D000FFEFFFFF8023024A11680B4313607047CD
:1087E000000004408121024A13688B4313607047E4
:1087F00000000440F8B505000E0000241827AC4224
:1088000001D10020F8BD38006043301800F01AF89C
:108810000134F4E710B500F077F810BD10B501246D
:108820008C408A404369A3431A43426110BD10B58E
:1088300001248C408A400368A3431A43026010BDA0
:108840000069704741680268F0B58C00057A141918
:108850002368012D41D0022D43D0002D01D10235D6
:10886000AB4310254026E027AB43457AFF002D019E
:108870001D43837AB5439B0133402B431F4D2B404F
:10888000C57A2E023E40F02733431D4E3F0333404E
:10889000067BF6031E431B4B1E40437B1B043B40E1
:1088A0003343867B002E02D0802676043343236038
:1088B0000124C37B8C408B40C0321768E643A7433A
:1088C0003B431360012D07D10569037D6A69002BC5
:1088D00009D0012B09D06A61F0BDAB4302252B43BF
:1088E000BFE70325FBE73240F5E7437D22438B409A
:1088F0002C68344023432B60EDE7C046FFF8FFFFB0
:10890000FF7FFFFFFFFFF0FF890040180368044965
:1089100012020B40E021C9000A401A43026070476E
:10892000FFF8FFFF002070470130C00080080530CD
:1089300070470000F7B51400019305000E00FFF723
:10894000F1FF0E4B8200D7580D4B4000C25C002A4D
:1089500006D0002C04D01B185878FFF7E5FF241A26
:10896000012E07D9042E04D10121019BE2B2280077
:10897000B847F7BD0021019BE2B2F8E79C08002050
:10898000A0080020F0B5037805000C00012691B086
:10899000002B52D1436800932B4B1A78002A03D145
:1089A0002A4A00991E70116000222368284E019304
:1089B00032700293237902A98B71A3790B72E37948
:1089C000CB71E36806932369079363690893A368EF
:1089D0000593A3690993236A0B93636A0C93A36AB3
:1089E0000D93E3690A93E36A0E9363794B72236BE9
:1089F000934225D0080001211F78417107718286BA
:108A00003800FFF791FF0121019B317001331B18E2
:108A1000029377706B460F49187802AAFCF770FC36
:108A2000061E0AD10A4B1B78002B06D0236B686800
:108A300059785A68C0B2FCF7A9FD300011B0F0BDFA
:108A400002AA93809386E5E7CC080020D008002096
:108A5000A0080020D4080020037810B504000120ED
:108A6000002B0CD16068C0B2FCF7C4FD002806D111
:108A7000034B62681B689A4201D1024B187010BD0B
:108A8000D0080020CC080020F0B5077803000C00C7
:108A90001600012087B0002F27D15B6803AD1800B6
:108AA0000193FFF73FFFF378114A2B7008236B60A7
:108AB00033782B72B3786B727378EF72AB720A23D0
:108AC00043431B199B009E500A4B4000C25C002A86
:108AD00004D01B185878FFF727FF24186B462A008C
:108AE0001879E1B20023FCF7D1FC07B0F0BDC04615
:108AF000A4080020A0080020F0B587B001930378F7
:108B000006000C0015000120002B29D1776803AE68
:108B10003800FFF707FFEB78402233702B78002BEB
:108B200000D1383A72603372AB780E4A73726B7848
:108B3000B3722B79F3720A2343431B199B009D5098
:108B4000094B4000C25C002A04D01B185878FFF77C
:108B5000EBFE24183200019BE1B2F8B2FCF7DAFC1C
:108B600007B0F0BDA4080020A0080020F0B5160052
:108B7000027803000C00012087B0002A29D15F6829
:108B800003AD3800FFF7CEFE0A234343124A1B19F8
:108B90009B009B584000DA782A70327C6A601A7811
:108BA0002A729A786A725A78AA721B79EB720B4B06
:108BB000C25C002A04D01B185878FFF7B5FE2418B1
:108BC0003300083300932A007368E1B2F8B2FCF76F
:108BD00081FC07B0F0BDC046A4080020A00800201A
:108BE00070B51500027803000C000120002A0FD197
:108BF0005E683000FFF796FE0B4B4000C25CF6B299
:108C0000002A0BD0002C04D129003000FCF7ECFC2A
:108C100070BD1B185878FFF787FE24182A00300013
:108C2000E1B2FCF7CDFCF3E7A0080020F8B51F0087
:108C300003780E00050014000121002B0BD14068C1
:108C4000C0B2FCF7BDFA686831003B00E2B2C0B2C6
:108C5000FCF7DEFA01000800F8BD0000027803000E
:108C600070B501200C00002A13D15D682800FFF7C1
:108C700059FE084B4000C25C002A06D0002C04D0EC
:108C80001B185878FFF750FE2418E1B2E8B2FCF741
:108C90004DFE70BDA008002070B5150002780300DD
:108CA0000C000120002A0ED15868C6B200290BD052
:108CB000FFF738FE2A00054B80000549C4503000FC
:108CC000FCF74CFE002070BD2A00F8E79C0800204D
:108CD00035890000034B40681B68181A421E9041FA
:108CE000C0B270473C09002052680B689A4201D11B
:108CF00000230370704710B5047803000120002C96
:108D000003D152680A601870200010BD70B5037856
:108D100006000C00012586B0002B25D16A460B8881
:108D200013808B7893708B7A002B4FD0AB424DD051
:108D3000E368039323690493E37A002B49D0012B62
:108D400047D06A46636827490193237A26485372BD
:108D50003200FFF7D0FF3C224243244B6946706843
:108D6000D218FEF737FD05003378012B2BD16A4668
:108D700023881380A37A002B2ED0012B30D0694694
:108D8000636900205A780A721B784B72E368039378
:108D9000236904936368019323895BBA8B82144926
:108DA000FDF71AFB051E0ED1320012491248FFF7DB
:108DB000A2FF902252004243104B28006946D2186D
:108DC000FDF7FAFF0500280006B070BD6A46137271
:108DD000AEE76A46D370B4E702236A469370CEE7E3
:108DE0000023FAE7780A0020740A00207C0A002099
:108DF000400900203C0900203809002054090020C7
:108E0000F8B51F00037804000D0016000120002BA8
:108E100003D13B006068FEF767FD2378012B0CD17E
:108E20002000FFF757FF90235B00434303483200C5
:108E3000181829003B00FEF7AAF8F8BD54090020D5
:108E4000F8B51F00037804000D0016000120002B68
:108E500003D13B006068FEF77DFD2378012B0CD128
:108E60002000FFF737FF90235B00434303483200A5
:108E7000181829003B00FEF79BF8F8BD54090020A4
:108E8000037870B505000124002B08D14068FEF777
:108E9000F1FB2A0004000D490D48FFF725FF2B7850
:108EA000012B10D12800FFF715FF90235B004343EF
:108EB00008481818FEF74CF8041E04D12A00064989
:108EC0000648FFF711FF200070BDC046780A002059
:108ED000740A0020540900203C09002038090020B1
:108EE00070B5067804000D000120002E03D16068E3
:108EF000FEF7F0FC30002378012B0AD12000FFF7A9
:108F0000E9FE90235B004343024829001818FEF74E
:108F100034F870BD54090020037870B504000D00CA
:108F20000120002B02D16068FEF76AFD2378012B37
:108F30000AD12000FFF7CEFE90235B004343034895
:108F400029001818FEF745F870BDC04654090020E6
:108F50000649074A0978030012680120002904D055
:108F60005868801A431E9841C0B27047B80A002062
:108F7000BC0A0020013880B2430803439A081A4310
:108F800013091343180A1843013080B2C008704710
:108F9000F0B5067807000C00012589B0002E34D109
:108FA0006A460B683F2000934B7A1371CB795A4283
:108FB00053416A4653710B7903A91381FBF7C8FA31
:108FC0006A46237A78681374A379537463795A1EB6
:108FD00093416A469374A37AD374E37A1375237B1F
:108FE000957153752369069363690793094B1A7842
:108FF000002A0DD1084A1D70106034217143074BBF
:109000006A46C918FFF7AAF90500280009B0F0BDA3
:109010002E00F2E7B80A0020BC0A0020C00A002097
:10902000F7B51C0003780500170001260191002BFD
:1090300011D1FFF78DFFB0420DD034224243074BD0
:10904000D05AFFF797FF44433A0001996868A3B2EA
:10905000FFF7BEF906003000FEBDC046C00A002082
:109060000378002B01D0012007E0044B1A68436805
:109070009A42F8D1024B187B40007047BC0A00208E
:10908000C00A0020002110B5080000F001F810BD52
:10909000F7B506000C001825A4196543FFF79AFBE5
:1090A0000B4B5D192F7A0193012F03D13000FFF78D
:1090B00099FB6F7518236343019AD318DA68002A65
:1090C00004D0197D002901D018699047F7BDC0462A
:1090D000F40A002037B50025280001A90195FBF707
:1090E00037FAFA21054C890025600198F7F7D4F981
:1090F00007236060A560236037BDC04610E000E034
:10910000024A1368013313607047C0460C0B0020FD
:1091100010B50400FFF7DEFF034A116813685B1AFD
:10912000A342FBD310BDC0460C0B0020014B1868B6
:109130007047C0460C0B002000207047002070478D
:109140000020704770B50400FEF774F823780125FD
:10915000FF2B04D023785B190025DBB22370FEF7C8
:109160005DF8280070BD70B504000D00FEF762F8D0
:109170002570FEF753F8002070BD0020704710B531
:10918000C046FAF7E9FA10BD10B500F0ADFA034B8E
:109190001A68002AFCD0186810BDC046100B0020C9
:1091A00010B5F9F76FFDC0B210BD37B52423050027
:1091B000684600240370417082702800F7F73AFB7C
:1091C000844218D3C0B20022042802D80432121AF2
:1091D000D2B20330C0B20021684402F059FE23230A
:1091E0006A466946D37110200822FAF753FA4342BF
:1091F0005841C0B23EBD23002A5D6B440134DA7091
:10920000E4B2DAE710B504000800A178FFF7CDFF5B
:10921000A07810BD37B51C006D4624236970AA7074
:1092200001002200E81C2B7002F042FE0022042CF8
:1092300002D80432121BD2B20334E4B2200000215F
:10924000684402F025FE23236A466946D371102044
:109250000822FAF71FFA43425841C0B23EBD10B58A
:109260000020F7F7FBFB012010BD10B50020F7F739
:10927000FBFB012010BD0000F7B5042400251B4FA7
:10928000C1781B4B3A7899546A460023D01DD3719C
:10929000C926F7F7F9FA6B46DB79002B03D1013EBB
:1092A000F6B2002E1DD1F7F75DFB124BDA6C002AE7
:1092B00002DADA6C5242DA64DB6C013C9BB2E4B253
:1092C000ED18002CE0D13B780B4A5900AD088D52C7
:1092D000022B01D80133DCB2434258413C70C0B28A
:1092E000FEBD6B46D81DF7F7CFFAD4E71D0B002063
:1092F000300B002070050020280B0020FA2010B54C
:109300000E4A8000537812789B1A584301F054FE9D
:109310000B4B041C58881B88C01A01F04DFE011C21
:10932000201C01F061F9074B011C1860042206485B
:10933000F9F7DAFF43425841C0B210BD300B0020AC
:10934000280B0020200B0020D8400000FA2070B528
:10935000124A8000537812789B18584301F02CFE73
:109360000F4B051C58881B88C01801F025FE0D4CBA
:10937000216801F01FFB011C281C01F059FCFC2195
:10938000890501F017FB0422011C60600648F9F70B
:10939000ABFF43425841C0B270BDC046300B002005
:1093A000280B0020200B0020DC40000037B5040013
:1093B000002308222100BB48009302F079FDA07829
:1093C0001A381C2800D965E1F7F75CF81D002F005A
:1093D00046005400620079008300890091008000FB
:1093E00097009F00A500A700BB00AA00E600F100BF
:1093F0000D0143004E0180008000800028012C01F7
:10940000370157015F01FFF791FE00220090694686
:109410002000FFF7F7FEE278A34B102A03D90222BF
:109420001A7001203EBD0122FAE7F9F74FFF00282C
:109430003FD1F9F754FF00283BD1F9F76DFF002821
:1094400037D1F9F743FF002833D1F9F748FF002857
:109450002FD1012295492EE0954D964B0122E3181C
:109460002800595DF9F740FFC046934B01359D42F6
:10947000F3D1ECE7904D914B0122E3182800595DA0
:10948000F9F732FFC0468E4B01359D42F3D1DEE73E
:1094900003258C48F7F70CFA002804D1FFF7DFFE0C
:1094A000FFF7E3FED5E7013DF7F7E4FA002DF0D131
:1094B000C04603227D492000FFF7A4FEB1E7814B9F
:1094C00001201B78002BF4D0F7F7CEFA0022774961
:1094D000F1E77C4B1B78002BEBD00020F4E7794BB5
:1094E00001201B78002BE4D0F7F7B8FAEEE7754BB4
:1094F0001B78002BDDD00020F6E700226B4920000E
:10950000FFF780FEF7F752FB8BE7012202216E483E
:10951000FAF75CF8DAE70022F8E7F7F7F7F9D5E7AA
:109520002000FFF7A9FE0028C3D00022674B68483F
:109530001B7801A9013BDBB25B001B5A01920B8037
:10954000B9E7FFF703FFA478624B6349002813D003
:10955000586801F02FFA01F00FFD6B466A4600B221
:109560001880031400169370D07004230022210089
:109570006846FFF74FFE54E7586801F01BFA01F008
:10958000FBFC6B466A4600B2188003140016937009
:10959000D07004230322EAE7FFF7B0FEA4784D4B16
:1095A0004D49002801D01868D3E71868E5E7002284
:1095B0000B214A48FAF70AF800220D214748FAF72A
:1095C00005F800220C214548FAF700F8002208218E
:1095D0004348F9F7FBFF002207213B48F9F7F6FF64
:1095E0000022062193E701220C213C48F9F7EEFF07
:1095F00001220B213948F9F7E9FF01220D213748F3
:10960000F9F7E4FF012208213548F9F7DFFF0122CD
:1096100007212D48F9F7DAFF0122E2E700220121B4
:10962000304875E7002220002049FFF7EBFD0122BA
:109630002C481100F9F7CAFFF3E6224B1B78002BE8
:1096400000D136E7F7F76EF90A21F6F725FF6B46EA
:109650001870F7F777F90A21F6F71EFF6B4600221C
:109660009870A178042383E70F211748F9F7B2FF18
:109670006B460022694618701DE7002269462000EB
:10968000FFF7C0FDFAF768F8CBE600226946200034
:10969000FFF7B8FD022220000449FFF7B3FD0020C8
:1096A000C0E6C046140B002060020020EDBE0000A2
:1096B000844000007FBFFFFF884000007BBFFFFFAA
:1096C0008C4000001C0B002080F00F401D0B002080
:1096D000280B0020200B002000007A4400F00F40EF
:1096E00000F10F40C0F00F40F7B5F9F75BFFF9F755
:1096F00069FF01220D212D48FFF78CF801220D2171
:109700002B48FFF78BF8002201212A48F9F75EFF6A
:10971000012202212848F9F759FF01220521274893
:10972000F9F754FF012209212548F9F74FFFF9F70E
:109730007FFFF9F753FFF9F7B1FFFFF731FD00F0B5
:1097400021F9204B204D19002800019300F044FC22
:10975000FFF7ECFC1D4E0100300000F03DFC1C4802
:1097600000F03AFC1B4F380000F036FC1A4C23780E
:10977000002BFCD06378692BF9D12000FFF716FE8F
:1097800000280FD00199280000F026FCFFF7CEFC3E
:109790000100300000F020FC104800F01DFC3800F3
:1097A00000F01AFC0023A3702370DFE70090044050
:1097B00000F00F40C0F00F4080F00F4040F00F402D
:1097C00000F10F4046C30000C8BE0000D5BE000037
:1097D00038C30000ECBE0000340B002043C300007F
:1097E00007B56B46D91D08700122002000F0B0F8C3
:1097F00007BD0369C268934201D881685B18013BC9
:10980000981A7047F7B58368C468050040681F1B45
:1098100000190E000193A418974207D83A0002F0ED
:1098200047FB019B6868E41A2200F11902F040FB33
:10983000EC60F7BD0023F7B506001700C56801917D
:1098400000933369B4689D421FD2013B5B1B641BCC
:10985000BC4200D93C009C4200D91C007068220028
:109860004019019902F024FB009B2D191B1900934C
:10987000019B3F1B1B190193B368AB4200D100252C
:10988000F560002FDDD10098FEBD1B19DDE700005B
:10989000032310B5104C114A23616361104BA26180
:1098A000E361802322660F4A9B00236262660023E5
:1098B00010220D490D48A3626362E3622367E366E9
:1098C0006367A26602F0ECFA2000094902F0E8FAA8
:1098D0002023A37110BDC04600FCFF1F52C300002F
:1098E0004E0B00203E0B00205BC3000007FCFF1F57
:1098F0005FC3000070B514001822451C5543424355
:10990000124B0E00ED189B18DB6A012B0BD0022BBB
:1099100015D0002B04D12800FFF76BFF844208D933
:109920000024200070BD2800FFF763FF844200D9A7
:109930000400220031002800FFF764FFF1E7220055
:109940002800FFF777FF0400EBE7C04600FCFF1F8D
:10995000F8B50B4B04001B780E001700002B01D14B
:10996000FFF796FFEFF31085012181F310883A008D
:1099700031002000FFF7BEFF85F31088F8BDC04618
:1099800000FCFF1F10B5FFF783FF10BD7047F0B557
:1099900093B0069318AB10CB1D9D1B781A9E0893AD
:1099A0008023DB002B401C9F0490059101920793BC
:1099B000002C04D110239D43079B002B1FD1612352
:1099C000AA0600D541230022DBB20A3B029403928F
:1099D000099331000298F6F7E5FD099BCAB2D31846
:1099E000DBB2092901D83032D3B2039A0399541C4F
:1099F0000AAA8B54029BB34201D3202C14D1022318
:109A00002A001A4003921D4220D1013B2B40002F17
:109A100008D0002B06D0089A002A02D10C32154239
:109A200000D0013F302205E003940290D1E70AA95B
:109A3000625401341B99A14201D9202CF7D1002B8B
:109A400004D03023A74201D91F2C17D9EB0646D5E5
:109A5000079B002B33D1002C2BD01B9BA34201D0A2
:109A6000BC422CD1631E012C23D0102E3ED1023CCF
:109A7000AB062AD51F2C34D8582327E00AAAA354B2
:109A80000134DFE76223022E05D030230AAA012425
:109A9000137006E078230AAA1370302302240AAA5E
:109AA0005370089B002B2FD02D230AAA1355013485
:109AB00017E0102EE6D1AB06ECD55823EBE7102EBD
:109AC0001CD1AB06D6D41F2C0BD878230AAA135569
:109AD00001341F2C05D830230AAA135501341F2C3A
:109AE000DFD9019BAD0728D125001BE01C00022E09
:109AF000F1D162220AA95C1CCA54EAE7022EE8D11D
:109B00001F2CEED82300F4E76B0701D52B23CCE7FD
:109B10002B07E6D52023C8E72020069B0599049E45
:109B2000B0470135019B1A1B5219AF42F4D80026E9
:109B3000A74200D33E1B019BF31825000293029B12
:109B4000E018421B002D0AD1039B002B05D0019B7E
:109B5000C41A019B1819A74209D813B0F0BD0AAB6B
:109B6000013DE85C0599069B049EB047E7E70200CB
:109B7000069B20200599049DA8470134E9E710B50C
:109B8000002801D0FFF72CFE10BD0000F0B591B009
:109B9000169C0890099107920A93002901D1B34BB2
:109BA000089300263BE10A9B01330A93252806D03F
:109BB0003200751C079B0999089EB0479FE100235E
:109BC000012008251CE02D2A30D0302A16D0303A4A
:109BD0000027092A40D900200A9A069011782E29D8
:109BE00049D18021C9000B430A9901324978080004
:109BF0003038092862D80A218C4636E003430A919E
:109C00000A9A0A99127801312B2A12D0DBD8202A1D
:109C100011D0232A11D000272A2ADCD180CC002F92
:109C200002DA02227F4213430A91D4E7022213434D
:109C3000E5E70422FBE72B43E1E71022F7E73A00D0
:109C40006A43303A8F180A900A9A1178501C0A0019
:109C5000303A092AF3D9BEE70A25F5E76046069AA5
:109C60004243303A8A1806922A001178551C08009F
:109C700030380928F2D91178551C6C2931D029D8EF
:109C8000682936D06A293CD0150028786A1C0A92C7
:109C900078288DD8632837D8622872D0632800D1FD
:109CA000ECE0252884D0582882D12022590500D5FF
:109CB00091E00C218B431A43043168E02A29DAD160
:109CC00004CC0692D2430699D21711400A9A069103
:109CD0000232D0E7742901D07A29D5D180225200EE
:109CE0000BE051786C29F9D1C02189000B43951CF8
:109CF000CBE75178682902D080221343C5E7C02101
:109D0000F4E780229200F8E7010001226439C9B229
:109D10008A401100564D29402A4219D1732800D19A
:109D2000EFE0702800D043E7212213430593082376
:109D30000493069B019103931023029308CC3200F5
:109D400000930999079B0898FFF721FE060066E03B
:109D50008025ED00782807D10D222B4200D10C225E
:109D600093431A00102112E06F2823D10C2219000E
:109D700091430A0008212B4209D00D2293431A0077
:109D800005E05A0514D40C2293431A0002218023C3
:109D900010009B0018401A4241D1251DD30559D50A
:109DA000069B0592049703930291019023682DE08E
:109DB0000D22E9E71022190091430A0069280FD00B
:109DC00064280DD01C22190091430A000A212B425D
:109DD000DDD01D22D2E70D218B431A430331D6E794
:109DE0002B4202D0112293431A00930517D4251D4C
:109DF000D30526D523680592069A049703920A2272
:109E00000292DA0F0192DA179B1853403200009346
:109E10000999079B0898FFF7BAFD2C0006000A9BDA
:109E20001878002800D0BEE6079B32009E4200D37F
:109E30005A1E0020079B0999089CA047300011B0CA
:109E4000F0BD2368510601D5DBB2D4E71106D2D5A7
:109E50001BB2D0E7236850060CD5DBB20592069AF8
:109E600004970392002202910192CFE78D9900009E
:109E7000210812001006F1D59BB2EFE7022219006B
:109E800011400C91134226D001230693230001CBED
:109E900032000B930999079B751CC0B2089EB0470E
:109EA0000C9B002B2AD02A00069E1FE02020079B37
:109EB0000999089DA847069A531C06939B1BBB4211
:109EC000F4D300239F4200D07B1EF6180223002FFC
:109ED000DBD07B1CD9E73200EEE7531C0C9320202B
:109EE000079B0999089CA0470C9A0136BE42F4D3FF
:109EF000069A0023974200D3BB1AED180B9C2E0044
:109F00008DE7220002CA0C92069A0B91002A01D119
:109F1000012252420B990C008A182178002901D0A5
:109F2000944214D10B9A1900A41A8022D200114035
:109F30000D91134203D0069A944200D914000222D4
:109F4000190011400E91134216D1320009E001347C
:109F5000E3E7531C0F932020079B0999089DA8470E
:109F60000F9AA31B9B189F42F3D80023A74200D34C
:109F70003B1B0134F6181C19350008E006936B1CD6
:109F80002A000F93089D079B0999A8470F9D0B9BDB
:109F90009B1B585D002807D00D9B002BEFD0069B24
:109FA000069A013B002AE9D10E9B002B12D02A0011
:109FB00007E0531C06932020079B0999089EB04791
:109FC000069A631BD3189F42F3D80023A74200D3FD
:109FD0003B1BED180C9C92E70FB41FB5012206A99C
:109FE00008C9524203910091034802A9FFF7CEFD30
:109FF00005B008BC04B018477F9B000010B592B2B2
:10A00000F9F750FBC0B210BD10B5FFF78FF810BDC7
:10A0100013B500236A46938013800533137104003F
:10A020000222694601A8FFF7E9FF40B2C0460028B6
:10A0300002D16B465B78237016BD00001FB500236C
:10A040006A4693810D4B01A91B7802A80B70062369
:10A0500001220370FFF7D2FF0400C04603A8FFF7F8
:10A06000D7FF204340B2002806D16B46187B02235D
:10A07000184043425841013004B010BDEDBE00000D
:10A08000F7B504000D001600FFF7D8FF012808D12E
:10A09000C046320029002000FFF7B0FF002800D0A2
:10A0A000C046FFF7B1FF0127060000236A4601A85A
:10A0B0009380FFF7ADFF041E09D16B461D79FFF7B2
:10A0C000A3FF3D40801B322803D8002DEDD1200096
:10A0D000FEBD0224FBE7F7B504000D00FFF7AEFF5D
:10A0E00001280ED1002301936B466A461D70230C94
:10A0F00064BA53705480C0460422684601A9FFF731
:10A100007DFFFFF781FF0127060000236A4601A8B3
:10A110009380FFF77DFF041E09D16B461D79FFF781
:10A1200073FF3D40801B322803D8002DEDD1200065
:10A13000FEBD0224FBE70000F0B58027374C150078
:10A14000A544029104007F00BA4263D800263A0079
:10A15000310005A8049601F09BFE3A00310046A8A4
:10A16000459601F095FEFF2322009A43D3190193EF
:10A170002A1D92B20199230C03922A19E7B2DBB28D
:10A1800064BA8A4216D8022104AA1170537054800E
:10A1900002992A0005A801F08BFEC046039A45A942
:10A1A00004A8FFF76DFF002800D0C04687239B005E
:10A1B0009D44F0BDC04602227F4204A9FFB20A704E
:10A1C0004B704C803A00029905A801F071FEC04620
:10A1D0003A1D45A904A8FFF753FF022204AB1A70E9
:10A1E000019B04AA1B0C5370019BD6701B0A937031
:10A1F000029B0400EA1BD91905A801F059FEC046CC
:10A20000039B45A9DA1B92B204A8FFF739FF20434C
:10A2100040B2C8E701204042C8E7C046E4FDFFFF66
:10A22000F0B58027184C1500A544019104007F006B
:10A23000BA4225D800263A00310003A801F028FED2
:10A240003A00310044A8439601F022FE032302AAFB
:10A250001370230C5370130064BA54802A1D180025
:10A2600092B243A9FFF7CAFE44B2C0462A00019841
:10A2700044A901F01DFE200085239B009D44F0BDF4
:10A2800001246442F7E7C046ECFDFFFF43001B0ECC
:10A290007F3B10B5021C162B13DC002B09DB0C498D
:10A2A0001941014204D08020C0031841801888431E
:10A2B00010BDC00FC0070133FAD1FE239B05184320
:10A2C000F6E7802BF4D1011C00F004F8F0E7C0465B
:10A2D000FFFF7F00F8B5CE46474643025A0A4E02BA
:10A2E0004500C40F480091462D0E720A000E944698
:10A2F00080B59B09C90FB6092A1A8C4221D0002AC1
:10A300000DDD00282DD1002E00D18DE0511E012A37
:10A3100000D11DE1FF2A00D1ABE00A0027E0002AAE
:10A320004DD0421B002D00D0CCE0002B00D179E0B5
:10A33000541E012A00D128E1FF2A00D197E0220013
:10A34000C5E0002A00DC96E000284FD0FF2D00D1A8
:10A350008FE08021C9040E431B2A51DD2A000133FE
:10A3600018E0FF2D00D184E08021C9040E430121B3
:10A370001B2A08DC31002020D140821A964032008E
:10A38000501E824111435B1A5A0159D407212A00F9
:10A39000194049D00F211940042900D00433590134
:10A3A00042D5501CFE2A3AD09B01C0B25B0AC005C0
:10A3B0001843E4072043C0BCB946B046F8BDFE20B0
:10A3C00080466F1C38004746074200D08EE0002DC3
:10A3D00000D0B4E0002B00D1DBE0002E6CD0981B45
:10A3E000450100D4F7E00C00F31A3DE0002E1BD02D
:10A3F000511E012A00D182E0FF2A3AD00A00ABE7C1
:10A4000031002020D140821A96403200501E8241F5
:10A410000A439B185A01B9D56A1CFE2D75D1FF203D
:10A420000023C4E70C003300DB08FF2A46D1002BD1
:10A43000F5D08022D20313435B02FF205B0AB6E70C
:10A440009F01BF093800F6F7D7F9053887408542E4
:10A4500024DC3B002021421B0132D3408A1A974062
:10A460007A1E974100223B43590793D197E70C008E
:10A470003300DB08DBE7002A14D0421B002D4BD150
:10A48000002BD0D0511E012A00D19EE0FF2AEFD030
:10A490000A001B2A5FDD0200731C7BE7504B2A1A5F
:10A4A0003B40E1E7FE216A1C11423BD1002D5DD10A
:10A4B000002B7FD0002E7FD10022DB085B025B0ADD
:10A4C000D0B274E7FF28D2D08024E40423430124CF
:10A4D0001B2A07DC1C002025D440AA1A93405A1ED0
:10A4E00093411C43331B05000C004DE79F1B7A0171
:10A4F00022D4002FA6D100240020002357E79B1967
:10A5000001250132590100D440E7012135481940A5
:10A510005B0803400B43A7E7FF28A9D08021C904AB
:10A520000B43B6E7FF2A00D179E79B195B0859076F
:10A5300000D02FE7DB08C1E70C00F71A82E7002BF9
:10A540002CD1002E93D180230024FF20DB032EE7A3
:10A5500001259B1B18E719002025D140AA1A93401A
:10A560005A1E93410B4305009B1953E7002B00D162
:10A570007EE7002E00D17CE78022D203914502D3F2
:10A58000944500D23300DB0853E70C00F31A013581
:10A59000FAE6002EAFD00C0033008DE7002E00D17C
:10A5A00067E78022D2039145EDD39445EBD20C00AE
:10A5B0003300E8E733007FE79B1900225901B9D542
:10A5C000074A1340DB08012278E79B190132013565
:10A5D00059019AD4DAE6031E8DD0DB086EE7C04637
:10A5E000FFFFFFFBFFFFFF7DF0B54F464646D64617
:10A5F0004402C0B547000E1C640A3F0EC50F002F71
:10A600003CD0FF2F42D00023802299469A46E40096
:10A61000D20414437F3F73025B0A984673001B0EFB
:10A62000F60F002B1BD0FF2B13D042468021D20007
:10A63000C9041143884600207F3B2900FF1A4B467E
:10A640007140C9B20F2B00D9B5E0744A9B00D358B2
:10A650009F464346002B3FD1FF3F023303E0434672
:10A66000002B2DD1012329004A467140C9B21A435B
:10A670000E2A38D86A48920082589746002C13D187
:10A6800004239946033B00279A46C4E7002C05D1D2
:10A6900008239946063BFF279A46BCE70C239946B8
:10A6A000093BFF279A46B6E72000F6F7A5F876277C
:10A6B000431F9C4000237F4299469A463F1AAAE7CF
:10A6C0004046F6F799F84246431F9A4076235B428C
:10A6D0001B1A90460020B0E703234A461A439146CE
:10A6E0000320FC33A9E70D00FF200022C005ED0781
:10A6F00010432843E0BCBA46B146A846F0BD0D0061
:10A7000000200022F2E75346022BEDD0032B33D07A
:10A71000A046012B05D100200022E7E735000328E1
:10A720007AD03B007F33002B2DDD4246520707D005
:10A730000F2241460A40042A02D004229446E044F3
:10A740004246120105D54246364B1A403B00904620
:10A750008033FE2BC8DC42469201520AD8B2C5E7CC
:10A7600080220025FF20D203C0E78022D2031442BA
:10A7700002D04346134249D08022D20322435202E0
:10A78000FF20520AB2E70122D31A1B2BC3DC424638
:10A79000DA4043469E37BB40591E8B411A4353074C
:10A7A00004D00F231340042B00D00432530129D5C9
:10A7B000012000229AE7424663015501AB4215D2BF
:10A7C0001B200022013F01261C0052005B00002CD0
:10A7D00001DB9D4201D85B1B324301380028F3D1D5
:10A7E000581E8341134398460D009AE71A20012210
:10A7F0005B1BE8E7023B5A4253415B4235000022B3
:10A80000D8B273E792010020520A6FE71A4352024E
:10A810003500FF20520A69E74446ADE768C30000EF
:10A82000A8C30000FFFFFFF770B542004E024C00C6
:10A8300045026D0A120EC30F760A240EC90FFF2AB5
:10A8400010D0FF2C0CD00120A2420AD1B54208D171
:10A850008B420FD0002A04D12800431E984100E00B
:10A86000012070BD0120FF2CFBD13543F9D14B40B5
:10A870001800F6E70020F4E730B5420044024D022C
:10A88000C30F4800640A120E6D0A000EC90FFF2A9A
:10A8900019D0FF280BD0002A1ED100280BD1002D83
:10A8A00027D0002C34D100292FD0080030BD002D36
:10A8B00028D1002A01D1002CF5D08B4207D1002BE2
:10A8C00023D01800F2E7002C1CD1FF2814D0581E0A
:10A8D000022318400138E9E70028F8D08B42F6D16E
:10A8E0008242F4DCEBDBAC42F1D80020AC42DDD29A
:10A8F000E5E7002CDAD0EAE7002D03D18B42E6D160
:10A900000020D3E702204042D0E701204042CDE7BB
:10A910008B42E8D0DBE7C04630B5420044024D022E
:10A92000C30F4800640A120E6D0A000EC90FFF2AF9
:10A930001AD0FF280ED0002A1ED100280ED1002DDB
:10A940002AD0002C0CD08B421DD0581E0223184058
:10A95000013810E0002D0DD1002A20D1002C1ED18D
:10A96000002923D0080006E0002C03D1FF28ECD1F9
:10A97000002D17D0022030BD0028E6D08B42E4D154
:10A980008242E2DC04DBAC42DFD80020AC42F2D2EF
:10A99000002B0BD01800EEE7002CECD0D5E78B4253
:10A9A000D3D1F5E700208B42E5D0CEE7012040422D
:10A9B000E1E7C046F0B54F464646D64643025B0A3D
:10A9C0004500C0B599460F1C2D0EC60F002D00D1B5
:10A9D00088E0FF2D00D18DE08022DB00D2041A43F5
:10A9E0000023914698469A467F3D7C027B00640A8C
:10A9F0001B0EFF0F002B68D0FF2B21D08022E4001C
:10AA0000D204144342467F3B5B1900215D1C0A2A95
:10AA10002EDC7E404246022A23DC013A012A00D97C
:10AA2000BDE002296ED001292CD100200022C005F2
:10AA3000F60710433043E0BCBA46B146A846F0BD25
:10AA40002B00FF33002C65D0032241461143320016
:10AA5000013588467A40FF350A2900DDD8E0160026
:10AA60000321404601228240A620C000024220D09D
:10AA70005346022B46D0032B00D1BBE051464C4637
:10AA80000129D2D02B007F33002B70DD620704D068
:10AA90000F222240042A00D00434220103D5634B44
:10AAA0001C402B008033FE2B2CDCA201520AD8B2B2
:10AAB000BDE790208000024227D1B938FF3810420C
:10AAC0006DD03E00A1468A46D2E7002C41D1012339
:10AAD00042461A4390462B00424601215D1C0A2A39
:10AAE00097DDC5E7002B26D104239846033B0025BC
:10AAF0009A467AE7002B18D108239846063BFF2593
:10AB00009A4672E7FF20002291E780220026FF206C
:10AB1000D2038CE741460222013511438846FF35B6
:10AB20000A29A5DC02217E4074E70C239846093BE4
:10AB3000FF259A4659E71800F5F75EFE4A46431F7F
:10AB400076259A4000236D42914698469A462D1AE2
:10AB50004BE72000F5F750FE4246431F9C402B1A5E
:10AB6000763B00215D1C0A2A00DC52E780E70122C7
:10AB7000D31A1B2B00DD58E79E352200AC40DA408B
:10AB8000631E9C412243530704D00F231340042B20
:10AB900000D00432530137D50120002247E7210CB1
:10ABA0004A462404240C2700100C1204120C4443BF
:10ABB0005743484351433A0C09195218944203D958
:10ABC000802149028C4660443F0411043F0CC9199E
:10ABD0008C01671EBC41120C890E12180C439201A5
:10ABE000144312010ED5012362081C40144349E7A7
:10ABF0003E00A14680224B46D2031A435202FF2058
:10AC0000520A14E71D003DE792010020520A0EE7A8
:10AC10000F29EDD180224B46D2031342EAD01442D1
:10AC2000E8D13E00FF20224301E7C046FFFFFFF7C7
:10AC3000F8B54746CE464E0243024500720AC40F9D
:10AC4000480080B594465F0A2D0E9B09000EC90F7F
:10AC5000B609FF2824D0012251402A1A8C420FD075
:10AC6000002A00DC6AE1002835D1002E00D1A2E0E4
:10AC7000511E012A00D124E1FF2A21D00A002FE031
:10AC8000002A00DC67E100285ED0FF2D18D080216B
:10AC9000C9040E431B2A00DC76E02A00013332E0AF
:10ACA0002A00FF3A9146002E42D08C4255D04A46A7
:10ACB000002A00D19CE0002D00D177E00C00330089
:10ACC000DB08002B00D16EE08022D20313435B022D
:10ACD000FF205B0A24E0FF2DF2D08021C9040E433F
:10ACE00001211B2A08DC31002020D140821A964025
:10ACF0003200501E824111435B1A5A0160D4072171
:10AD00002A00194057D00F211940042900D00433DC
:10AD1000590150D5501CFE2A45D09B01C0B25B0A98
:10AD2000C0051843E4072043C0BCB946B046F8BD8F
:10AD3000012251408C42BAD14A46002A10D0002D3F
:10AD400000D198E00023BBE7002E34D0511E012A29
:10AD50006ED0FF2AB4D00A009CE7002A00D088E019
:10AD6000FE206A1C104200D092E0002D00D0A4E02A
:10AD7000002B00D1CBE0002E00D0CAE00022DB087F
:10AD80005B025B0AD0B2CBE731002020D140821AAF
:10AD900096403200501E82410A439B185A01AED59C
:10ADA0006A1CFE2D4AD1FF200023B9E7FF22002BA9
:10ADB0004BD10C003300DB08FF2A00D181E7DFE72D
:10ADC0009F01BF093800F5F717FD05388740854218
:10ADD00021DC3B002021421B0132D3408A1A9740DC
:10ADE0007A1E974100223B43590700D08BE78FE73B
:10ADF000FE206A1C104212D1002D52D1002B7CD0B3
:10AE0000002EBBD09A1B500100D48BE001240022FD
:10AE1000F31A0C40E8E7564B2A1A3B40E4E79F1B25
:10AE20007A0146D4002FCDD100240020002377E7FB
:10AE30009B1901250132590100D460E701214D48D9
:10AE400019405B0803400B43CEE7571E012A5AD036
:10AE50000C00FF2A33D001221B2F07DC2021C91B45
:10AE60001A008B40FA40591E8B411A430500B31A51
:10AE700043E7002D23D1FF22002B9BD0511E012A36
:10AE8000D6D0FF2A1BD01B292CDD0200731C3AE709
:10AE9000FF2A88D09B195B08590700D033E7DB08ED
:10AEA0006EE7002B10D1002E43D0012433000C405C
:10AEB00006E70124F71A0C4084E7002B04D1330085
:10AEC000FEE601259B1B18E7002E00D1F8E6802244
:10AED000D203974204D3944502D2012433000C409C
:10AEE000DB08F1E61A002025CA40691A8B40591E7A
:10AEF0008B41134305009B1950E7002E94D0012489
:10AF000033000C403AE70C000125F31AF5E6330054
:10AF100034E79B1900225901C1D5154A1340DB08BB
:10AF200001222DE7002A00D17EE713000022DB0872
:10AF300026E780230024FF20DB03F1E6002A00D16E
:10AF400056E7471B3A00002D00D130E78022D2049B
:10AF50000C0013437FE7002A00D101E7411B002DBD
:10AF600001D10A0088E78022D20413438BE7C04650
:10AF7000FFFFFFFBFFFFFF7D41024200C30F490AB5
:10AF80000020120E7E2A03DD9D2A02DD094A981850
:10AF90007047802000040143952A07DC9620821A1E
:10AFA000D1404842002BF3D10800F1E7963A914096
:10AFB000F7E7C046FFFFFF7F70B5002813D0C31727
:10AFC000C5185D40C40F2800F5F716FC9E2301004C
:10AFD0001B1A962B0FDC082834D008398D406D02DF
:10AFE0006D0AD8B202E0002400200025C0052843E5
:10AFF000E407204370BD992B16DC421F052800D0C2
:10B0000095402A00114802406E0709D00F263540AE
:10B01000042D05D00432550102D59F2302405B1A4E
:10B020009201550AD8B2E1E70522121A2800D04051
:10B03000020008001B3085402800451EA84102433D
:10B040001500DEE76D0296206D0ACFE7FFFFFFFBDC
:10B05000F0B5DE46454657464E46E0B587B000920D
:10B0600001930B031B0B9B46CA0F4B000400804649
:10B070005B0D029200D16AE1D44A934200D18CE187
:10B080005946420FC9000A43802109041143C200F6
:10B090009046CF4A894692469A440023002403935F
:10B0A000009E019F3B031B0B9B467B0030005B0D0A
:10B0B000FD0F002B00D128E1C44A934200D177E173
:10B0C0005946720FC9000A438021090411438B4677
:10B0D000BF49F2008C4651466344CB1A9A4600237E
:10B0E000029E6E400F2C27D8BA49A40009598F46FA
:10B0F000CB464246029E039B022B16D0032B00D167
:10B10000A6E2012B00D0DFE00022002300249046BD
:10B110001B052343F60733434046190007B0F0BC34
:10B12000BB46B246A946A046F0BD00220024904688
:10B13000A64BEDE72E00DFE7CB4500D2D4E100D1EE
:10B14000CFE101235B429C46444648460027E24447
:10B150005B46150E1B021D43190C2B0412020095B1
:10B160001D0C914602910395F5F71CFA02006A4303
:10B170000B04210C804619438A4209D9009D012302
:10B18000AC465B4261449C46E0448D4200D8FBE102
:10B19000881A0299F5F706FA039A2404424309042F
:10B1A000240C03000C43A24206D90099013B8C46B3
:10B1B0006444A14200D8E1E1A01A424612041A43B5
:10B1C00093464B4659461B0C1D0004930B044946FD
:10B1D0000904090C0C001B0C5C43120C6B438846E1
:10B1E00051436A43250CAC465B186344994203D92A
:10B1F000802149028C466244190C24041B04240C4F
:10B200008A181C19904202D316D1A74214D25B4669
:10B21000009D013B4F4405934F459B41AC465B422B
:10B220006344C018854200D3A1E1824200D9F6E10F
:10B2300000D1F1E1059B9B463C1BA742BF41009D0D
:10B24000801A7F42C01B854200D1D0E10299F5F7F8
:10B25000A9F9039A0B044243210C070019438A42BF
:10B2600000D978E1881A0299F5F79CF9039A240429
:10B2700042430904240C03000C43A24200D95DE1BF
:10B280004146A41A3A041A43049D13041B0C594363
:10B2900047466B439C46100C47430B0CBC4463442D
:10B2A00068439F4203D980256D02AC4660441F0C61
:10B2B00009041B04090C3F185B18BC4200D202E1D0
:10B2C00000D1FDE001231A43434B5344002B00DC23
:10B2D000AEE0510700D098E15946C90106D559465C
:10B2E0003E4B194080238B46DB0053443C498B4244
:10B2F00000DD1AE75946D208490711435A465B0553
:10B3000054028846240B5B0D02E75A46009B1A4301
:10B3100000D17EE05B46002B00D100E15846F5F7F6
:10B320006BFA020003000B3A1D27009EBA1A19009F
:10B330005846D64008398840320002439346009A66
:10B340008A40284953448A469A440023C8E65B460B
:10B350000343994656D05B46002B00D1CDE05846BA
:10B36000F5F74AFA0B235B429C460200844466468A
:10B370001D239B1B260011005846DE4008398840DB
:10B3800033000343994623008B409846164B002414
:10B390009B1A9A460023039382E65A46024391463B
:10B3A0002AD100229A46022390460824039377E686
:10B3B0005A46009B1A430D4B9C46E244002A17D183
:10B3C00002231C4300239B46023389E6FF0700004B
:10B3D00001FCFFFFE4C30000FF030000FFFFFFFECE
:10B3E000FE070000F30300000DFCFFFF01F8FFFF64
:10B3F000032332001C4373E69A460323D9460C24E8
:10B4000003934DE6002398469A46013304240393A0
:10B4100046E601231C4300239B46013360E60023DC
:10B42000802498460026924B240371E60122524262
:10B430000121C91A382900DD66E61F2900DCABE0CE
:10B440001F204042C31A5846D8400300202904D088
:10B4500058468849514488400243511E8A411A4344
:10B46000072319000024114013420CD00F2313406E
:10B47000042B00D1F9E0111D91429B410A005B426F
:10B4800059075B021C0BD2080A43904600233FE693
:10B4900080244B462403234209D05B46234206D135
:10B4A0001C4324032E009046714B240B30E680246D
:10B4B0004B4624031C432403029E6D4B240B27E6BA
:10B4C000002B00D100E70098511E8446644484425A
:10B4D00000D284E0BC4200D2AEE000D1C1E00A005C
:10B4E000F0E6424500D92CE64B46DC0758084346B7
:10B4F0005B081C434346DF072AE6F5F77DF9152371
:10B500009C4684440200634620321C2B00DC2EE75C
:10B5100023000838834099460023984636E7F5F71C
:10B520006BF902000300153220331C2A00DCFBE615
:10B5300000990838814000228B4602E70099013BC0
:10B540008C466444A14200D99AE6A24200D897E60C
:10B55000831E644494E6AC466144013F8D4200D9A9
:10B5600080E68A4200D87DE6871E61447AE68542FD
:10B5700000D05FE6B94500D95CE656E6A24200D8A5
:10B580001AE6831E644417E68A4200D800E6AC46F9
:10B59000831E98466144FBE53748140050448240BE
:10B5A0005B4617008340CC407A1E974123433B43C0
:10B5B0001A005B46CB40510709D00F2111400429E6
:10B5C00005D0111D9142924152429B180A00190266
:10B5D00000D455E7002201230024904698E50A0094
:10B5E000BC4200D06EE64B4500D06BE66CE6234BC8
:10B5F000234A5344924500DA18E7012149420A1DC3
:10B600008A42894149428B4466E60F211140042950
:10B6100000D161E61100F2E7BC4200D80AE602233D
:10B620005B429C4600994F444F459B41E3448C4606
:10B630005B426344C018FFE54946009D4800484509
:10B640008941AC46494261448146023A6418C7E7E1
:10B6500080245B4624031C4324039046044B240BA4
:10B6600056E59945E8D30A00BDE7002308E7C04640
:10B67000FF0700003E0400001E040000FF0300005E
:10B6800002FCFFFFF0B55746DE464E464546E0B5A4
:10B690001F000B031B0B16009A46CA0F4B00040039
:10B6A000934687B05B0D00D1D5E0BB4A934200D1F1
:10B6B000F8E05146420FC9000A43802109041143B2
:10B6C000C2009146B54A8A469D18002398460293C7
:10B6D0003C037B00FA0F3000240B5B0D009200D17D
:10B6E00096E0AD4A934231D0720FE40022438024A9
:10B6F00024041443A94AF000944663445B195A1C7D
:10B700000192424600260A2A42DC5A4600994A40E3
:10B7100093464246022A32DC013A012A00D949E125
:10B72000022E00D1CAE0012E3DD1002300240022C8
:10B7300010005A461B052343D2071343190007B0D4
:10B74000F0BCBB46B246A946A046F0BD924B26438C
:10B75000EB18002E00D1BBE00322414611435A46AC
:10B76000884600994A40802109018C46290061449D
:10B77000019141460A2900DD33E293460326424601
:10B7800001279740A6213A00C9000A400F4231D054
:10B79000029E022E00D135E2032E00D1D2E15446A2
:10B7A0004846012EC1D0019A7D4B94466344002B3C
:10B7B00000DCC0E0420709D00F220240042A05D075
:10B7C000021D82428041404224181000E20106D549
:10B7D000744B019A1C4080239446DB006344724AF8
:10B7E00093426BDC6207C00864025B050243240BD2
:10B7F0005B0D9DE7902189000F4263D188223A4278
:10B8000000D1D7E0009BA2469B4681460296BFE747
:10B810002300334300D17FE0002C00D1ADE12000B4
:10B82000F4F7EAFF020003000B3A1D201900821A08
:10B8300030000839D0408C400443300088405B4AD7
:10B84000EB1A944663445A1C0192424600260A2A87
:10B8500000DC5AE79CE753460343994654D05346CD
:10B86000002B00D177E15046F4F7C6FF0B235B4273
:10B870009C460200844411005046083988401D232C
:10B88000804660461B1A2000D84003004046034310
:10B890009A4623008B4099460023444D9846AD1AA2
:10B8A000029315E752460243914626D100221D001D
:10B8B0000223924608329046029309E700240022B0
:10B8C000354B35E7002380249B462403324B2FE77A
:10B8D0000222414611438022120194462A0062440A
:10B8E000884601920A2900DD52E75A460020009955
:10B8F00004004A40934602260BE70C221D00032356
:10B90000814690460293E3E600239A460433984624
:10B91000033B00250293DBE6424601331A432B002A
:10B9200090465A1C019242460024002001260A2A11
:10B9300000DCEAE62CE70122D21A382A00DDF4E620
:10B940001F2A00DC2AE11F214942CB1A2100D940DD
:10B950000B00202A05D0164A019D94466544AC4050
:10B960002043421E90411843072319000024014040
:10B9700003420CD00F230340042B00D140E1031DF0
:10B980008342A4411800644261076402240BC20888
:10B9900000230A43CCE6C046FF07000001FCFFFF7E
:10B9A000FF030000FFFFFFFEFE0700000DFCFFFF8E
:10B9B0003E04000049464A460904090C0D00160CD5
:10B9C000020C0004000C4543AC4605007543A84634
:10B9D00015000F007543009202952A00009D6F43E9
:10B9E00065462D0CA94647444F44B84505D9150076
:10B9F000802252029046454402953D0C03956546CF
:10BA00002D043F042D0CAC463D0065440495250CE7
:10BA10002404240CAC4625007543A84665460F0057
:10BA20006943414489466743390C49446E4388451C
:10BA300003D980225202904646440D0CA846350098
:10BA400045440595039D3F04A8463F0C0904C919C8
:10BA500088444546039555462E04360C2F0C350078
:10BA60004543784381463800A8462D0CAA46009AE3
:10BA7000504372434A445244914503D980256D0294
:10BA8000A9464844150CA94645462D042D0CA84648
:10BA900065467D43120448449044A94632006546F9
:10BAA00062436E437C43170C3619BF19BC4203D95D
:10BAB00080246402A446E144029C039EA446059DA2
:10BAC00066448E428941AC4612043C04120CA21812
:10BAD0006244494254184644A4464645A44182461D
:10BAE0006442A046AA4292418C458941E244D04436
:10BAF000494252420A43A045A441824589416442D9
:10BB000049420C4341463F0CD2191219CC0D0499FD
:10BB100070020843411E884141464A44F60D5202D4
:10BB20003043490214430843D20135D5012243086A
:10BB300002401343E0071843640834E6009BA24622
:10BB40009B4681468024534624031C4324034A46D3
:10BB50002E4B240BECE5F4F74FFE15239C46844452
:10BB60000200634620321C2B00DC84E60023994649
:10BB70002300083883409A468EE6F4F73DFE020023
:10BB80000300153220331C2A00DC4EE6020034008C
:10BB9000083A0020944052E6019304E61C4B210031
:10BBA0009C460300019DD3406544A940194303000E
:10BBB000AB40581E834119430800D4404B0709D0BD
:10BBC0000F230B40042B05D00B1D8B4280414042BC
:10BBD00024181800230200D4D6E6012300240022F2
:10BBE000A6E50F29AAD1802352461B031A42A9D0E9
:10BBF0001C42A7D11C43009B02009B46034B97E5C8
:10BC00000024C1E60024014B220091E5FF0700005B
:10BC10001E0400000B00020070B5164D0C0382B02C
:10BC20004900002000920193240B490DDE0FA94228
:10BC300004DD1148814203DD104BF01802B070BDE5
:10BC40008020400320430E4C641A1F2C08DD0D4B4E
:10BC50005B1AD84003005842002EEFD11800EDE7E0
:10BC6000094B009A9C46030061448B40E240134319
:10BC7000F1E7C046FE0300001D040000FFFFFF7F48
:10BC80003304000013040000EDFBFFFF70B5002833
:10BC900016D0C317C5185D40C40F2800F4F7ACFDDB
:10BCA000104B1B1A5B055B0D0A2814DC02002E00EA
:10BCB000153296400B22121AD5402D032D0B03E0AE
:10BCC00000240023002500261B052B43E407234303
:10BCD0003000190070BD0B3885402D0300262D0B58
:10BCE000F2E7C0461E04000070B542024300C40FD4
:10BCF000FE201B0E591C550A08420CD0E021890079
:10BD00008C466D07120B63441B051343E407234362
:10BD10002800190070BD002B14D1002D1BD0280065
:10BD2000F4F76AFD0A281CDC0B232A001B1ADA40F0
:10BD3000030015339D400E4B12031B1A5B05120BBB
:10BD40005B0DE1E7002D09D0130B802212031A438B
:10BD50006D07084BD8E700230022D5E70022054BEA
:10BD6000D2E703002A000B3B9A400025E3E7C046D8
:10BD700089030000FF070000F0B54B000F035B0DC7
:10BD80003F4C450F83B07F0A5E1C2F43009001910A
:10BD9000CA0FC50026420BD03A495C18FE2C13DDB1
:10BDA000FF200023C0051843D207104303B0F0BDA5
:10BDB000002B02D100200023F4E73D43F0D0802384
:10BDC000DB03FF203B43EDE7002C14DD009BFF006D
:10BDD0009B01581E8341690F3B430B43590741D0D8
:10BDE0000F211940042947D00433590142D50134A9
:10BDF0000023E0B2D6E721001731DBDB80211E20D3
:10BE000009043943001B1F281BDD02267642341B20
:10BE10000E00E6403400202804D01B4884466344CA
:10BE200099400D436B1E9D4125436B071DD00F218B
:10BE300000242940EB0804291BD15B025B0AE0B215
:10BE4000B0E7124C1C192B00A540C340A140681E4E
:10BE5000854129430B4300245907C1D19B01002090
:10BE60005B0A9FE7DB08E0B29CE7AD0100206B0AAC
:10BE700098E72B1DDB08E0E79B015B0AE0B291E746
:10BE8000FE07000080FCFFFFA2FCFFFF82FCFFFF1B
:10BE900003008218934200D1704719700133F9E70B
:10BEA00003000A7801311A700133002AF9D1704772
:10BEB000002310B59A4200D110BDCC5CC4540133AC
:10BEC000F8E700000000000044454255473A2020B2
:10BED0002025732000207469636B20256C75002079
:10BEE0002D3E20202564202C202564000A006D654D
:10BEF00061737572656D656E745461736B00204378
:10BF000048475F5354415455533A20257500204407
:10BF100053475F5354415455533A202575002043ED
:10BF20006F6D6D204572726F723A2052656C65615B
:10BF300073656400204146455F553A2052656C6543
:10BF40006173656400204146455F553A20436F6D3B
:10BF50006D204572726F7200204146455F423A2063
:10BF600052656C656173656400204146455F423AE5
:10BF700020436F6D6D204572726F7200626D735F4A
:10BF80007265636F76657279536571006166655F8E
:10BF900077616B6555700000000000000000000034
:10BFA0000000000000009F02D466F8A9565C72C928
:10BFB0009A1102F8A4FE5301B72D00000000000002
:10BFC00000070E091C1B1215383F363124232A2D79
:10BFD00070777E796C6B6265484F464154535A5D69
:10BFE000E0E7EEE9FCFBF2F5D8DFD6D1C4C3CACD59
:10BFF00090979E998C8B8285A8AFA6A1B4B3BABD49
:10C00000C7C0C9CEDBDCD5D2FFF8F1F6E3E4EDEA38
:10C01000B7B0B9BEABACA5A28F88818693949D9A28
:10C020002720292E3B3C35321F18111603040D0A18
:10C030005750595E4B4C45426F68616673747D7A08
:10C04000898E878095929B9CB1B6BFB8ADAAA3A4F8
:10C05000F9FEF7F0E5E2EBECC1C6CFC8DDDAD3D4E8
:10C06000696E676075727B7C51565F584D4A4344D8
:10C07000191E171005020B0C21262F283D3A3334C8
:10C080004E49404752555C5B7671787F6A6D6463B8
:10C090003E39303722252C2B0601080F1A1D1413A8
:10C0A000AEA9A0A7B2B5BCBB9691989F8A8D848398
:10C0B000DED9D0D7C2C5CCCBE6E1E8EFFAFDF4F388
:10C0C000203A20256400203A202569006D63755FC1
:10C0D00063616E5472616E736D69744D63616C005F
:10C0E0000A0000000001000007000000040000003A
:10C0F0000100000002000000010000000700000035
:10C100000400000001000000020000000100000027
:10C11000000000000000000000000000092E2E2E8C
:10C12000004944202558006D63755F464443414EE5
:10C130005F49545F43616C6C6261636B0000000097
:10C1400000000000000000000000000000093D00A9
:10C1500000093D0040420F0000093D0000093D007C
:10C1600040420F0000093D0000093D0040420F0021
:10C1700000000000000000000000000000000000BF
:10C18000000000000000000000093D0000093D0023
:10C1900040420F000000000000000000000000000E
:10C1A00000B4C404006CDC02B0F3960100B4C40413
:10C1B000006CDC02B0F3960100B4C404006CDC0235
:10C1C000B0F3960100000000000000000000000035
:10C1D00000000000000000000000000000B4C404E3
:10C1E000005A6202B0F39601000000000000000057
:10C1F000000000000000000000000000000000003F
:10C2000000000000004141414141000000000000E9
:10C2100000202020202020202020004040008000FE
:10C2200048480030303030303630300000000000F8
:10C2300000000000000000000000000000000000FE
:10C2400000000000000000000000000000000000EE
:10C2500000000000000000000000000000000000DE
:10C2600000000000000000000000000000000000CE
:10C2700000000000000000000000000000000000BE
:10C2800073003200210049004A004B004C004D0071
:10C290003D000000240036000000200000003800AF
:10C2A000390000003B005A00660037002C004000B7
:10C2B0006A006B00000000000C10141820304000D1
:10C2C0000102030405060708090909090A0A0A0AFE
:10C2D0000B0B0B0B0C0C0C0C0D0D0D0D0D0D0D0D9A
:10C2E0000E0E0E0E0E0E0E0E0E0E0E0E0E0E0E0E6E
:10C2F0000F0F0F0F0F0F0F0F0F0F0F0F0F0F0F0F4E
:10C300000A0B0C0D3C00000000A00540008003401B
:10C31000009003402D2C00000100000002000000EE
:10C3200004000000080000001000000020000000D1
:10C330004000000080000000536574757020446F59
:10C340006E650049440066637454657374436F649A
:10C3500065005465726D696E616C005254540053EF
:10C360004547474552000000B6A70000E6A600007A
:10C37000FEA600001CA70000FEA6000060A70000AB
:10C38000FEA600001CA70000E6A60000E6A600002E
:10C3900060A700001CA7000006A7000006A7000079
:10C3A00006A700006AA70000E6A60000E6A60000B7
:10C3B000FEA60000F4A70000FEA6000060A7000093
:10C3C000FEA60000F4A70000E6A60000E6A6000016
:10C3D00060A70000F4A7000006A7000006A7000061
:10C3E00006A7000038B100002AB1000008B1000023
:10C3F00034B1000008B100001EB4000008B1000014
:10C4000034B100002AB100002AB100001EB40000BF
:10C4100034B10000F0B00000F0B00000F0B0000057
:0CC4200090B40000F8B5C046F8B5C04666
:10C42C0009000000C8FDFF1F01010101000100000F
:10C43C00000000000000000000366E010001000347
:10C44C0002020000000100000000000000000000DB
:10C45C0000000000000000000000000000000101CE
:10C46C0000010300010200000000000100000000B8
:10C47C0001000001010000000100000000000000AC
:10C48C000000000000000000010101010101010198
:10C49C00000000001100000040FEFF1F0101000021
:10C4AC003B010100002B0100000033010000003CA7
:10C4BC0001010000380101000039010100003D01BB
:10C4CC000100003E010100003F010200004001019B
:10C4DC000000410101000042010100002C0100009C
:10C4EC00002D010000002E010000002F01000000B3
:10C4FC00300100000000000008000000A0860100D0
:10C50C00FFFF010000000000000000000000000020
:10C51C0000000000A0860100FFFF010000000000E9
:10C52C0000000000000000000100000000000000FE
:10C53C0000C00440010000000000000100000000E9
:10C54C00C0F00F400100000000D0044005000000C6
:10C55C0000000005000000000000000000000000CA
:10C56C0000D00440040000000000000500000000A2
:10C57C00000000000000000000C00440100000009B
:10C58C00000000040000000000000000000000009B
:10C59C0000C004400F000000000000040000000078
:10C5AC00000000000000000000D004400900000062
:10C5BC00000000010000000000F10F40010000002D
:10C5CC0000D0044008000000000000010000000042
:10C5DC0000F10F400100000000A004400500000025
:10C5EC00000000040000000000000000000000003B
:10C5FC0000A0044004000000000000030000000044
:10C60C00000000000000000000B004400300000027
:10C61C00000000010000000080F00F40010000004D
:10C62C0000B0044002000000000000010000000007
:10C63C0080F00F400101000000C004400500000024
:10C64C000000000100000000C0F00F4001000000DD
:10C65C0000B00440010000000000000100000000D8
:10C66C0080F00F400100000000B004400E000000FC
:10C67C00000000010000000080F00F4001000000ED
:10C68C0000B0044010000000000000010000000099
:10C69C0080F00F400100000000B004400F000000CB
:10C6AC00000000010000000080F00F4000000000BE
:10C6BC0000A0044002000000000000010000000087
:10C6CC0040F00F400100000000A0044001000000F9
:10C6DC00000000010000000040F00F4000000000CE
:10C6EC0000A0044000000000000000010000000059
:10C6FC0040F00F400000000000B0044009000000B2
:10C70C00000000010000000080F00F40000000005D
:10C71C0000B0044008000000000000010000000010
:10C72C0080F00F4001000000009004400700000062
:10C73C00000000010000000000F00F4001000000AC
:10C74C0000A004400D0000000000000100000000EB
:10C75C0040F00F400100000000C004400300000046
:10C76C0000000005000000000000000000000000B8
:10C77C0000C00440020000000000000500000000A2
:10C78C0000000000000000000090044003000000C6
:10C79C00000000030000000000000000000000008A
:10C7AC0000900440020000000000000300000000A4
:10C7BC000000000000000000009004400D0000008C
:10C7CC00000000020000000000000000000000005B
:10C7DC00009004400C00000000000001000000006C
:10C7EC0000F00F4001000000009004400B0000001E
:10C7FC00000000010000000000F00F4001000000EC
:10C80C0000B0044007000000000000010000000020
:10C81C0080F00F400100000000B004400600000052
:10C82C00000000010000000080F00F40010000003B
:10C83C000024F40008000001000001FFFF000000CC
:10C84C000000000000000000000000003B0102009E
:10C85C000029010000002A010000002B010000004B
:10C86C0033010000003C01020000360100000038DA
:10C87C000102000039010200003D010200003E01EE
:10C88C000200003F010200004001020000410102D1
:10C89C000000420102000034010000002C010000E5
:10C8AC00002D010000002E010000002F01000000EF
:10C8BC00300100000031010000001A0000C00240ED
:04C8CC000200000066
:10C8D0000000000000000000000000000000000058
:10C8E0000000000000000000000000000000000048
:10C8F0000000000000000000000000000000000038
:10C900000000000000000000000000000000000027
:10C910000000000000000000000000000000000017
:10C920000000000000000000000000000000000007
:10C9300000000000000000000000000000000000F7
:10C9400000000000000000000000000000000000E7
:10C9500000000000000000000000000000000000D7
:10C9600000000000000000000000000000000000C7
:08C970000000000000000000BF
:0400000300000411E4
:00000001FF
