:020000040800F2
:1000000000400220FD1B0008591B0008611B00086E
:1000100000000000000000000000000000000000E0
:100020000000000000000000000000009D1B000810
:100030000000000000000000A71B0008B11B000822
:100040004D1C00084D1C00084D1C00084D1C0008EC
:100050004D1C00084D1C00084D1C00084D1C0008DC
:100060004D1C00084D1C00084D1C00084D1C0008CC
:100070004D1C00084D1C00084D1C00084D1C0008BC
:100080004D1C00084D1C00084D1C00084D1C0008AC
:100090004D1C0008C11B0008D91B00084D1C00089E
:1000A0004D1C00084D1C00084D1C00084D1C00088C
:0C00B0004D1C00084D1C00084D1C0008F1
:1000C00010B5064C2378002B07D1054B002B02D02E
:1000D000044800E000BF0123237010BD2C01002064
:1000E00000000000F4440008044B10B5002B03D0BE
:1000F0000349044800E000BF10BDC04600000000F6
:1001000030010020F4440008002243088B4274D3DD
:1001100003098B425FD3030A8B4244D3030B8B4208
:1001200028D3030C8B420DD3FF22090212BA030C11
:100130008B4202D31212090265D0030B8B4219D3F2
:1001400000E0090AC30B8B4201D3CB03C01A524112
:10015000830B8B4201D38B03C01A5241430B8B425A
:1001600001D34B03C01A5241030B8B4201D30B0343
:10017000C01A5241C30A8B4201D3CB02C01A52416A
:10018000830A8B4201D38B02C01A5241430A8B422D
:1001900001D34B02C01A5241030A8B4201D30B0216
:1001A000C01A5241CDD2C3098B4201D3CB01C01A30
:1001B000524183098B4201D38B01C01A524143093A
:1001C0008B4201D34B01C01A524103098B4201D328
:1001D0000B01C01A5241C3088B4201D3CB00C01A95
:1001E000524183088B4201D38B00C01A524143080D
:1001F0008B4201D34B00C01A5241411A00D2014632
:10020000524110467047FFE701B5002000F006F8A4
:1002100002BDC0460029F7D076E770477047C04658
:1002200080B500AF01F0E6F8C046BD4680BD0000D5
:1002300080B582B000AFFB1D00221A70BB1D0122E9
:100240001A70194A19491A48142301F093F9030046
:100250001A00BB1D1A70BB1D1B78002B1CD1154B3F
:100260005A687B1D1A70134B5A68134B5A607B1DDA
:100270001B78162B10D10D4B180000F061F903000C
:10028000012B09D10B4B1B7C072B05D1FB1D012238
:100290001A70792000F0D4F800F082FAFB1D1B7868
:1002A0001800BD4602B080BD580300205003002056
:1002B0004C030020480300200000002090B585B0CA
:1002C00000AF0F23FB18FF221A700E23FB18012228
:1002D0001A700023BB6012E0244A254925480A23EE
:1002E00001F048F903001A000E23FB181A70BB68CE
:1002F0000133BB60BB68642B01DD0023BB600E24AF
:100300003B191B78002BE7D100F04AFA3B191B7808
:10031000002B23D1184B5A680F23FB181A70164B69
:100320005A68164B5A60FB1D00221A70FB1D0022F2
:100330001A700DE0FB1D1A78FB1D1B780E498A18F8
:10034000117A0F4AD154FB1D1A78FB1D01321A7025
:10035000094B1B7CFA1D12789A42EBD30F23FB1832
:100360001B781800BD4605B090BDC046580300205C
:10037000500300204C030020480300200000002010
:100380004802002080B586B000AFF860B9607A609E
:100390001223FB1800221A70254B00225A600023FA
:1003A0007B61244A244925480A2301F0E3F8031E0F
:1003B00004D11F4B5B687A689A4208D07B6901338D
:1003C0007B617B69642BECDD00237B61E9E7C04640
:1003D00012217B1800221A707B181B78002B22D167
:1003E000134B5B687A689A421DD113217B18002257
:1003F0001A707B1800221A700FE013203B181A782D
:100400003B181B78F968CB1809498A18127A1A70B8
:100410003B181A783B1801321A701323FB181B780B
:10042000BA689A42E9D8C046BD4606B080BDC0460B
:100430004803002058030020500300204C030020F4
:1004400080B584B000AF0200FB1D1A701B4B012267
:100450001A741A4B5B6820331A00184B5A600F232A
:10046000FB1801221A700023BB6017E0BB68013340
:10047000BB60BB68642B01DD0023BB6000F090F91A
:100480000E4B58680D4B1B7C1A00FB1D190000F029
:10049000F7FF03001A000F23FB181A700F23FB1835
:1004A0001B78002BE2D1054B5B68203B1A00034B05
:1004B0005A60C046BD4604B080BDC0460000002062
:1004C00080B584B000AF786039603B68DAB21B4B0E
:1004D0001A741A4B5B6820331A00184B5A600F23AA
:1004E000FB1801221A700023BB6017E0BB680133C0
:1004F000BB60BB68642B01DD0023BB6000F050F9DA
:100500000E4B58680D4B1B7C1A007B68190000F0DD
:10051000B7FF03001A000F23FB181A700F23FB18F4
:100520001B78002BE2D1054B5B68203B1A00034B84
:100530005A60C046BD4604B080BDC04600000020E1
:1005400080B582B000AF78607B681B78562B1FD1D6
:100550007B6801331B78452B1AD17B6802331B78EB
:10056000432B15D17B6803331B78432B10D17B6859
:1005700004331B78482B0BD17B6805331B78472B42
:1005800006D17B6806331B78542B01D1012300E090
:1005900000231800BD4602B080BD000090B585B0B4
:1005A00000AF7860114B1B78002B0DD101F084F85F
:1005B00003001A000F217B181A707B181B78002B80
:1005C00002D10A4B01221A700C217B1800221A80DA
:1005D0000C0079187B680122180001F0BAF83B1969
:1005E0001B88DBB21800BD4605B090BD5C0300203F
:1005F00080B586B000AFF860B9607A600E4B1B78AA
:10060000002B0DD101F058F803001A0017217B18B8
:100610001A707B181B78002B02D1074B01221A702D
:1006200000F0BEF87A68B968FB68180001F04AF873
:10063000C046BD4606B080BD5C03002080B582B0D8
:1006400000AF104B180000F05BFD03007B607B687F
:10065000012B01D0002311E00A4B1B68013301D1AB
:1006600000230BE0074B1B68E02212069A18902328
:100670009902002391425B41DBB25BB21800BD4698
:1006800002B080BD0058000880B582B000AF78602D
:100690007B68180001F0BAF8C046BD4602B080BDC4
:1006A00080B58AB000AF78603960384B1B78002B7A
:1006B0000DD101F001F803001A001B217B181A70FC
:1006C0007B181B78002B02D1304B01221A70272394
:1006D000FB1800221A7000233B6200237B61002379
:1006E000FB610023FB607B681B887B617B680233B6
:1006F0007B6000233B622CE000F052F87B681B78A3
:10070000FB60FB680A2B03D82723FB1801221A7011
:100710002723FB181B78012B11D00C23FB18180082
:1007200001F02FF803001A0013217B181A707B18B0
:100730001B78002B07D0FB690133FB6103E0272303
:10074000FB1800221A707B6801337B603B6A01331F
:100750003B623A6A7B699A4204D23B685B083A6A18
:100760009A42C9D3FB69002B04D02723FB1801222E
:100770001A7003E02723FB1800221A702723FB18A6
:100780001B781800BD460AB080BDC0465C0300203F
:1007900080B500AF01F00EF9C046BD4680BD000037
:1007A00080B500AF054B180002F078FE031E01D0A3
:1007B00000F01AFEC046BD4680BDC04610040020B1
:1007C00080B500AFC046BD4680BD000080B500AF1B
:1007D000BFF34F8FC046044B044ADA60BFF34F8F1C
:1007E000C046C046FDE7C04600ED00E00400FA0543
:1007F00080B500AFFFF7E4FF01F04AF8FFF7C8FF4C
:100800000A4B0B4A1A6000F0A9F90200074B5A6024
:10081000064B180000F092F800F06CF8054B180039
:1008200000F0FEFBC046BD4680BDC0466003002010
:10083000400000201400002080B584B000AF01F01B
:10084000AFFA03007B600023FB60FB1C00221A70E0
:10085000204B4021180001F023F80CE000F0A0F834
:1008600002001D4B1A60FB680133FB60FB68052B1F
:1008700001DD0023FB60184B1B68002B08D101F041
:100880008FFA02007B68D21AC8235B009A42E5D334
:10089000114B1B68012B0FD17920FFF7D1FD0023ED
:1008A000BB6000F0B5F8BB680133BB60BB68642B6C
:1008B000F7DD0023BB60F4E7FFF7C0FE031E06D0A0
:1008C000642001F077FA054B1800FFF7DDFEFFF713
:1008D0007DFFC04600080050680300200058000853
:1008E00080B500AFFFF784FFFFF7A6FFC046BD4607
:1008F00080BD000080B582B000AF00237B600FE0B8
:100900000C4B7A68D200D3581B68002B05D0094BDA
:100910007A68D200D3581B6898477B6801337B60A4
:10092000054B1B687A689A42EAD3C046C046BD466A
:1009300002B080BD700300206C03002080B584B03D
:1009400000AF78600F23FB1800221A70124B1B684F
:10095000002B15D1104B1A687B6819680F4BD20019
:10096000D1500D4B18687B685A680C49C300CB18EE
:1009700004331A60084B1B685A1C074B1A6003E0CB
:100980000F23FB1801221A700F23FB181B78180085
:10099000BD4604B080BDC0466C030020700300203B
:1009A00090B583B000AFFB1C00221A7000237B605F
:1009B0001DE0144B7A68D200D3589B68002B13D0EB
:1009C000104B7A68D200D3589B68FC1C98470300F0
:1009D0002370FB1C1B78012B06D17B68DA00094BC6
:1009E000D218094B1A6007E07B6801337B60074B24
:1009F0001B687A689A42DCD3FB1C1B781800BD4642
:100A000003B090BD70030020780300206C03002029
:100A100090B583B000AF4F4B1B681B68DB68002BA1
:100A200000D180E04B4B1B681B68DB68FC1D9847BE
:100A300003002370FB1D1B78103B072B66D89A0020
:100A4000454BD3181B689F46424B1B685B681B686D
:100A5000002B00D169E03F4B1B685B681B6898471F
:100A600063E03C4B1B685B685B68002B5FD0394BD5
:100A70001B685B685B68984759E0364B1B685B688E
:100A80009B68002B55D0334B1B685B689B6898476D
:100A90004FE0304B1B685B68DB68002B4BD02D4B65
:100AA0001B685B68DB68984745E02A4B1B685B68FE
:100AB0001B69002B41D0274B1B685B681B6998475B
:100AC0003BE0244B1B685B681B6A002B37D0214B33
:100AD0001B685B681B6A984731E01E4B1B681B68EC
:100AE0001B69002B2DD01B4B1B681B681B697920D1
:100AF000984726E0174B1B685B685B69002B22D088
:100B0000144B1B685B685B6998471CE0114B1B68C2
:100B10001B681B69002B18D00E4B1B681B681B69D8
:100B20001F20984711E0C04610E0C0460EE0C046C6
:100B30000CE0C0460AE0C04608E0C04606E0C046F9
:100B400004E0C04602E0C04600E0C046C046BD46E4
:100B500003B090BD780300202845000880B500AFA1
:100B6000014B1800BD4680BD5400002080B584B004
:100B700000AF3B1D114A03CA03C37920FFF760FC95
:100B80000820FFF75DFC2220FFF75AFC0023FB60E2
:100B900009E03A1DFB68D3181B781800FFF750FCDA
:100BA000FB680133FB60FB68072BF2D97920FFF764
:100BB00047FCC046BD4604B080BDC0462045000885
:100BC00080B500AF7920FFF73BFC2220FFF738FC0F
:100BD000094B00221A70084B00225A7080239A0297
:100BE000054B11001800FFF76BFC7920FFF728FC7C
:100BF000C046BD4680BDC0464801002080B500AF5C
:100C00007920FFF71DFC094B34221A70074B37225D
:100C10005A7080239A02054B11001800FFF750FC10
:100C20007920FFF70DFCC046BD4680BD480100207D
:100C3000B0B588B000AF00F02BFB031E03D01F201F
:100C4000FFF7FEFB99E03B1D180000F0BBF9030025
:100C50001F2B03D11F20FFF7F3FB8EE07920FFF756
:100C6000EFFB484B1B7901333B613B69DB08BB6100
:100C70003B6907221340FB607B68180000F078FA9C
:100C80000300BB602BE01723FB1800221A70082317
:100C9000FB6117E07A6817257B191C78BB6819007F
:100CA000100000F091FA03001A00374B1A557B1917
:100CB0001A787B1901321A707B6801337B60FB69FB
:100CC000013BFB61FB69002BE4D180231A032E4B0F
:100CD00011001800FFF7F4FBBB69013BBB61BB6966
:100CE000002BD0D1FB68002B44D01723FB18002227
:100CF0001A70FB68FB6117E07A6817257B191C786E
:100D0000BB681900100000F05FFA03001A001E4BC8
:100D10001A557B191A787B1901321A707B680133D6
:100D20007B60FB69013BFB61FB69002BE4D1FB6845
:100D30000822D31AFB610DE017203B181B78124ADA
:100D4000FF21D1543B181A783B1801321A70FB6905
:100D5000013BFB61FB69002BEED180231A030A4B98
:100D600011001800FFF7ACFB074B08220021180008
:100D700003F0B7FB7920FFF763FBC046BD4608B020
:100D8000B0BDC046480200204801002090B587B0A1
:100D900000AF00F07DFA031E03D01F20FFF750FBC9
:100DA00052E03B1D180000F00DF903001F2B03D18A
:100DB0001F20FFF745FB47E07920FFF741FB244B5D
:100DC0001B7901333B613B69DB08FB603B69072210
:100DD0001340BB601723FB1800221A70FB68002B1E
:100DE00019D012E017243B191B78DA00184BD318DE
:100DF000142208211800FFF7C5FA7920FFF720FB1D
:100E00003B191A783B1901321A701723FB181B780B
:100E1000FA689A42E6D1BB68002B0CD03A69BB68ED
:100E2000D21A0B4BD318142208211800FFF7AAFA84
:100E30007920FFF705FB7B683A690549180000F047
:100E4000F9F97920FFF7FCFAC046BD4607B090BD1E
:100E50004802002080B582B000AF00F019FA031EEE
:100E600003D01F20FFF7ECFA21E07920FFF7E8FA22
:100E70003B00180000F0A6F803001F2B03D11F2031
:100E8000FFF7DEFA13E03B68180000F039F90300C1
:100E90007B607B68012B03D01F20FFF7D1FA06E0AF
:100EA0007920FFF7CDFA3B68180000F0FDF9C04645
:100EB000BD4602B080BD000090B587B000AF1723DB
:100EC000FB1879221A7000F0E3F9031E03D01F20EB
:100ED000FFF7B6FA6DE07920FFF7B2FA374B1B78CF
:100EE0009AB20E203B1812021A80344B5B7899B2EA
:100EF0003B183A1812880A431A8001007B181B8895
:100F0000DAB22E4B1A707B181B881B0A9BB2DAB21E
:100F10002A4B5A707B181B88DB089BB2BB607B187E
:100F20001B88072213407B6000233B61BB68002BBA
:100F300014D00FE03B69DB009A1C204BD31817221A
:100F400008211800FFF71EFA7920FFF779FA3B69AC
:100F500001333B613A69BB689A42EBD17B68002B55
:100F60000FD00E23FB181A887B68D31A9A1C134BD8
:100F7000D318172208211800FFF704FA7920FFF789
:100F80005FFAFC1C80235A000C4B0D48190000F03E
:100F900097F903002370FB1C1B78002B03D1172348
:100FA000FB1879221A701723FB181B781800FFF71B
:100FB00047FAC046BD4607B090BDC0464802002073
:100FC0000058000880B584B000AF7860134B1B78E0
:100FD0001A06124B5B781B041A43104B9B781B02BA
:100FE00013430E4AD2781A437B681A607B681B68E9
:100FF000180000F085F8031E04D10F23FB181F22F0
:101000001A7003E00F23FB1879221A700F23FB18C4
:101010001B781800BD4604B080BDC04648020020C1
:1010200080B584B000AF78600F23FB1800221A70DF
:10103000314B1B68002B53D12F4B1A687B68196802
:101040002E4B2C204243D1502B4B18687B685A689A
:101050002A492C234343CB1804331A60264B1868C3
:101060007B689A6825492C234343CB1808331A60C0
:10107000214B18687B68DA6820492C234343CB183E
:101080000C331A601C4B18687B681A691B492C23A7
:101090004343CB1810331A60174B18687B685A69A2
:1010A00016492C234343CB1814331A60124B18688B
:1010B0007B681A6A11492C234343CB1820331A60EA
:1010C0000D4B18687B689A6A0C492C234343CB1854
:1010D00028331A60084B1B685A1C074B1A6003E040
:1010E0000F23FB1801221A700F23FB181B7818001E
:1010F000BD4604B080BDC0467C03002080030020B4
:1011000080B584B000AF78600023FB600023BB6033
:101110001FE0154BBA682C214A43D3587A689A428B
:1011200012D3114ABB682C214B43D31804331B68DC
:101130007A689A4208D80C4ABB682C214B43D318D2
:101140000C331B68FB6009E00023FB60BB680133C4
:10115000BB60064B1B68BA689A42DAD3FB6818007A
:10116000BD4604B080BDC046800300207C03002043
:1011700080B584B000AF78600023FB6014E0104BB2
:10118000FA682C214A43D3587A689A4209D30C4A08
:10119000FB682C214B43D31804331B687A689A42AE
:1011A00008D9FB680133FB60064B1B68FA689A425A
:1011B000E5D300E0C046FB681800BD4604B080BD22
:1011C000800300207C03002090B585B000AF7860DC
:1011D0003960164B1B683A689A421CD2144A3B6825
:1011E0002C214B43D31810331B68002B0ED0104A10
:1011F0003B682C214B43D31810331B680F22BC18BB
:101200007A68100098470300237008E00F23FB184A
:1012100000221A7003E00F23FB1800221A700F231C
:10122000FB181B781800BD4605B090BD7C0300205C
:101230008003002080B586B000AFF860B9607A60A6
:10124000FB681800FFF794FF03007B610E4B1B68DF
:101250007A699A4213D20D4A7B692C214B43D318E9
:1012600014331B68002B0AD0084A7B692C214B439E
:10127000D31814331B687A68B968F8689847C04671
:10128000BD4606B080BDC0467C0300208003002020
:1012900080B582B000AFFB1D00221A70FB1D1B78C9
:1012A0001800BD4602B080BD80B582B000AF786046
:1012B0007B681800FFF7E8F9C046BD4602B080BD64
:1012C00090B587B000AFF860B9607A60FB6818002D
:1012D000FFF74EFF03003B61164B1B683A699A42C9
:1012E0001DD2154A3B692C214B43D31828331B6868
:1012F000002B0FD0104A3B692C214B43D3182833C5
:101300001B681722BC187968BA6810009847030058
:10131000237008E01723FB1801221A7003E017233B
:10132000FB1801221A701723FB181B781800BD4602
:1013300007B090BD7C0300208003002080B500AF83
:10134000FFF7CEFA00231800BD4680BD80B500AF80
:1013500000F07EFC00F003F8FFF7F0FFFEE790B529
:1013600095B000AF14243B1918003C231A0000214B
:1013700003F0B7F83B1D180010231A00002103F0FA
:10138000B0F880239B00180002F098F83B1909225E
:101390001A603B19802252025A603B1901229A615D
:1013A0003B1900221A623B19180002F043F9031E90
:1013B00001D000F019F83B1D07221A603B1D0122E5
:1013C0005A603B1D00229A603B1D0022DA603B1DE3
:1013D0000021180002F092FC031E01D000F004F876
:1013E000C046BD4615B090BD80B500AF72B6C046D0
:1013F000FEE7000080B588B002AF00F015F93B00B1
:1014000000221A603B0000225A603B0000229A60D2
:101410003B000122DA603B0010221A613B001722D8
:101420005A613A00154B1100180000F02BFF031E03
:1014300001D0FFF7D9FF11480023009300230222B7
:10144000022100F07CFF031E01D0FFF7CDFF0B4B04
:10145000180000F0A4FF031E04D0FFF7C5FF01230E
:101460005B4206E0054B00220121180001F010F953
:1014700000231800BD4606B080BDC046AC03002066
:1014800090B58FB000AFF860B9607A6014243B1952
:1014900024220021180003F024F821007B18FA68A8
:1014A0001A60FA6880231B019A4204D37B188022B9
:1014B000D2055A6003E01423FB1800225A607B68AF
:1014C000012B05D11423FB1880225202DA6004E0BC
:1014D0001423FB1880221203DA6014217B180022E7
:1014E0009A607B18802212061A617B1800225A61CA
:1014F0007B1800229A617B180022DA617B18002297
:101500001A621A4ACC230021D150184AD023002154
:10151000D150C046164B180001F0AAF8031EF9D0AE
:10152000BA681423F918124B180000F05EFF031E6E
:1015300015D1C0460E4B1B681A6D80239B001A40C4
:1015400080239B009A42F5D1094B1B68196D084B0B
:101550001B68802292000A401A65002301E00123E3
:101560005B421800BD460FB090BDC046006400400D
:10157000AC03002080B590B000AFF860B9607A602D
:101580001A00FB1C1A701023FB18282200211800D7
:1015900002F0A7FF00F004FC0300FB6332E0204BE5
:1015A0004021180001F048F80300BB63BB6B002B1F
:1015B00025DDBB681022BA181948402100F05AFFF7
:1015C000031E02D001235B4226E010217B181A681B
:1015D000FB681A607B18DB681B0CDAB27B681A7038
:1015E0000023FB630F4B180001F058FF80239A0083
:1015F000A023DB051100180000F052F902E00123DE
:101600005B4209E000F0CCFB0200FB6BD21AFB1C32
:101610001B789A42C3D300231800BD4610B080BD8A
:10162000AC0300201004002080B500AF204B214AFD
:101630001A601F4B00225A601D4B00229A601C4BFF
:101640000022DA601A4B00221A74194B00225A74D5
:10165000174B00229A74164B03225A61144B012235
:101660009A61134B0D22DA61114B02221A62104B60
:1016700001225A620E4B03229A620D4B0422DA6257
:101680000B4B03221A630A4B01225A63084B0022B8
:101690009A63074B0022DA63054B180000F08CFCBC
:1016A000031E01D0FFF7A0FEC046BD4680BDC04668
:1016B000AC0300200064004080B500AF0023180098
:1016C000BD4680BDB0B586B000AFF860B9607A6045
:1016D0001723FB1800221A707B680722134004D0DE
:1016E0007B680722934308337B6001F083FB72B66B
:1016F000C04600233B6115E0FA683B69D118BA681F
:101700003B69D3181A685B6817257C19012001F022
:1017100023FB030023707B191B78002B07D13B6947
:1017200008333B613A697B689A42E5D300E0C046E2
:1017300062B6C04601F082FB1723FB181B78002B12
:1017400001D1002301E001235B421800BD4606B031
:10175000B0BD80B584B000AFF860B960BB1D1A8021
:1017600072B6C046F968BB1D1B885A00BB681800DA
:1017700002F0AEFE62B6C04600231800BD4604B0BB
:1017800080BDB0B58AB000AF786001F033FB7B68F4
:101790001B687B6210217B1802221A607B180422CE
:1017A0005A607B187A6A9A607B180122DA600023FB
:1017B000FB6023257C190C23FA187B1811001800F4
:1017C00001F0C6FB0300237001F038FB7B191B7886
:1017D000002B01D1002301E001235B421800BD462C
:1017E0000AB0B0BD80B500AF074BDA6A064B802166
:1017F00049010A43DA62044B5A6A034B01210A4346
:101800005A62C046BD4680BD0010024080B586B019
:1018100000AF78607B6804331B687B617B693B6148
:10182000FFF7E0FF154B9A6B144B15490A409A637A
:10183000124B1A6C114B01218A431A640F4BDA6B5D
:101840000E4B10490A40DA6301F078FE00F020FAEE
:101850000D4B00221A600C4B00225A600A4B0022EA
:101860009A600A4B7A689A607B681B68FB60FB6829
:1018700083F30888C0463B699847FEE700100240A2
:10188000FFFEFFFFFFFFFFEF10E000E000ED00E0D4
:1018900080B500AF00F016F800231800BD4680BDEB
:1018A00080B582B000AF78600A00BB1C1A80BB1CF8
:1018B0001A887B681100180001F083FDC046BD4600
:1018C00002B080BD90B58BB000AF14243B19180056
:1018D00014231A00002102F004FE344B5A6B334BE0
:1018E00020210A435A63314B5B6B202213403B613A
:1018F0003B692E4B5A6B2D4B01210A435A632B4BEC
:101900005B6B01221340FB60FB68284B5A6B274B33
:1019100004210A435A63254B5B6B04221340BB60CE
:10192000BB68224B5A6B214B02210A435A631F4B5F
:101930005B6B022213407B607B6880239900A023AD
:10194000DB050022180001F01FFD194B0022402189
:10195000180001F019FD3B19802292001A603B1912
:1019600001225A603B1900229A603B190022DA607A
:101970003A19A023DB051100180001F099FB2100A2
:101980007B1840221A607B1801225A607B180022C3
:101990009A607B180022DA607B18054A1900100053
:1019A00001F086FBC046BD460BB090BD0010024062
:1019B0000008005080B500AF00F004F800231800C4
:1019C000BD4680BD80B500AF0B4B0C4A1A600A4B78
:1019D00005225A60084B0A4ADA60074B084A9A60A7
:1019E000054B180001F008FD031E01D0FFF7FCFCB9
:1019F000C046BD4680BDC0461004002000300040F7
:101A0000C309000080B582B000AF0F4B1A6C0E4BBB
:101A100001210A431A640C4B1B6C012213407B60AA
:101A20007B68094BDA6B084B802149050A43DA636E
:101A3000054BDA6B80235B0513403B603B68C04677
:101A4000BD4602B080BDC0460010024090B59DB0BA
:101A500000AF78605C23FB18180014231A000021E3
:101A600002F03FFD10243B1918004C231A000021FE
:101A700002F037FD7B681B682B4A934250D13B191B
:101A8000802292041A603B19802292009A643B19CA
:101A9000180002F0BDFA031E01D0FFF7A5FC234B8E
:101AA000DA6B224B802149010A43DA631F4BDA6B60
:101AB00080235B011340FB60FB681C4B5A6B1B4B84
:101AC00002210A435A63194B5B6B02221340BB602D
:101AD000BB685C217B18C02292001A607B1802222E
:101AE0005A607B1800229A607B180022DA607B180B
:101AF00003221A617B180E4A1900100001F0D8FA6F
:101B000000220221152000F025FA152000F037FAF6
:101B100000220221162000F01DFA162000F02FFAF4
:101B2000C046BD461DB090BD00640040001002409C
:101B30000004005080B500AFBFF34F8FC046044B88
:101B4000044ADA60BFF34F8FC046C046FDE7C04687
:101B500000ED00E00400FA0580B500AFFEE70000EC
:101B600080B582B000AFC046C04600237B600A2328
:101B70003B600BE07B6801337B607B68064A9342E5
:101B800004DD3B68013B3B6000237B603B68002B2E
:101B9000F0DCFFF7CFFFC04640420F0080B500AF3A
:101BA000C046BD4680BD80B500AFC046BD4680BDC5
:101BB00080B500AF00F0E2F8C046BD4680BD000031
:101BC00080B500AF034B180000F038FEC046BD469C
:101BD00080BDC046AC03002080B500AF034B1800A9
:101BE00000F02CFEC046BD4680BDC046AC030020C0
:101BF00080B500AFC046BD4680BD00000D4885469B
:101C0000FFF7F6FF0C480D490D4A002302E0D458B7
:101C1000C4500433C4188C42F9D30A4A0A4C002336
:101C200001E013600432A242FBD302F02DFCFFF767
:101C30008DFBFEE700400220000000202C01002068
:101C4000A04500082C01002040040020FEE7000011
:101C500080B582B000AFFB1D00221A700B4B1A68D2
:101C60000A4B802149000A431A60032000F03CF827
:101C7000031E03D0FB1D01221A7001E0FFF7C2FE14
:101C8000FB1D1B781800BD4602B080BD002002403D
:101C900080B500AF104B01225242DA620E4B002297
:101CA000DA620D4B012252421A630B4B00221A6377
:101CB000094B012252429A62074B00229A62064B5C
:101CC000012252425A62044B00225A6200F006F886
:101CD00000231800BD4680BD0010024080B500AF53
:101CE000C046BD4680BD000090B585B000AF7860AD
:101CF0000F23FB1800221A701D4B1B78002B2BD0D2
:101D00001C4B1C681A4B1B781900FA239800FEF72D
:101D1000FBF9030019002000FEF7F6F90300180094
:101D200000F03DF9031E12D17B68032B0AD87968B5
:101D300001235B420022180000F00CF90E4B7A6878
:101D40001A600DE00F23FB1801221A7008E00F2320
:101D5000FB1801221A7003E00F23FB1801221A70EE
:101D60000F23FB181B781800BD4605B090BDC04678
:101D7000A0000020980000209C00002080B500AF4B
:101D8000054B1B781A00054B1B68D218034B1A60D1
:101D9000C046BD4680BDC046A000002020040020F3
:101DA00080B500AF024B1B681800BD4680BDC04621
:101DB0002004002080B584B000AF7860FFF7F0FF0A
:101DC0000300BB607B68FB60FB68013305D00A4BF6
:101DD0001B781A00FB689B18FB60C046FFF7E0FF0A
:101DE0000200BB68D31AFA689A42F7D8C046C046C8
:101DF000BD4604B080BDC046A000002080B582B0C2
:101E000000AF0200FB1D1A70FB1D1B787F2B09D849
:101E1000FB1D1B781A001F231A40044B012191401F
:101E20000A001A60C046BD4602B080BD00E100E075
:101E300090B583B000AF02003960FB1D1A70FB1D26
:101E40001B787F2B28D82F4AFB1D1B785BB29B0881
:101E5000C0339B009B58FA1D1278110003220A40E0
:101E6000D200FF2191400A00D2431A4011003B6882
:101E70009B01FF221A40FB1D1B781800032303401F
:101E8000DB009A401F48FB1D1B785BB29B080A438E
:101E9000C0339B001A5031E01B4AFB1D1B78190010
:101EA0000F230B40083B9B0806339B00D3180433D9
:101EB0001B68FA1D1278110003220A40D200FF218C
:101EC00091400A00D2431A4011003B689B01FF2257
:101ED0001A40FB1D1B78180003230340DB009A40C7
:101EE0000948FB1D1B781C000F232340083B9B085F
:101EF0000A4306339B00C31804331A60C046BD462C
:101F000003B090BD00E100E000ED00E080B582B0DC
:101F100000AF78607B685A1E80235B049A4201D32D
:101F2000012310E00A4B7A68013A5A6001235B42B0
:101F300003211800FFF77CFF054B00229A60044B39
:101F400007221A6000231800BD4602B080BDC046BB
:101F500010E000E080B584B000AFB9607A600F2176
:101F60007B18021C1A70BA687B181B785BB21100D0
:101F70001800FFF75DFFC046BD4604B080BD80B5C8
:101F800082B000AF0200FB1D1A70FB1D1B785BB214
:101F90001800FFF733FFC046BD4602B080BD80B5D4
:101FA00082B000AF78607B681800FFF7AFFF0300D6
:101FB0001800BD4602B080BD80B584B000AF786027
:101FC0007B68002B01D101234EE17B685C229B5C86
:101FD000DBB2002B07D17B685D22002199547B681E
:101FE0001800FFF733FD7B681B689A697B681B68E4
:101FF00010218A439A61FFF7D3FE0300FB6012E0D1
:10200000FFF7CEFE0200FB68D31A0A2B0BD97B68C0
:102010001B6E01221A437B681A667B685C220321CF
:102020009954012320E17B681B689B6908221340B7
:10203000082BE5D07B681B689A697B681B680121C7
:102040000A439A61FFF7ACFE0300FB6012E0FFF762
:10205000A7FE0200FB68D31A0A2B0BD97B681B6E04
:1020600001221A437B681A667B685C22032199541B
:102070000123F9E07B681B689B6901221340E6D0CD
:102080007B681B689A697B681B6802210A439A6116
:102090007B681B68764A934203D1764A7B685B680B
:1020A00013607B681B7C012B08D17B681B689A69D5
:1020B0007B681B6840218A439A6107E07B681B6844
:1020C0009A697B681B6840210A439A617B685B7C44
:1020D000012B09D17B681B689A697B681B6880218A
:1020E000C9010A439A6107E07B681B689A697B68AB
:1020F0001B6861490A409A617B689B7C012B08D16F
:102100007B681B689A697B681B685C490A409A6116
:1021100008E07B681B689A697B681B68802149011D
:102120000A439A617B681B689B69554A13401900F2
:102130007B689A687B681B680A439A617B681B68A6
:102140009A697B681B68A4218A439A617B681B6833
:102150001A697B681B6810218A431A617B68DB68F7
:10216000012B08D17B681B689A697B681B68042176
:102170000A439A612CE07B68DB68002B28D07B68DF
:10218000DB68022B1CD07B681B689A697B681B6824
:1021900080210A439A617B681B681A697B681B6807
:1021A00010210A431A617B68DB68032B10D17B681E
:1021B0001B689A697B681B6820210A439A6107E0C3
:1021C0007B681B689A697B681B6820210A439A61B7
:1021D0007B689B69013B5A067B68DB69013B1B02FC
:1021E0001A437B681B6A013B1A4311007B685B69D9
:1021F000013B1A047B681B680A43DA617B689A68B2
:10220000C0239B009A4215D17B689B6A5A1E7B684B
:10221000DB6A013B1B021A437B681B6B013B1B0102
:102220001A4311007B685B6A013B1A047B681B68D8
:102230000A43DA607B681B68C02299587B68DA6BB6
:102240007B681B680A43C0215A507B68180000F065
:102250009BFC7B6800229A657B6800221A667B687B
:102260005C220121995400231800BD4604B080BDB2
:102270000064004000650040FFBFFFFFFFEFFFFF6D
:10228000FFFCFFFF80B586B000AF78603960172093
:102290003B187A685C21525C1A700200BB181B78EC
:1022A000012B03D0BB181B78022B3DD13B681B6868
:1022B000002B19D13B689B689A073B68DB68DB06FB
:1022C0001A433B681B691B041A433B685B69134351
:1022D0003B617B681A6C3B685B689B00D318BB60F2
:1022E000BB683A691A601DE03B68DB685A073B68C7
:1022F0001B6913433B613B689B689A073B685B69BA
:102300001343FB607B685A6C3B685B68DB00D31847
:10231000BB60BB683A691A60BB680433BB60BB68CA
:10232000FA681A60002306E07B681B6E02221A43DB
:102330007B681A6601231800BD4606B080BD80B5D3
:1023400084B000AFF860B9607A603B60FB685C22E3
:102350009B5CDBB2012B17D1FB681B6880229B586A
:102360003F2293431900BB681A017B689B001A4304
:102370003B685B001A43BB691A43FB681B680A434E
:1023800080215A50002306E0FB681B6E04221A438A
:10239000FB681A6601231800BD4604B080BD80B5F5
:1023A00082B000AF78607B685C229B5CDBB2012B63
:1023B00010D17B685C22022199547B681B689A6962
:1023C0007B681B6801218A439A617B6800221A6638
:1023D000002306E07B681B6E04221A437B681A66A2
:1023E00001231800BD4602B080BD80B586B000AFA5
:1023F000F860B9607A60FB685C229B5CDBB2022B00
:102400002DD1FB681B68C4229A5880239B0313407C
:1024100008D0FB681B6E802292001A43FB681A6684
:10242000012323E0FB681B68C4229B581B0C03227A
:1024300013407B617B697A68B968F86800F010FC2A
:10244000FB681B6801217A6991400A00CC215A502F
:1024500001227B699A40FB689A65002306E0FB68CD
:102460001B6E08221A43FB681A6601231800BD463A
:1024700006B080BD80B58AB000AFF860B9607A6000
:102480003B601B203B18FA685C21525C1A703B18B9
:102490001B78022B00D0C1E0BB68402B21D1FB6828
:1024A0001B6890229B580F22134008D1FB681B6EBB
:1024B000802252001A43FB681A660123B5E0FB68CC
:1024C0001B6890229B581B0A03221340FB61FB6888
:1024D000996CFA691300DB009B18DB00CB187B6258
:1024E00020E0FB681B6898229B580F22134008D1FC
:1024F000FB681B6E802252001A43FB681A66012398
:1025000093E0FB681B6898229B581B0A0322134028
:10251000FB61FB68D96CFA691300DB009B18DB00D8
:10252000CB187B627B6A1A688023DB051A407B68C4
:102530005A607B685B68002B07D17B6A1B689B0C29
:102540005B055A0D7B681A6005E07B6A1B68DB003F
:10255000DA087B681A607B6A1A6880239B051A4038
:102560007B689A607B6A1B68DB0FDA077B681A61FD
:102570007B6A04337B627B6A1B681B041A0C7B68D2
:10258000DA617B6A1A68F0231B031A407B68DA6001
:102590007B6A1A6880235B031A407B685A617B6AF6
:1025A0001A6880239B031A407B689A617B6A1B68C8
:1025B0001B0E7F221A407B681A627B6A1B68DA0F47
:1025C0007B685A627B6A04337B627B6A7B6100238F
:1025D0003B620AE07A693B6AD21839683B6ACB18D9
:1025E00012781A703B6A01333B627B68DB681B0C14
:1025F000104AD35C1A003B6A9342EBD3BB68402B72
:1026000005D1FB681B689421FA695A5004E0FB6805
:102610001B689C21FA695A50002306E0FB681B6E78
:1026200008221A43FB681A6601231800BD460AB047
:1026300080BDC0468845000880B584B000AF786092
:1026400039603B68402B07D17B681B6890229B5800
:102650000F221340FB6006E07B681B6898229B58A2
:102660000F221340FB60FB681800BD4604B080BD1C
:1026700080B584B000AF78607B681B68C4229B582B
:1026800007221340FB60FB681800BD4604B080BD04
:1026900080B586B000AFF860B9607A6017203B184B
:1026A000FA685C21525C1A700200BB181B78012B7F
:1026B00004D0BB181B78022B00D0B4E0FB681B6869
:1026C0009B6D3B61BB680722134003D03B6901222D
:1026D000134034D0BB683822134003D03B69022238
:1026E00013402CD0BA68E0235B00134003D03B6951
:1026F0000422134023D0BA68F0235B01134003D0B7
:102700003B69082213401AD0BA68E0231B02134029
:1027100003D03B691022134011D0BA68C0239B023A
:10272000134003D03B692022134008D0BA68FC2331
:102730001B0413400BD03B694022134007D1FB68B8
:102740001B68DA6DFB681B6801210A43DA65BB6808
:102750000722134003D03B690122134034D1BB68E8
:102760003822134003D03B69022213402CD1BA68AF
:10277000E0235B00134003D03B690422134023D1C4
:10278000BA68F0235B01134003D03B690822134071
:102790001AD1BA68E0231B02134003D03B69102210
:1027A000134011D1BA68C0239B02134003D03B6988
:1027B0002022134008D1BA68FC231B0413400BD01D
:1027C0003B694022134007D0FB681B68DA6DFB6849
:1027D0001B6802210A43DA65BB688022134009D0D6
:1027E000FB681B68DC229958FB681B687A680A43FF
:1027F000DC215A50BA6880235B00134009D0FB6883
:102800001B68E0229958FB681B687A680A43E0213C
:102810005A50FB681B68596DFB681B68BA680A430D
:102820005A65002306E0FB681B6E02221A43FB6810
:102830001A6601231800BD4606B080BD80B58CB075
:1028400000AF78607B681B681A6DE0235B01134062
:10285000FB627B681B685A6DFB6A1340FB627B68F6
:102860001B681B6D07221340BB627B681B685A6D97
:10287000BB6A1340BB627B681B681B6D3822134028
:102880007B627B681B685A6D7B6A13407B627B6846
:102890001B681A6DF1231B0413403B627B681B68A5
:1028A0005A6D3B6A13403B627B681B681A6DE023DC
:1028B0001B031340FB617B681B685A6DFB69134067
:1028C000FB617B681B685B6DBB617B681B681B6D74
:1028D0007B617B699B091A00012313400DD0BB6902
:1028E0009B091A000123134007D07B681B68402214
:1028F0001A657B68180000F02DF97B691B0A1A0025
:10290000012313401CD0BB691B0A1A00012313408A
:1029100016D07B681B68D8229B583B617B681B687C
:10292000E0229A583B6913403B617B681B68802218
:1029300052001A653A697B681100180000F0F1F83E
:10294000FB6A002B09D07B681B68FA6A1A65FA6A71
:102950007B681100180000F0B8F8BB6A002B09D0A2
:102960007B681B68BA6A1A65BA6A7B68110018002E
:1029700000F0B4F87B6A002B09D07B681B687A6A88
:102980001A657A6A7B681100180000F0B0F87B695C
:102990005B0A1A00012313400ED0BB695B0A1A00C0
:1029A0000123134008D07B681B68802292001A65BF
:1029B0007B68180000F0A4F87B69DB091A0001238A
:1029C00013401BD0BB69DB091A000123134015D04B
:1029D0007B681B68D4229B58FB607B681B68DC22E9
:1029E0009A58FB681340FB607B681B6880221A655D
:1029F000FA687B681100180000F08AF87B695B0BAD
:102A00001A00012313400ED0BB695B0B1A0001238F
:102A1000134008D07B681B68802292011A657B688E
:102A2000180000F087F87B69DB0B1A0001231340C4
:102A30000ED0BB69DB0B1A000123134008D07B6862
:102A40001B68802212021A657B68180000F07AF871
:102A50007B699B0B1A000123134010D0BB699B0BB1
:102A60001A00012313400AD07B681B688022D20120
:102A70001A657B681B6E80221A437B681A66FB69A5
:102A8000002B09D07B681B68FA691A65FA697B68B4
:102A90001100180000F06EF83B6A002B09D07B682B
:102AA0001B683A6A1A657B681A6E3B6A1A437B6830
:102AB0001A667B681B6E002B03D07B68180000F041
:102AC00051F8C046BD460CB080BD80B582B000AFA5
:102AD00078603960C046BD4602B080BD80B582B026
:102AE00000AF78603960C046BD4602B080BD80B599
:102AF00082B000AF78603960C046BD4602B080BD8C
:102B000080B582B000AF7860C046BD4602B080BDDF
:102B100080B582B000AF78603960C046BD4602B073
:102B200080BD80B582B000AF78603960C046BD46D8
:102B300002B080BD80B582B000AF7860C046BD46AF
:102B400002B080BD80B582B000AF7860C046BD469F
:102B500002B080BD80B582B000AF7860C046BD468F
:102B600002B080BD80B582B000AF7860C046BD467F
:102B700002B080BD80B582B000AF78603960C046D9
:102B8000BD4602B080BD000080B584B000AF786063
:102B90002F4BBB607B681B682E4A934205D1BB68F4
:102BA000D422920094466344BB607B68BA681A647E
:102BB0007B681B6880229B58274A134019007B685A
:102BC0005B6B1A047B681B680A4380215A50BB6800
:102BD00070331A007B685A647B681B6880229B589C
:102BE0001E4A134019007B689B6B1A067B681B68A2
:102BF0000A4380215A50BB68B0331A007B689A643C
:102C0000BB688933FF331A007B68DA64BB6898229B
:102C100092009A187B681A65BB689E2292009A18E7
:102C20007B685A65BB68FB6005E0FB6800221A60A0
:102C3000FB680433FB60BB68D42292009446634473
:102C4000FA689A42F1D3C046C046BD4604B080BD82
:102C500000B4004000680040FFFFE0FFFFFFFFF00E
:102C600080B588B000AFF860B9607A603B60BB683F
:102C70005B68002B0AD1BB681A69BB689B681A4362
:102C8000BB681B689B041343FB610BE0BB681A69BC
:102C9000BB689B681A43BB681B6813438022D2053C
:102CA0001343FB61BB681B6A1A06BB68DB691A43E6
:102CB000BB689B691A43BB685B691A43BB68DB68E6
:102CC00013433B61FB68596D3A681300DB009B18A6
:102CD000DB00CB18BB61BB69FA691A60BB690433BE
:102CE000BB61BB693A691A60BB690433BB610023ED
:102CF0007B6120E07B6903337A68D3181B781A065E
:102D00007B6902337968CB181B781B041A437B69F3
:102D100001337968CB181B781B02134379687A69F1
:102D20008A1812781A43BB691A60BB690433BB6105
:102D30007B6904337B61BB68DB681B0C054AD35C91
:102D40001A007B699342D5D3C046C046BD4608B041
:102D500080BDC04688450008B0B586B000AFF860B9
:102D6000B9603A607B60214B1B78012B01D10223B3
:102D700038E01E4B01221A701C4B00225A601725A6
:102D80007C19FA239B00180000F074F803002370EC
:102D90007B191B78002B1FD1FB68012B06D13A68E9
:102DA0007B68B968080000F0B3F805E03A68BB68D2
:102DB0001100180001F0ACFB1723FC18FA239B004C
:102DC000180000F057F803002370094B5A69FB689C
:102DD000D943074B0A405A61044B00221A7017234B
:102DE000FB181B781800BD4606B0B0BD24040020B7
:102DF0000020024080B582B000AFFB1D00221A7097
:102E00000B4B5B69002B0CDA094B0A4A9A60084BA2
:102E1000094A9A60064B5B69002B02DAFB1D01220E
:102E20001A70FB1D1B781800BD4602B080BDC0465D
:102E30000020024023016745AB89EFCD80B582B009
:102E400000AFFB1D01221A70094B5A69084B802103
:102E500009060A435A61064B5B69002B02DAFB1D27
:102E600000221A70FB1D1B781800BD4602B080BD01
:102E70000020024080B584B000AF7860FEF790FF7C
:102E800002007B689B18FB60C0239B02BB6007E0CD
:102E9000FEF786FF0200FB68934201D803232AE075
:102EA000174B1B69BA681340F2D1154B1B69154AC1
:102EB0001340BB60124B144A1A61BB68002B04D04C
:102EC000124BBA685A60012315E0FEF769FF020051
:102ED0007B689B18FB6007E0FEF762FF0200FB685F
:102EE000934201D8032306E0054B1A698023DB02D5
:102EF0001340F1D100231800BD4604B080BDC04688
:102F000000200240FAC30000FBC308002404002094
:102F1000B0B584B000AFF8603A607B600B4B5A6983
:102F20000A4B01210A435A61FB683A681A60BFF3F1
:102F30006F8FC0467B681C0000231D00FB680433B4
:102F400022001A60C046BD4604B0B0BD0020024059
:102F5000B0B584B000AF78603960334B1B78012B7B
:102F600001D102235CE0304B01221A702E4B00226B
:102F70005A600F257C19FA239B001800FFF77AFF8F
:102F8000030023702C003B191B78002B42D17B6877
:102F90001B68042B0DD17B685B68180000F048F8B3
:102FA0003C19FA239B001800FFF764FF030023700D
:102FB00030E03B68012252421A607B689B68BB602C
:102FC0001AE07B685B68BA681100180000F044F8EA
:102FD0000F257C19FA239B001800FFF74BFF030015
:102FE00023707B191B78002B03D03B68BA681A60EA
:102FF0000AE0BB680133BB607B689A687B68DB686A
:10300000D318BA689A42DCD3084B5A69074B02219D
:103010008A435A61044B00221A700F23FB181B7855
:103020001800BD4604B0B0BD2404002000200240BA
:1030300080B582B000AF7860064B5A697B681A434E
:10304000044B802149020A435A61C046BD4602B082
:1030500080BDC0460020024080B584B000AF7860DB
:1030600039600F4B5B690F4A1340FB607B68042B90
:1030700005D0FB68802292011343FB6003E0FB68EC
:10308000094A1340FB603B68DA00FB681A43044BB3
:1030900006490A435A61C046BD4604B080BDC046D9
:1030A0000020024007E0FFFFFFDFFFFF02000100FA
:1030B00080B586B000AF7860396000237B614DE158
:1030C0003B681B6801217A6991400A001340FB604C
:1030D000FB68002B00D13EE13B685B680322134094
:1030E000012B05D03B685B6803221340022B30D1D3
:1030F0007B689B683B617B695B0003229A401300FD
:10310000DA433B6913403B613B68DA687B695B00EB
:103110009A4013003A6913433B617B683A699A60AD
:103120007B685B683B6101227B699A401300DA434C
:103130003B6913403B613B685B681B0901221A40F5
:103140007B699A4013003A6913433B617B683A6993
:103150005A603B685B6803221340032B17D07B68DF
:10316000DB683B617B695B0003229A401300DA4312
:103170003B6913403B613B689A687B695B009A40FE
:1031800013003A6913433B617B683A69DA603B6834
:103190005B6803221340022B23D17B69DA087B682A
:1031A00008329200D3583B617B69072213409B0091
:1031B0000F229A401300DA433B6913403B613B689E
:1031C0001A697B6907210B409B009A4013003A69FA
:1031D00013433B617B69DA087B68083292003969E6
:1031E000D1507B681B683B617B695B0003229A407E
:1031F0001300DA433B6913403B613B685B68032281
:103200001A407B695B009A4013003A6913433B61A3
:103210007B683A691A603B685A68C0239B02134076
:1032200000D198E0534A7B699B0818339B009B5858
:103230003B617B6903221340DB000F229A4013009D
:10324000DA433B6913403B617A68A023DB059A426D
:1032500019D07B68484A934213D07B68474A93420F
:103260000DD07B68464A934207D07B68454A93421B
:1032700001D1042308E0052306E0032304E0022330
:1032800002E0012300E000237A6903210A40D20012
:1032900093403A6913433B6136497B699B08183375
:1032A0009B003A695A50334B1B683B61FB68DA4319
:1032B0003B6913403B613B685A6880235B031340C2
:1032C00003D03A69FB6813433B612A4B3A691A60A1
:1032D000284B5B683B61FB68DA433B6913403B6109
:1032E0003B685A6880239B03134003D03A69FB680C
:1032F00013433B611F4B3A695A601E4A8423D358DB
:103300003B61FB68DA433B6913403B613B685A68A9
:1033100080239B02134003D03A69FB6813433B614F
:10332000144984223B698B50124A8023D3583B6155
:10333000FB68DA433B6913403B613B685A68802372
:103340005B02134003D03A69FB6813433B610949B0
:1033500080223B698B507B6901337B613B681A6833
:103360007B69DA40131E00D0AAE6C046C046BD46BF
:1033700006B080BD00180240000400500008005054
:10338000000C00500010005080B582B000AF786093
:1033900008001100BB1C021C1A807B1C0A1C1A703E
:1033A0007B1C1B78002B04D0BB1C1A887B689A619D
:1033B00003E0BB1C1A887B689A62C046BD4602B017
:1033C00080BD80B584B000AF78600A00BB1C1A8055
:1033D0007B685B69FB60BB1C1B88FA6813401A049E
:1033E000FB68DB43B91C09880B401A437B689A6170
:1033F000C046BD4604B080BD80B584B000AF7860E3
:103400007B68002B01D101233DE07B681B68204ACB
:103410001A607B681B681F4A1A607B681B687A68A1
:1034200052685A607B681B687A6892689A60FEF7F7
:10343000B7FC0300FB600EE0FEF7B2FC0200FB6885
:10344000D31A312B07D97B681B68DB68072213402E
:1034500001D0032317E07B681B68DB680722134059
:10346000EAD17B681B681A697B68DB689A4205D0E1
:103470007B681B687A68D2681A6103E07B681B6806
:10348000054A1A6000231800BD4604B080BDC0463E
:10349000CCCC000055550000AAAA000080B582B02F
:1034A00000AF78607B681B68034A1A60002318002D
:1034B000BD4602B080BDC046AAAA000080B584B057
:1034C00000AF7860194B1B68194A13401900174B5D
:1034D0007A680A431A607A6880239B009A421FD157
:1034E000144B1A6813005B009B185B00124918000C
:1034F000FCF70AFE03000133FB6008E0FB68002BC9
:1035000003D0FB68013BFB6001E0032309E0074BAC
:103510005A698023DB001A408023DB009A42EDD0F9
:1035200000231800BD4604B080BDC04600700040B6
:10353000FFF9FFFF9800002040420F0080B582B0E5
:1035400000AFFEF72DFC03007B60354B1A68344B4F
:10355000802149000A431A6008E0FEF721FC0200BE
:103560007B68D31A022B01D9032354E02C4B1A6831
:103570008023DB001340F0D0294B8022D2015A6017
:10358000FEF70EFC03007B60254B00229A6009E0E9
:10359000FEF706FC02007B68D31A224A934201D947
:1035A000032338E01E4B9B6838221340F0D11C4B9C
:1035B000802252001A601A4B802252001A60FEF7D5
:1035C000EFFB03007B6008E0FEF7EAFB02007B688C
:1035D000D31A022B01D903231DE0114B1A68802353
:1035E0009B041340F0D10E4B80225201DA600C4B49
:1035F00000229A610A4B012252421A620A4B0B4A7C
:103600001A600B4B1B681800FEF76EFB031E01D0FF
:10361000012300E000231800BD4602B080BDC04673
:103620000010024088130000980000200024F400DD
:103630009C00002080B588B000AF78607B68002BCC
:1036400002D1012300F054FB7B681B680122134068
:1036500000D181E0C54B9B6838221340BB61C34B4E
:10366000DB68032213407B61BB69102B02D17B69AD
:10367000032B02D0BB69082B0CD1BC4B1A688023EA
:103680009B02134000D166E07B685B68002B62D12F
:1036900001232DE37B685A6880235B029A4207D19D
:1036A000B24B1A68B14B802149020A431A6020E0EC
:1036B0007B685A68A023DB029A420ED1AB4B1A6892
:1036C000AA4B8021C9020A431A60A84B1A68A74B6B
:1036D000802149020A431A600BE0A44B1A68A34BED
:1036E000A3490A401A60A14B1A68A04BA1490A409D
:1036F0001A607B685B68002B16D0FEF751FB030055
:103700003B610AE0FEF74CFB02003B69D21AFA2348
:103710005B009A4201D90323EAE2944B1A688023A2
:103720009B021340EED017E0FEF73AFB03003B612B
:103730000AE0FEF735FB02003B69D21AFA235B0070
:103740009A4201D90323D3E2884B1A6880239B0253
:103750001340EED100E0C0467B681B680222134094
:1037600000D199E0814B9B6838221340BB617F4BAD
:10377000DB68032213407B61BB69102B02D17B699C
:10378000022B02D0BB69002B35D1784B1A688023FD
:10379000DB00134005D07B68DB68002B01D10123DF
:1037A000A6E2724B5B68744A134019007B685B6940
:1037B0001A026E4B0A435A60BB69002B12D16B4B45
:1037C0001B686E4A134019007B681A69674B0A43ED
:1037D0001A60664B1B68DB0A07221340684ADA400E
:1037E000684B1A60684B1B681800FEF77DFA031ED1
:1037F00051D001237CE27B68DB68002B30D05B4B2F
:103800001B685E4A134019007B681A69574B0A43CC
:103810001A60564B1A68554B802149000A431A60BA
:10382000FEF7BEFA03003B6108E0FEF7B9FA0200BA
:103830003B69D31A022B01D9032359E24B4B1A6877
:103840008023DB001340F0D0484B5B684A4A1340AA
:1038500019007B685B691A02444B0A435A601BE0FB
:10386000424B1A68414B49490A401A60FEF798FAE0
:1038700003003B6108E0FEF793FA02003B69D31AAC
:10388000022B01D9032333E2384B1A688023DB0073
:103890001340F0D100E0C0467B681B68082213404B
:1038A00047D0324B9B6838221340182B0AD12F4B3C
:1038B0001B6E022213403CD07B689B69002B38D1E1
:1038C000012315E27B689B69002B19D0274B1A6EE8
:1038D000264B01210A431A66FEF762FA03003B6198
:1038E00008E0FEF75DFA02003B69D31A022B01D90A
:1038F0000323FDE11D4B1B6E02221340F1D018E0A3
:103900001A4B1A6E194B01218A431A66FEF748FAC0
:1039100003003B6108E0FEF743FA02003B69D31A5B
:10392000022B01D90323E3E1104B1B6E022213404B
:10393000F1D17B681B680422134000D1C6E01F232D
:10394000FB1800221A70094B9B6838221340202B69
:103950001ED1064BDB6D0222134000D1B6E07B681E
:103960009B68002B00D0B1E00123C1E100100240B0
:10397000FFFFFEFFFFFFFBFFFF80FFFFFFC7FFFF13
:103980000024F400980000209C000020FFFEFFFFB0
:10399000B54BDA6B80235B05134001D1012300E0B6
:1039A0000023002B11D0B04BDA6BAF4B80214905BF
:1039B0000A43DA63AC4BDA6B80235B051340FB6090
:1039C000FB681F23FB1801221A70A84B1A6880237A
:1039D0005B0013401AD1A54B1A68A44B8021490003
:1039E0000A431A60FEF7DCF903003B6108E0FEF7CA
:1039F000D7F902003B69D31A022B01D9032377E1DF
:103A00009A4B1A6880235B001340F0D07B689B6858
:103A1000012B06D1944BDA6D934B01210A43DA65F1
:103A20001CE07B689B68052B0CD18F4BDA6D8E4BAD
:103A300004210A43DA658C4BDA6D8B4B01210A4372
:103A4000DA650BE0884BDA6D874B01218A43DA6532
:103A5000854BDA6D844B04218A43DA657B689B6869
:103A6000002B14D0FEF79CF903003B6109E0FEF740
:103A700097F902003B69D31A7D4A934201D9032387
:103A800036E1794BDB6D02221340F0D013E0FEF7F4
:103A900087F903003B6109E0FEF782F902003B6908
:103AA000D31A734A934201D9032321E16E4BDB6D94
:103AB00002221340F0D11F23FB181B78012B05D1E4
:103AC000694BDA6B684B6B490A40DA637B681B68A9
:103AD0002022134039D07B68DB69002B1BD0624B5E
:103AE0001A68614B8021C9030A431A60FEF758F92E
:103AF00003003B6108E0FEF753F902003B69D31A6B
:103B0000022B01D90323F3E0574B1A6880231B04CF
:103B10001340F0D019E0544B1A68534B56490A40F1
:103B20001A60FEF73DF903003B6108E0FEF738F943
:103B300002003B69D31A022B01D90323D8E04A4B78
:103B40001A6880231B041340F0D17B681B6A002B8A
:103B500000D1CCE0444B9B6838221340102B00D19D
:103B60007BE07B681B6A022B56D13F4B1A683E4BA9
:103B700042490A401A60FEF713F903003B6108E06E
:103B8000FEF70EF902003B69D31A022B01D9032379
:103B9000AEE0354B1A6880239B041340F0D1324BC2
:103BA000DB68374A134019007B685A6A7B689B6A56
:103BB0001A437B68DB6A1B021A437B681B6B1A4340
:103BC0007B685B6B1A437B689B6B1A43264B0A43EB
:103BD000DA60254B1A68244B802149040A431A6095
:103BE000214BDA68204B802149050A43DA60FEF751
:103BF000D7F803003B6108E0FEF7D2F802003B690A
:103C0000D31A022B01D9032372E0174B1A688023C1
:103C10009B041340F0D06AE0134B1A68124B17490B
:103C20000A401A60FEF7BCF803003B6108E0FEF7AB
:103C3000B7F802003B69D31A022B01D9032357E0DE
:103C4000094B1A6880239B041340F0D1064BDA68B5
:103C5000054B0C490A40DA6049E07B681B6A012B7E
:103C600012D1012344E0C046001002400070004021
:103C700088130000FFFFFFEFFFFFBFFFFFFFFFFE06
:103C80008C80C111FCFFFEEE1B4BDB687B617B6906
:103C900003221A407B685B6A9A4226D17B697022B4
:103CA0001A407B689B6A9A421FD17A69FE23DB0126
:103CB0001A407B68DB6A1B029A4216D17A69F823A4
:103CC0009B031A407B681B6B9A420ED17A69E023F2
:103CD0001B051A407B685B6B9A4206D17B695B0FC0
:103CE0005A077B689B6B9A4201D0012300E00023B6
:103CF0001800BD4608B080BD0010024080B584B0F9
:103D000000AF786039607B68002B01D10123E9E0C6
:103D1000764B1B68072213403A689A421ED9734BB0
:103D20001B68072293431900704B3A680A431A60D4
:103D3000FEF736F80300FB6009E0FEF731F80200F9
:103D4000FB68D31A6A4A934201D90323CAE0674B3E
:103D50001B68072213403A689A42EED17B681B68C1
:103D60000222134015D07B681B680422134006D042
:103D7000604B9A685F4BE021C9010A439A605D4B32
:103D80009B685D4A134019007B689A68594B0A4347
:103D90009A607B681B680122134057D07B685B6880
:103DA000012B07D1534B1A6880239B0213402BD160
:103DB000012397E07B685B68022B07D14D4B1A68A3
:103DC00080239B0413401FD101238BE07B685B6839
:103DD000002B07D1474B1A688023DB00134013D117
:103DE00001237FE07B685B68032B06D1414B1B6E90
:103DF0000222134008D1012374E03E4BDB6D022206
:103E0000134001D101236DE03A4B9B680722934395
:103E100019007B685A68374B0A439A60FDF7C0FF68
:103E20000300FB6009E0FDF7BBFF0200FB68D31A4B
:103E30002F4A934201D9032354E02E4B9B6838222A
:103E40001A407B685B68DB009A42ECD1274B1B6809
:103E5000072213403A689A421ED2244B1B6807225D
:103E600093431900214B3A680A431A60FDF798FF03
:103E70000300FB6009E0FDF793FF0200FB68D31A23
:103E80001B4A934201D903232CE0184B1B680722DD
:103E900013403A689A42EED17B681B6804221340B3
:103EA00009D0144B9B68154A134019007B68DA68E7
:103EB000104B0A439A6000F029F801000D4B9B68F3
:103EC0001B0A0F221A400E4B9200D3581F22134098
:103ED0000A00DA400B4B1A600B4B1B681800FDF709
:103EE00003FF03001800BD4604B080BD002002405F
:103EF0008813000000100240FFF0FFFFFF8FFFFF5C
:103F000048450008980000209C00002080B586B03D
:103F100000AF3C4B9B68382213400FD1394B1B68D4
:103F2000DB0A0722134001229A4013003B603968E4
:103F30003548FCF7E9F803003B615DE0314B9B68D5
:103F400038221340082B02D1304B3B6154E02D4BFB
:103F50009B6838221340102B38D12A4BDB68032290
:103F60001340FB60274BDB681B090722134001331A
:103F7000BB60FB68032B0DD1B9682448FCF7C4F87B
:103F8000030019001F4BDB681B0A7F2213404B43C1
:103F90007B610DE0B9681C48FCF7B6F80300190016
:103FA000184BDB681B0A7F2213404B437B61C046E2
:103FB000144BDB685B0F0722134001337B60796889
:103FC0007869FCF7A1F803003B6115E00D4B9B6895
:103FD00038221340202B03D180231B023B610BE0CE
:103FE000084B9B6838221340182B03D1FA23DB01BE
:103FF0003B6101E000233B613B691800BD4606B010
:1040000080BDC046001002400024F40000366E015E
:1040100080B586B000AF78601323FB1800221A70B9
:104020001223FB1800221A707B681A6880239B02F7
:10403000134000D1ADE011203B1800221A70474B0D
:10404000DA6B80235B05134010D1444BDA6B434B92
:10405000802149050A43DA63404BDA6B80235B0514
:104060001340BB60BB683B1801221A703C4B1A68B6
:104070003B4B802149000A431A60FDF791FE030083
:10408000FB600BE0FDF78CFE0200FB68D31A022BED
:1040900004D91323FB1803221A7005E0304B1A6869
:1040A00080235B001340EDD01323FB181B78002BFB
:1040B0005ED12A4BDA6DC0239B0013407B617B6984
:1040C000002B19D07B681B6C7A699A4214D0234B61
:1040D000DB6D244A13407B61204BDA6D1F4B80213E
:1040E00049020A43DA651D4BDA6D1C4B1E490A4032
:1040F000DA651A4B7A69DA657B690122134016D0BA
:10410000FDF74EFE0300FB600CE0FDF749FE0200E8
:10411000FB68D31A154A934204D91323FB180322D0
:104120001A7004E00D4BDB6D02221340EDD0132317
:10413000FB181B78002B0AD1084BDB6D094A134092
:1041400019007B681A6C054B0A43DA6516E01223E6
:10415000FB181322BA1812781A700FE000100240F0
:1041600000700040FFFCFFFFFFFFFEFF8813000010
:104170001223FB181322BA1812781A701123FB1895
:104180001B78012B05D1B64BDA6BB54BB5490A400C
:10419000DA637B681B680122134009D0B04B5B6D6A
:1041A0000322934319007B685A68AD4B0A435A6552
:1041B0007B681B680222134009D0A94B5B6D0C225F
:1041C000934319007B689A68A54B0A435A657B683C
:1041D0001B680422134009D0A14B5B6D302293432E
:1041E00019007B68DA689E4B0A435A657B681B6836
:1041F0001022134009D09A4B5B6D9B4A1340190063
:104200007B681A69964B0A435A657B681A68802353
:104210005B01134009D0924B5B6D944A1340190027
:104220007B685A698E4B0A435A657B681A688023FB
:104230009B00134009D08A4B5B6D8D4A13401900D7
:104240007B689A6A864B0A435A657B681A688023A2
:10425000DB00134009D0824B5B6D864A1340190086
:104260007B68DA6A7E4B0A435A657B681B682022AA
:10427000134009D07A4B5B6D7F4A134019007B686D
:104280009A69774B0A435A657B681B684022134042
:1042900009D0734B5B6D794A134019007B68DA696A
:1042A0006F4B0A435A657B681A688023DB01134011
:1042B00015D06B4B5B6D9B0099087B681A6B684B44
:1042C0000A435A657B681A6B8023DB059A4206D144
:1042D000634BDA68624B802149020A43DA607B68EB
:1042E0001A6880231B03134009D05D4B5B6D40228D
:1042F000934319007B685A6B594B0A435A657B6894
:104300001A6880239B03134016D0554B5B6D5C4AA3
:10431000134019007B689A6B514B0A435A657B68BE
:104320009A6B8023DB039A4206D14D4BDA684C4BE3
:10433000802149040A43DA607B681A688023DB0322
:10434000134016D0464B5B6D4E4A134019007B68F4
:10435000DA6B434B0A435A657B68DA6B80235B0454
:104360009A4206D13E4BDA683D4B802149040A430C
:10437000DA607B681A6880231B01134014D0384B25
:104380009B6D0322934319007B681A6A344B0A43DE
:104390009A657B681B6A012B06D1314BDA68304B7A
:1043A000802149020A43DA607B681A6880239B01F6
:1043B000134014D02A4B9B6D0C22934319007B6849
:1043C0005A6A274B0A439A657B685B6A042B06D1BD
:1043D000234BDA68224B802149020A43DA607B686A
:1043E0001A6880235B04134016D01D4B9B6D224A34
:1043F000134019007B685A6C194B0A439A657B6815
:104400005A6C80239B019A4206D1154BDA68144BF3
:10441000802149040A43DA607B681A6880239B0480
:10442000134016D00E4B9B6D104A134019007B6849
:104430009A6C0B4B0A439A657B689A6C80235B00ED
:104440009A4206D1064BDA68054B802149040A439B
:10445000DA601223FB181B781800BD4606B080BD39
:1044600000100240FFFFFFEFFFF3FFFFFFFCFFFF25
:10447000FFFFF3FFFFFFCFFFFFCFFFFFFF3FFFFF78
:10448000FFFFBFFFFFFFFFFE70B500260C4D0D4C78
:10449000641BA410A64209D1002600F02BF80A4D97
:1044A0000A4C641BA410A64205D170BDB300EB58A2
:1044B00098470136EEE7B300EB5898470136F2E72C
:1044C0009845000898450008984500089C45000854
:1044D000002310B59A4200D110BDCC5CC454013306
:1044E000F8E703008218934200D170471970013336
:1044F000F9E70000F8B5C046F8BC08BC9E46704716
:10450000F8B5C046F8BC08BC9E46704700000000E5
:1045100001B40248844601BC604700BFA5000020EA
:104520001011121315141700480A0008620A000837
:104530007A0A0008920A0008AA0A0008F40A000889
:10454000DA0A0008C20A00080000000000000000AB
:10455000000000000000000000000000000000005B
:104560000000000000000000010000000200000048
:104570000300000004000000060000000700000027
:1045800008000000090000000001020304050607FE
:08459000080C10141820304043
:04459800E90000082E
:04459C00C100000852
:1045A00000000000110100000000000000000000F9
:1045B000000000000058000800000208000002008F
:1045C000010000009D050008F10500080000000042
:1045D000000000008906000800000000A106000895
:1045E000210200080000000031020008BD0200089E
:1045F000410400086D0B0008C10B0008FD0B00080A
:10460000310C00088D0D0008550E00080000000058
:1046100000000000B90E00080000000000000000CB
:10462000000000000000000000000000000000008A
:1046300000000000000000000024F400040000005E
:104640000100000080B588B000AF786039601F239A
:10465000FB1800221A707B68BB613B687B611A4BB8
:104660005A69194B8021C9020A435A61EFF310833A
:10467000FB60FB683B6172B6C0460FE07A69BB69BC
:1046800012681A607B6904337B61BB690433BB61C8
:104690001F217B181A787B1801321A701F23FB1810
:1046A0001B783F2BEAD9C046074B1A69C0239B02EF
:1046B0001340F9D13B69BB60BB6883F31088C046E7
:0C46C000C046BD4608B080BD002002408E
:0400000508001BFDD7
:00000001FF
